:400000000040002011000000A5040000A504000010B500F067FAC04670B51222254B1A6000F0CCFD244800F0AFFF012000F0E6FD302000F0E5FC214A214B1A60214D802364
:40004000DB052B60204A116802230B4313601F4A1F4B1A6000221F4B1A601F4A13680824A3431360FA20C00000F074FD1B4800F067FDE82252011A4B1A601A4A1A4B1A601F
:4000800080221206194B1A608022D202184B1A604022184B1A60184A184B1A60184B2B60184B1C60174B1B681B07FBD40122154B1A6070BD30001040001BB7000600008032
:4000C00004010B400C020B4078002E402D3E00007C002E4064F02E406CF02E40DC0500000003014040FF00800000014008010B4000010B4004010140FF7F000008020B40B2
:400100000700004010020B4010B572B600221E4B1A6000240FE01D486200131959000B00411889881A5AC31858880004104300F0B3F90134E4B2012CEDD9154A154B1A603C
:4001400099231B04144A1360144A1360144A1360144A117806230B43DBB213703022124B1A60124A124B1A60C022124B1A60D8231B0411490B6011490A60114A1360FFF747
:400180004BFF00F079F910BD6CF02E40A82F01000000EEEE0000024000500F4020500F4030500F4000700F40000004400040DA000800044000020440080204400003044095
:4001C0000803044010B5064C2378002B07D1054B002B02D0044800E000BF0123237010BDC010002000000000A42F0100084B10B5002B03D00749084800E000BF074803686C
:40020000002B00D110BD064B002BFBD09847F9E700000000C4100020A42F0100A00B00200000000010B5074818230381064B036002238380C3800023044A00210EF0FAFAE6
:4002400010BDC04628220020A40B00204822002010B584B0282810D004D8012809D0262812D048E042281DD04C2824D0412842D112E0002000F0E8F93DE0002000F0E4F961
:4002800000221E4B1A7036E01D4B1B78042B32D1002000F0D9F92EE00122184B5A7000F01BFA28E0154B00221A705A7001329A70FFF7B8FF1FE06B4615C915C31A000B68E6
:4002C00013609BB2152B05D1019A11780B4A117001219170172B07D1019A1178094B197052785A70FFF79EFF074A13785078000218430DF097F804B010BDC046DC100020A9
:4003000040220020A40B00204822002000B585B001AA122313810190918005490B7848780002184311000DF031F805B000BDC0464822002000B585B00C4B9B78012B13D157
:400340000A4A00239370127869460A704B7001A8153303810191022383803E33044A00210EF068FA01F01CFC05B000BDDC1000204822002010B501F0CBFA0F2101F048FA37
:400380000131C8B210BDC04610B5002000F034FDFFF7F0FF074C2070FFF7ECFF6070FFF7E9FFA070FFF7E6FFE070042000F0BCFC10BDC0463422002010B562B6274800F0D5
:4003C00001FD002000F092FC254800F0EBF800F041FD00F0CFFC002001F0D6FA01F06AFA012000F009FD1F4B9B681F4A117819745178597491789974D278DA741B4B5B7882
:40040000012B1CD1FFF796FF184B1B78012B11D1012000F0FDFC164B1B78002B15D1002000F0DEFC04211048FFF770FF012000F0D7FC0AE00F4B187800F0EAFC05E00120A5
:4004400000F0CEFC012000F0E3FC064BD968986803F036FB01F0A4FBC2E7C0468903000051020000EC0B002034220020DC10002044220020A40B00200323044A1360044ADB
:4004800013600022034B1A607047C0463000304030003140000E3F4010B50A00002101F001FA10BD10B501F0B9F903680C2B00D1FEE7FEE710B50300084A1068C318084A47
:4004C0009A1A802A02DC054A136005E001F0A6F90C2303600120404210BDC046A80B00207822002070B50F4E0F4D13E029686B68AC68002202E001C901C30432A242FAD134
:40050000E868002202E0002102C304328242FAD11035013E002EE9D101F086F9FFF74CFFFEE7C046010000005833010010B50E4A136801218B43136000230AE0032B03D816
:400540009A000A49505800E009489900094A885001332F2BF2D9FFF7D7FD034A116801230B43136010BDC0460000104000000000A50400000000002010B500F03FFA10BD7C
:4005800010B50023044A1370044A1370044A1370FFF7F2FF10BDC0464B220020442200204A22002010B590B0040014221F490BA801F06FF91E4B1B78002B04D1FFF7E0FF03
:4005C00001221B4B1A70002C2CD01A4B1C6008A805AA426006AB0893002101811B311980598017391971002313701231694401F0B3FB002817D100230293019305330093FB
:400600000BABAE2212010C490C4801F0FBFA002809D101220A4B1A701332192109480EF0F1F800E0012010B010BDC046B42F0100DF10002038220020C0000020C50700002A
:4006400040220020C82F010010B5022833D81E4B1B78042B31D11D4B1B785B0730D400280BD11B4B1A004032002111822022596C0A805B6C30325A800EE001280CD1144BE7
:400680001A00403296211182C822D200596C0A805B6C8022D2015A800E4B18700C4840300BF0C0FC00280DD1084A117804230B43DBB2137006E0012004E00420FF3001E062
:4006C0000420FF3010BDC046402200204B220020AC0B00204A22002010B50BF053FD034A117808230B43DBB2137010BD4B2200207047C04603784078000218437047C0468F
:4007000070B5050083890F2B1FD1043031332A0000210EF08FF8041E11D16868FFF7EAFF830706D50A4B1B68290082204000984705E0074B1B6829000620FF309847054AB1
:40074000137801218B43137000E00024200070BD382200204B220020024B00225A701A707047C0464822002010B582B00400FFF7C7FF0A4B1B78DB070ED4002809D001A90B
:4007800012238B70A3890B80C87020680CF0C0FD02E020680CF046FE02B010BD4B2200208379002B07D000200BE0C25C002A07D10133DBB200E00023052BF6D9002000E037
:4007C00001207047F0B583B005000C007C4A117801230B43DBB213704C2800D9DEE08300784AD3589F4601AE0727377000237370300003F00BFA377001237370300003F084
:4008000005FA01F0C5F9704B1E683000FFF7C8FF00280CD0300001F0C7F96B4E00213068FFF766FF30680121FFF762FF2AE0674B1F78674B18788001FC2636010200324036
:400840003F2139401143634B1B781B03F822520213401943604B1B785B04FE22120413400B435E4E33701A0A72701B0CB370300001F09AF900213000FFF73AFF0121300036
:40088000FFF736FF00200BF071FA01A83F230370002343700BF088FA0422514B1A707DE02278504B1A7079E02378002B76D16378002B06D14C4B0022DA809A804B4A1A60CF
:4008C00063603F4A137801218B43137066E03C4B1B789B0662D4464B1B78102B02D10522434BDA70434B187841490BF05DFB01AB1880002804D0404B1B6801A9362098471E
:400900002F4A117801230B43DBB2137046E00222334B1A7042E00422314B1A703EE0304B1B78022B3AD0264A1278D20736D5244A1278520708D50322294B1A70204A13780C
:4009400004218B43137029E01D4A1278120708D50422234B1A701A4A137808218B4313701CE0032B1AD104221D4B1A7016E002222100204800F08DFF00221A4B1A700DE040
:40098000FFF7EAFE0AE06188162900D9172120880CF0C8FC02E02000FFF7E6FE084B1A7811231A4209D0064A137801218B431370114B1B6821002800984703B0F0BDC046E9
:4009C0004B220020C4310100000C00207CF1FF0F7DF1FF0F7BF1FF0F78F1FF0F040C00204022002044220020E0100020A00B0020E80C002048220020382200207047C04678
:400A000010B586B0040000F0C8FA0E4B1B6800930D4B1B680193033C0C4B1B5D02930C4B1B68039304AA0B4B04936B4605930A4B1A600A490A4A11601B6800F0B2FA06B074
:400A400010BDC04608010B4000010B400433010030001040B6EA0000080010401700008004001040024B1B68012018407047C0460C002E401F2318401E3B8340014A136074
:400A80007047C04600E100E01F2318401E3B8340014A13607047C04680E100E001BE704770B504000D001F2802D90020FFF7F6FF1034A40080239B059C46644420682560AB
:400AC00070BDC04670B504000E00032902D90020FFF7E4FF1F2C02D90020FFF7DFFF03252540ED00063500F058FAA408A400074B9C46644421680323AB4099430B0031009D
:400B0000A9401943216000F04CFA70BD00E400E010B5040006E0084B586800F035FA074B9C46644480231B029C42F4D8024B9868604300F029FA10BDF00C00200080FFFF37
:400B400010B5034B1B7B584300F01EFA10BDC046F00C002010B504000F4A116801230B4313600E4A0E4B1A600E4A1368802109020B431360002809D100200CE00120FFF72A
:400B8000DFFFFFF76FFF002804D1013C002CF5D1102000E0002010BD60F02E400220000078002E4010002E40034B1868C0231B02184000D00120704700010B4010B50D4B4F
:400BC0001A6801218A431A601A68022082431A60094A10683024A043203C204310601068093CA043014311601A68802109060A431A6010BD00F02E4000FF2E4070B51D4B83
:400C00001B6801241C40002802D0012816D02BE0184B19680122914319601968022081431960154B19682E3081432038014319601968093881430A431A6018E00D4B1A6831
:400C400002218A431A600C4A10680725A84301431160116830208143103801431160196801220A431A6002E00020FFF717FF200070BDC04600F02E4000FF2E4010B500F09A
:400C80008CF9044A1368C02109020B43136000F088F910BD00010B4010B500F07EF908490A68084B1A408024E40122430A600A6813408022120213430B6000F072F910BD57
:400CC00000010B40FF3FFFFF10B50400022802D90020FFF7E3FE044B1868E4000134E0400123184010BDC04610020B4010B504000C4A136803431360C30704D50020FFF7E7
:400D0000E3FF0028FAD0E30504D50120FFF7DCFF0028FAD0E30304D50220FFF7D5FF0028FAD010BD10020B4070B5050000F035F90400FFF739FF002803D0FFF7ADFF01213A
:400D400000E0002108482840084A1568084B2B40184310601368012901D1FFF78FFF200000F01FF970BDC0460404040010020B40FBFBFBFF7047C046014B18667047C0466F
:400D80000000002010B5040000F007F9044A1368C0218B43A4011C43146000F002F910BD08E400E080225200014B1A607047C04600E100E080225200014B1A607047C04637
:400DC00080E100E010B50400FFF7F4FF2000FFF7D3FF0320FFF7D6FFFFF7E4FF10BDC04604490A687F231A40C301D8B2104308607047C0460003044004490A68D2B2402310
:400E00009A43800118401043086070470002044004490A68D2B240239A43800118401043086070470003044010B50920FFF722FE10BDC04610B500F01DF810BD10B5044AAE
:400E40001368802109060B431360FFF7EDFF10BD0000244010B5064B1B78002B04D1FFF7E9FF0122024B1A70FFF7E8FF10BDC046E810002010B50024184B1C60184A194B9C
:400E80001A60194B194A1360194A1460194A1460194A1360194B1C600920FFF7F5FD03210920FFF70FFE16490920FFF7F9FD154B1C60154B1C60154B1C60154B1C60154B75
:400EC0001C60154B1C601022144B1A70144B1C80144B1C60144B1C6010BDC04600002440770800806000244007010080000324400403244010032440000224400402244033
:400F0000A90F0000C80E2440880E2440480F2440080F2440C80F2440880F24404C2200205A220020602200205422002010B50E4A13685B005B08136000230C490B600C49F6
:400F40000B600C4804680C49214001600B490B600B490B6010210B4B19701368802109060B43136010BDC04600002440680024406C00244060002440FF5CFFFF880F2440CA
:400F8000C80F24404C2200200230800803D00138FDD1C046C046C0467047EFF3108072B6704780F31088704710B5AF4B1B68002B00D09847AD4B1B68DB0702D50022AC4B8F
:400FC0001A60AC4B1B789B0628D5AB4B1B68DB0507D5AA4A1188C0239B000B431380012300E00023A44A1268D20706D5A34A118890239B000B4313800123002B0FD09D4A21
:401000001278D20701D5012200E002229B49088802430A800021974A117000E00023954A1278920600D417E1934A1268D20611D51022934B1A608F4B1B78DB0701D50123D2
:4010400000E002238D4A11880B4313801022894B1A7007E1874A1278120720D5864A126892070AD50222864B1A60844A118888239B000B431380012311E07E4A1278D2073A
:4010800003D525217B4A117009E02421794A11707C4A1268002A02D014397B4A1160754A1278520700D4AEE0724A1278D20749D5764A1268120727D5754A126875490968A3
:4010C0001F240C40744909686418141B082C09D8002C16D1714A1168714B0B401360012308340EE008240CE06B4A11686D48006841186D480068C0B2087011680131116085
:40110000013C002CF0D119E0604A1268520715D5614A116863480068411863480068C0B208701168013111601168594A1268914203D204215D4A116000E001235C495D4AB1
:40114000116060E04C4A1268920726D502224C4B1A6059490B681D321A40096880231B020B4000D001239B18544A1168CB1A13601268534B1A60414A118884239B000B434F
:401180001380504B1A68802149020A431A6019684D4A0A401A60012335E04C4A1268D2061ED427E0454A1168364A126891421DD2344A1268013A414909688A4204D14022E1
:4011C00043490A6030490A603C4A11684148006841180978C9B240480160116801311160354A12681F210A40082ADBD11021384A116008E0354A1268520604D52F4B1A6839
:401200002F4B1A600123002B2CD0244A1168244B0B4013600023314A13601B4A1360304B1B789B070ED5134B1B78DB0701D5092300E00A23114A11880B43138060220D4B4E
:401240001A700FE0274B1B689B0601D5182200E01022164B1A6005E0064B1B78DB0601D4FFF764FE10BDC046EC1000208C0E2440880E24404C2200200C0F24405A220020FB
:40128000000F24405C220020880F2440CC0F24406C220020080324406022002060002440FFFEFFFF682200204003244068002440ED0F0000C00F2440080224405022002019
:4012C0005422002004022440FFFFFEFF8C0F2440800F24406422002040022440C80F244058220020640024400160704701607047324B1A781202324B1B781A43314B1B7849
:401300001B02314909780B4330498B4201D1072A06D0D42109018B4206D1042A04D102E02B4B042200E02A4B2A490B602A4B1A602A4B1B781B022A4A127813438022920134
:40134000934202D0002B02D002E0264B00E0254B254A1360254B1B781B02254A12781343244A934205D0244A934204D0052B05D103E0224B02E0214B00E0204B204A1360DA
:40138000204B1B681B09204A1268AA2A15D1012B13D9164B1B780E2B0FD11C4B1B781B021B4A127813431B4A13601B4B1B781B021A4A127813431A4A13607047D9F0FF0F65
:4013C000D8F0FF0FDFF0FF0FDEF0FF0F580B0000580D00006C002E4074002E40DBF0FF0FDAF0FF0F0220000078002E40DDF0FF0FDCF0FF0F0F0F000005050000050F000030
:4014000080002E40EC0F00F0E00F00F06DF2FF0F6CF2FF0F84002E406FF2FF0F6EF2FF0F94002E4010B5FFF78BFB10BD10B5FFF76FFB10BD10B500F04BF810BD10B500F0D0
:401440004FF810BD10B500F04BF8034800F02AF8032000F02DF810BD2915000010B5024800F046F810BDC046291500000220FF307047C0462B2070472B2070472B2070475E
:401480002B2070472B2070472B2070472B2070472B2070472B2070472B2070472B2070477047C046014B18677047C0460000002010B50400FFF771FD044A1368C0218B4312
:4014C000A4011C431460FFF76CFD10BD0CE400E080225201014B1A607047C04600E100E080225201014B1A607047C04680E100E010B50400FFF7F4FF2000FFF7D3FF0320C9
:40150000FFF7D6FFFFF7E4FF10BDC04610B5FFF744FD044A136804218B43136030BFFFF740FD10BD10ED00E010B511F027FD10BD002243088B4274D303098B425FD3030AED
:401540008B4244D3030B8B4228D3030C8B420DD3FF22090212BA030C8B4202D31212090265D0030B8B4219D300E0090AC30B8B4201D3CB03C01A5241830B8B4201D38B03C7
:40158000C01A5241430B8B4201D34B03C01A5241030B8B4201D30B03C01A5241C30A8B4201D3CB02C01A5241830A8B4201D38B02C01A5241430A8B4201D34B02C01A524172
:4015C000030A8B4201D30B02C01A5241CDD2C3098B4201D3CB01C01A524183098B4201D38B01C01A524143098B4201D34B01C01A524103098B4201D30B01C01A5241C308C1
:401600008B4201D3CB00C01A524183088B4201D38B00C01A524143088B4201D34B00C01A5241411A00D20146524110467047FFE701B5002000F0F0F802BDC0460029F7D0AC
:4016400076E7704703460B437FD4002243088B4274D303098B425FD3030A8B4244D3030B8B4228D3030C8B420DD3FF22090212BA030C8B4202D31212090265D0030B8B4275
:4016800019D300E0090AC30B8B4201D3CB03C01A5241830B8B4201D38B03C01A5241430B8B4201D34B03C01A5241030B8B4201D30B03C01A5241C30A8B4201D3CB02C01A8E
:4016C0005241830A8B4201D38B02C01A5241430A8B4201D34B02C01A5241030A8B4201D30B02C01A5241CDD2C3098B4201D3CB01C01A524183098B4201D38B01C01A5241F4
:4017000043098B4201D34B01C01A524103098B4201D30B01C01A5241C3088B4201D3CB00C01A524183088B4201D38B00C01A524143088B4201D34B00C01A5241411A00D244
:4017400001465241104670475DE0CA0F00D04942031000D34042534000229C4603098B422DD3030A8B4212D3FC22890112BA030A8B420CD3890192118B4208D3890192114B
:401780008B4204D389013AD0921100E08909C3098B4201D3CB01C01A524183098B4201D38B01C01A524143098B4201D34B01C01A524103098B4201D30B01C01A5241C30879
:4017C0008B4201D3CB00C01A524183088B4201D38B00C01A5241D9D243088B4201D34B00C01A5241411A00D20146634652415B10104601D34042002B00D5494270476346EB
:401800005B1000D3404201B5002000F005F802BD0029F8D016E770477047C046014B18687047C046BC1000200E4B70B500251E000D4CE41AA410A54204D0AB00F358984733
:401840000135F8E711F076FD084B00251E00084CE41AA410A54204D0AB00F35898470135F8E770BD4033010040330100403301004833010030B50024A24208D0035D651CF3
:401880000C5DA34201D0181B02E02C00F4E7002030BD002310B59A4203D0CC5CC4540133F9E710BD03008218934202D019700133FAE77047104B70B51C680500A36B002B4D
:4018C00015D1182000F086F80C4BA06303800C4B012243800B4B83800B4BC3800B4B038105234381063383810023026143610022A36B1D615A6170BDBC1000200E33000060
:40190000CDABFFFF341200006DE6FFFFECDEFFFF154B10B51C68A36B002B15D1182000F059F8124BA0630380114B01224380114B8380114BC380114B038105234381063369
:401940008381002302614361A46B0D4A206961690C4B00F0BDF80122002380185941206161614800400810BDBC1000200E330000CDABFFFF341200006DE6FFFFECDEFFFF6A
:401980002D7F954C2DF4515813B5084B040000226946186800F00CF8002802DA01235B4200930098002C00D0206016BDBC100020002370B5064C050008001100236000F016
:4019C000B3F8431C03D12368002B00D02B6070BD7022002010B5034B0100186800F004F810BDC046BC100020032370B5CD1C9D43083506000C2D01D20C2501E0002D01DB5C
:401A0000A94202D90C23336048E0300000F05EF8234B1C681A002100002913D00B685B1B0DD40B2B02D90B60CC181EE08C4202D1636813601AE04B6863600C0016E00C00C2
:401A40004968E9E7174C2368002B03D1300000F02BF820602900300000F026F8431C18D00323C41C9C43A0420DD12560300000F02EF8200007220B30231D9043C31A0ED0C5
:401A80005A42E2500BE0211A300000F00DF8431CEBD10C233000336000F019F8002070BD202200201C220020002370B5064C050008002360FEF7FEFC431C03D12368002BF0
:401AC00000D02B6070BDC0467022002070477047F0B54F464646C0B41604360C9946330005042C0C070C150C63437E436F4365431C0CAD1964199C46A64203D980235B0249
:401B0000984647446346250CEF191D044B464A4343432D0C240464199918C91920000CBC90469946F0BDC04658220120014B40421A60704770220020134A1088810703D038
:401B40008107890F401A001D11791030484381B25088820703D08207920F801A001D800040180A494030098980B2CA0701D0503080B2890706D504495422091F0978514313
:401B8000081880B2704700000A0D0020FC10002010B501F00DFF10BD10B501F00FFF10BD10B500F05BFA10BD10B50749044609780220002907D1204601F050FF002802D11E
:401BC00020460AF0D7F910BDA80E002070B504460120002C12D02368002B0FD0616800290CD0074D06222889208118462968FFF750FE6968606809780170002070BD000038
:401C0000FC100020FFB585B0002768460E9D07734F481C460078002802D0082009B0F0BD10990F9801900095029105A807C800F007F90028F2D16946264603AB844608732E
:401C4000002C19D0002115E08A00B75A082F09D990198078002805D0083FB7521878401C187005E0002914D00027B75290198770491CC9B2A942E7D360460028CED10F98C8
:401C8000002809D0109901F043FA002804D00120C4E701208446EFE701F090FE2D480021416081600599016021888180022D07D3A1798171A17AC171A1890181218A418108
:401CC00000211EE0481C19E082008B00A75AE65ABE46BE4211D26F463E80B4461E190296B678BE7001967646E6521719029EBB78B3706646A652019EBE70401CA842E3D37D
:401D0000491CA942DED3134822460C3000906846037B0799069800F01BF90028B8D168460B4C007B60700B480C3001F077FE0028AED1084907480C3107F0F2F90028A7D1A9
:401D400007F00CFA0028A3D10121217066E70000040D0020F0100020F8B5054636480F460078002802D002242046F8BD002F60D000243249002D16D02A89D0070DD02868F3
:401D8000002808D003881B3BE12B04D24088FB2801D81B2801D2012409E0900707D56868002804D1F7E70020088108604860002CDAD122482E8906811F481B21801D018061
:401DC0004180042101711C490020891C0870F00705D019480622801D2968FFF75AFD1749B00703D56A68144812788270124D0E46AD1D281F0D60486001F056FE284601F003
:401E000045FE30890DF026FE30890DF00FF828880DF012F830890DF087FF03461033FFF78BFE1F21C018890140183880A91F88809AE7012498E70000040D0020FC100020C6
:401E4000FFB58446384F1C460020BB883F78054602460646002F11D100290ED0029999420BD36146002908D0002C06D00A99002906D02E4B0B99994202D2012004B0F0BDFC
:401E8000002144E0AB001F19BF78002F3BD0E35A002B38D07B43591889B22B0000F04AF8050410161C253100A7782388BC46FF27233BEB37BB4222D26346032B1FD322E083
:401EC000A388002B1FD0302B19D31CE02389002B19D0282B13D316E0A289002A13D01346134F233BBB420AD20DE0268A002A0AD033460F4F233BBB4201D2964203D90120C6
:401F00000EE0002001E000280AD16D1CEDB2099B9D42B7D31C2463435B1802998B42ACD89642AAD8AAE70000040D002079020000BAFF000030B47446641E2578641CAB42BB
:401F400000D21D46635D5B00E31830BC18470000FFB583B0002469460C801F4606468C80002806D00598002803D004983043800701D0012466E0002FFBD0344904980988BC
:401F80008842F6D3FFF76AFAFFF758FA00F012FC002855D100F07AFD002851D12C49084601F0EAF805042D0C4AD12A480499066081800021C18007810C98007AC00704D0E3
:401FC000684601F014FD040007D10C98007A800703D501A801F014FD0446BF1DFEB2002C20D13146059800F05DF804001AD10DF0A9FE040016D16A46108892880836851826
:40200000144AF1B29088D288AEB29319984207D3401B801A80B201F09FFB050007D000E0FF25012400F05EFA002D04D008E0F8B200F01CF9F6E700F081FA074901200870A5
:4020400000F0CAFB204607B0F0BD0000080D00209121000008110020100D002010B503480078012801D101F019FA10BD100D002070B5084B0446DA889E8803205518B54222
:4020800006D8186880182060D8884018D880002070BD000008110020014800897047000008110020F0B587B007460D4600208900009006916846FFF7DBFF844600285DD168
:4020C000304800990160002117E02E4B88001A680629115406D22C4C0419667882185670628805E0C419203CA67A8218567022891B68C018491C4280C9B2A942E5D300249D
:402100002DE0601CC2B2059025E01E4FA30039689600581840887118039604904E88B04217D938466F46FE80B6464F786E4677710297049F4F800168039F5E187678791800
:402140004E700168764659184E800068029F18184770521CD2B2AA42D7D30598C4B2AC42CFD36046002809D168460699FFF780FF8446002802D1054900980860604607B048
:40218000F0BD0000140D002068330100180D00207047000010B5002809D005494A68002A05D0011F08788000105801F083FA10BD140D002010B50446FFF76EFFC0B2801D4F
:4021C000A0420CD307484068002808D0A100405801F0E2F9002801D00470001D10BD002010BD0000140D0020F8B516460D460446FFF752FFC0B2801DA04203D20020C043C7
:402200000090F8BDB2B2E9B2684601F0EBF90099481C03D0024AA000526811500098F8BD140D0020F8B50746FFF736FF801DC6B20A49002005460C680DE06178002907D040
:402240006188B94202D32078FFF7B4FF002804D1241D6D1CEDB2B542EFD3F8BD140D002010B5002801D0FFF795FF10BD70B506460948002504680BE06178002905D062883B
:402280002078121D0023FFF7AFFF241D6D1CEDB2B542F1D370BD0000140D0020FFB581B00A9F16000C4620D000F0F2F8054604281BD0002F0CD03846FFF7B4FF20492A0116
:4022C00051184860002810D03A460499FFF7E1FA1B4928010E504618778101980570200406D47D20C000444304E0FF2005B0F0BD6404640C00F0BAF80746042807D000F087
:402300004FFAA0420BD800F04BFA201A03E0204600F0AAFA0020F06035720020E6E700F03FFA009000F0B6FA00980121001B009000F0ECF802493A0151180098C860E6E731
:4023400014110020F8B5060116483418217A042903D0E068002802D017E00020F8BD00F01FFA054600F096FA00F0A0F804280CD001010C480F18F8680021451900F0C6F8A3
:402380000020F860284600F06FFA6068054D002801D0FFF765FF042020720020A8516081E060DAE714110020FEB500266A46304601232549050169180D7A042D02D0C968A8
:4023C00000291BD000211154401CC0B20428F0D300246846005D002830D01B48210108184189476805680291002101604160042241810272C160002E02D015E01354E3E74B
:4024000000F054F804280ED001010F4808180190C6680021304600F079F801980021C160304600F021FA0126002D07D038460299A847002F02D03846FFF712FF641CE4B2FB
:40244000042CC6D3FEBD0000141100200EB5002005216A460090118150810348694600680EF0D5FA0EBD00001C0D0020074A0020010189180B7A042B02D0C968002903D0DD
:40248000401CC0B20428F3D370470000141100200549002002015218127A042A03D0401CC0B20428F6D370471411002030B50A4B04200A4C00210A011219157A042D06D098
:4024C000D268002A03D09A4201D808461346491CC9B20429EFD330BDFFFF0000141100207047000030B50020074C05460423020111190B72A5504D60401C4D81C0B2CD60B4
:402500000428F4D330BD00001411002030B5094C00231A011219157A042D04D0D568002906D02D18D5605B1CDBB2042BF1D330BD2D1AF7E714110020002070471CB500246F
:4025400069460C70142001902346054A05480EF063FA04480068401C00D1FF2420461CBDB92500001C0D00203EB5124A0146FF2000230124126800290DD0012914D00429E9
:4025800008D104206946009308814B8110460EF03EFA80B23EBD6846009304814381694610460EF02FFAF4E768460093048143816946EBE71C0D002070B5458904684168E1
:4025C00000890300FFF7B6FC08280509091E22282628002005F056FC1EE0022908D0C8B22A4621460CF076FB2046FFF739FE13E002202A4621460CF06DFB2946204600F0DC
:402600000DF809E000200DF001FF05E02046FFF7CBFE01E0FEF744FF002070BD014B0022DB681847200D002070B5448905680089022803D0032809D0FF2070BD2246094CD0
:402640000023A46829460120A04708E0FFF7A4FA241DA2B200232946022006F014FC002070BD0000200D002070470000024800214160018041807047200D002070B50C46CF
:40268000002186B016460391012802D0022859D116E003A9012006F04BFC01281BD1039D324621462846FFF7F4F80095287801900220694608814E816846FFF7B5FF41E038
:4026C000214D002B686809D0049004A9022006F02FFC01281DD0022006B070BD002812D0298840182146FFF7D4F828880024801980B228806988091D884206D12C801348B7
:40270000FFF792FF03E00320E6E788421AD96C6018E004986860E278A378110219430B4A698000231060E3565360032313815181A1788170E178C170617841702178017005
:40274000042028800020C7E7200D0020541100203EB515460C46022803D004280CD000203EBD0091019002206946088107484A8100680EF04CF907E00CF0ACFA044B0022F2
:40278000DB6829462046984701203EBD1C0D0020200D0020014AD16090607047200D0020034801688068081A0A214843000970476011002010B5FEF745FE4C220449054836
:4027C000FFF767F803490120C870002010BD0000843301006415002010B5FEF72BFE10BD70B5134C2368002B08D0207B1149C20705D04008400020738868A08070BD886804
:402800000B4AA18880B29268814203D90A4D691A091802E0814202D2411A5118A160A080A0689842EAD30EF00FF900F013F870BD60110020C0102E40FFFF000010B5084649
:402840001946FFF7A7FF10BD704710B5FFF780FF10BD000003480021016041608160C1607047000060110020024610B5FF20002A0CD0FFF7EFFF064C0321207B0843207315
:4028800010010A21FEF7DAFE2060002010BD00006011002000B504480A21806848430209FFF7D8FF104600BD601100200248007B8007C00F704700006011002010B54B493A
:4028C0000868002802DA4A4B01221A70022290430860484800694549C00B4031096A0246C907C90F0A4259D0012000F097FA3F480E216C30FEF7FAFC3E4820218430FEF7D9
:40290000F5FC3C4814219C30FEF7F0FC3948FF21C131A430FEF7EAFC3648FF212F31B030FEF7E4FC33483449BC30FEF7DFFC31483249AC30FEF7DAFC30492E48491CB430C4
:40294000FEF7D4FC2B482E49B830FEF7CFFC29482C49CC30FEF7CAFC26482B490830FEF7C5FC24482949A830FEF7C0FC214828498830FEF7BBFC1F4826498C30FEF7B6FCB5
:402980001C481921C9029030FEF7B0FCFEF7B0FCFEF76CFDC0B2022812D01FE000290BD0002101420AD0114801216030FEF79EFC0120FEF73BFD97E70121F2E7FF2010BD42
:4029C00015491648FEF792FC14481549001DFEF78DFC124800210830FEF788FC54200449C043891C0870002010BD000000F02E40300D002000002E40320300002F3F00007D
:402A00003102000010520000EC160000FA12000031D000003AE300009956000080012E40F80F000070B50646581C80B245086D00002408E0304600F0C1F81055000A11195B
:402A4000A41C4870A4B2AC42F4D3D80705D0D0182038D15CC47FD454C17770BD30B50A4C002100195B1E07E0541864782502545C2C430480891C89B29942F5DB994201D1C3
:402A8000515C018030BD000000102E4010B5FF2000F0C4F90F49FF2048700E481021801D41800121417001700A490020C91C4870FFF704FF04000AD100F010F9072106483D
:402AC000FEF712FC044807211830FEF70DFC204610BD0000300D0020CC112E4070B5002405465B1E0AE0284600F068F8010A161971702D1D1055A41CADB2A4B29C42F2DB9F
:402B00009C4203D1284600F059F8105570BD000070B500210A4D5B1E0AE0541864782602545C344346193480001D891C80B289B29942F2DB994202D1515C4019018070BDBF
:402B400000102E40F0B50599091FCFB200217E1E0BE0541864782502545C2C43164D45192C80001D891C80B289B2B142F1DBFC0712D01C78515C24020F4A0C4381180C8041
:402B80009C785D78001D210280B2294384182180001D80B2D9780CE059781A7809021143054A84182180001DD9789B78090280B2194380180180F0BD00102E400149401837
:402BC0000088704700102E4010B50B490020487000F084F8002000F047F9002000F034F907210648FEF780FB044807211830FEF77BFB002010BD0000330D0020CC112E4089
:402C000010B50B46062812D006DC01280CD0032801D1FFF7D9FF10BD0A28FCD00B28FAD105480078107010BDFFF730FF10BD1146184600F035F910BD360D0020F8B5244DCE
:402C4000AC6A0127A007234E002816DA307806280ED1286A384328621F480069F903084381B21D481030FEF741FB042000F0D6F8174802212830FEF737FBE00718D000F0D8
:402C80006DFF01280FD1002000F0BAFF062000F0C5F81049FF20C91E48707078002802D1686B384368630A4801212830FEF71CFBE0050BD53078042802D1052000F0AEF8F1
:402CC0000348FF2101312830FEF70EFBF8BD000040F02E40330D002000002E4010B503212348FEF703FB0120FEF79CFB20483038406A204C80076178800F890001431C48C6
:402D00000C38FEF7F3FA6078002808D0401E022181401820FEF77CFDC000083800E0B82081B21548FEF7E2FA1348032109021438FEF7DCFA10481149B830FEF7D7FA612111
:402D400089010F48FEF7D2FA0D480321001FFEF7CDFA0C490C48FEF7C9FA0B480B496038FEF7C4FA084801218838FEF7BFFA10BD70F02E40360D0020D8102E4090890000BD
:402D8000041E2E40FF0F000058122E40209000000848017806290BD140780749002803D1486B400840004863C86A01221043C86270470000330D002040F02E4001480078E7
:402DC00070470000330D002000B50300FFF7B2F8080D050D0B070507090D012000BD032000BD042000BD022000BDFF2000BD0000074A9168D26889B2064B92B2994204D1AB
:402E000005498A4201D1012100E000210170704780002E4033D000003FE3000010B50446FEF70CFB072C01D9FF2C01D102480470FEF700FB10BD0000330D00200149487056
:402E400070470000300D002010B5064A012805D01921C9021046FEF749FA10BD1D21C902F8E7000090002E4010B50A4A141D012808D009491046FEF739FA08492046FEF71E
:402E800035FA10BD04491046891CFEF72FFA0349491DF3E788002E4031D000003AE3000070B50C460546FEF7E1FAC0B202280E49287804D0FF2810D04C280CD810E0FF28A1
:402EC00009D10A4AD0680004800F032801D0087807E09069000A553803E00878207070BD4F382070087070BD320D002000002E40F0B50122002834D0002932D004244206AE
:402F000000D00524792342065B06D21800D0641C034600221EE00C2516466E43124D00277519AF72104F002ABB51696007D0661EB24209D10D4E86197606760E05E05E0673
:402F4000760E8027BE1B00E080269B198919521C2E81D2B2A242DED303480549006B002288611046F0BD0000EC130020790200003C0D002018B50020694608700A48006957
:402F800000280ED0132149014018047E684604704F21C900054800F05BF8A04201D0012018BD002018BD00003C0D002070110020074900200C2242435218927A012A05D087
:402FC000401CC0B20628F5D30020704701207047EC130020F8B50F000446164609D01A4D1A496868A04202D94018A04201D38E4201D90120F8BD39462046FEF73BFC0028E6
:4030000020D0324639462046FEF743FC0E49F0B2012620318E7600210C220B4653430A4A9A1813895568EF18A74207D9641B1B1B9672834206DAC01A1469C0B2491CC9B22A
:403040000629E9D30020F8BDEC13002079020000034610B50020024604E09C5C2018521CC0B292B28A42F8D310BD000070B500F05FF8084C064A216907480D46FEF709FCAE
:4030800005492846FFF734FFFFF774FF207070BD790200003C0D002070110020002070470020054A002902D0012902D002E0906000E0D060002070473C0D002070B5084CA8
:4030C000154608460549E26889182A46FEF7E1FBE0684019E06028B270BD0000701100203C0D00203EB50A226946FFF7E7FF044606480A2200686946FEF7BCFB002802D090
:403100000020C0433EBD20463EBD0000400D0020002802D0044A914201D2FF20704703494A61086100207047790200003C0D0020024800218160C160704700003C0D002037
:4031400070B5074C15460548A26880182A46FFF741FFA0684019A06028B270BD701100203C0D002010B503490A220968FFF7E8FF10BD0000400D002010B50F4A00231360FC
:403180000E4A13600E4B18600E4801600E49012008600E490860000290600E490C4808600D4914300860FF381538506000F0BCF800F0CAF9002010BD700D0020580D00207C
:4031C000840D0020880D0020740D0020640D002034150020680D00207C0D0020014610B50020002910D0094B1A689C685118A14209D25868196080188A0704D08A07920FF2
:40320000891A091D196010BD002010BD580D0020F8B50024164E671E321F3D463168136806E01422624310328A58521C1BD0641C9C42F6D36A1C14D02C46142254432246F5
:403240000C3288500C214843FFF7C8FF3168002808510AD031680020103408517068401C70602846F8BD2546E4E73846F8BD0000680D0020F3B50026F64381B000281BDBFE
:403280001E490968884217D80299002914D01B4F142204463F1D54432546396810354859401C09D0FEF7CAF838682F1F4159C359994203DBFEF7BEF83046FEBD2146083141
:4032C0000091465801590C20704308180C220299FEF7DFFA0948761C001D0068C159B14200D100260549009A091D865008684159491C4151FEF79EF80020FEBD640D002067
:40330000002803DB07490968884202D90020C043704704491422091D096850431030085870470000640D0020F0B500200D4A451E0346171F50600FE0142601467143146864
:403340000E1DA3510C461668083433511668083435511468401C635039688842ECD30020F0BD0000680D0020F3B50026F64381B0002841DB2349096888423DD8029900294B
:403380003AD0204F142204463F1D54432546396810354859401C2FD0FEF750F83868415900292BD0211D009146580C21005971430F46C1190C220298FEF76BFA11480021C7
:4033C000001D0068761C00590C34C0190160416081600C48001D00680159B14200D100260849009A091D865008684159491E4151FEF720F80020FEBD3046FEBDFEF71AF83A
:40340000FAE70000640D0020FEB504460D4600201E49089E0860471E009001900290002C11D0486885420ED2002A0CD0002E0AD0642E08D808460C3001681C2068430C183B
:40344000207A002801D03846FEBD0120226020721846FFF7DDFE6060401C13D06681A6810A4827610C3067610179A94200D205710021684601810A462846029B00F040F8B0
:403480002846FEBD00202072DDE70000700D002038B50124009400F039F838BDFEB50027164EFF433D4600240EE01C20316860430818017A002906D04068FFF721FF002807
:4034C00001D0254603E0641C3079A042EDDA681C12D01C2130684D434419FDF7AFFF69466068FFF741FF0546FDF7A4FF002DD9D1216868468847D5E7FEBD00007C0D002085
:4035000038B50024009400F001F838BD1FB500220C49541E0A60002811DB496888420ED808491C220C31096850430818406801A9FFF7A0FE401C02D0002004B010BD204661
:40354000FBE70000700D0020F0B50021114A4D1E174611710C3F0B46BD6016E008461C2460431668041D355114680646235014680836A3551468361DA353044616680A34A4
:40358000335318301468491C255078688142E5D30020F0BD7C0D002038B500210091002811DB0F49097888420DDA0D4D04010C3529680859002807D0201D0818694600F04C
:4035C0006FF9002801D0002038BDFDF737FF28680F34015D491E0155FDF72CFF009838BD8C0D0020F7B582B0002502986E1E06602E48D21C024017462D4A2C4610460C38C3
:403600000178106805E02301C358002B0FD0641CE4B28C42F7D3711C28D03401211D40180191039900F02AF900281FD101E02646F1E71F48016820460C300F521C4803991C
:40364000026820460E30115419480399026820460F3011540398784300F0A0F8144900280968085102D00024009011E001251AE00F48016801980818009900F02CF9002853
:4036800001D0012502E00098C0190090641CE4B203988442ECD3002D05D10298066004480179491C0171284605B0F0BDFCFF0000980D0020F8B50D4600216A468C46118096
:4036C000002839DB23490978884235DA214B04010C3319680A59002A2ED020460C300B5A801C0E5C184670438018954224D3854222D2002006E007465F43BF18AF4206D03A
:40370000401CC0B2B042F6D36046002814D0114E271DC8190C366A46294600F006F900280AD168460088012808D030682946C01900F0D1F8002803D00120F8BD0020F8BD01
:40374000FDF77CFE30680F34015D491C0155FDF771FEF3E78C0D0020F8B50F46002400F031F8002817D10C4900220B460C334A600EE021011D680E466A501D680C36AA538A
:40378000B61C1D680F31AA551D68641C6A54E4B2BC42EED31A71F8BD8C0D002000280BD0C01C074A81085068890053884118994203D8936851601818704700207047000014
:4037C0008C0D0020F8B5064600200F4D009029700C0121466846FEF74BFC00280CD129460C3100980860301B001F84B221466846FEF73EFC002801D0FF20F8BD6C8000982E
:40380000A8600020F8BD00008C0D0020F8B5002827DB19490978884223DA174C05010C342168485900281CD028460C30085A009028460E300E5C401C0E5420682F1DC0196D
:4038400000F064F800280CD12068002445590EE0094829460C300068C01900F03CF8002801D00120F8BD00982D18641CE4B2B442EED30020F8BD00008C0D002030B50D461F
:4038800004000BD0A800FFF789FF6060002805D000202570C0436080002030BD012030BD70B50D46040005D0002D03D00220205E002801DA012070BDFDF7C0FD0221615EBE
:4038C00060688900405828606088401E6080FDF7B1FD002070BD70B50D46040007D0002D05D002212078615E401E814201DB012070BDFDF7A3FD6088401C00B260806168F5
:4039000080000D50FDF796FD002070BD10B5040009D0227800216068FDF7C4FF0020C0436080002010BD012010BDF0B500231D46002802D00224045F0AE00120F0BD466808
:403940009F00F6598E4201D1012503E05B1CDBB29C42F4DA15700020F0BD00000148007870470000A00D00207CB505460024FEF713F9A8796946087000A80622294601300E
:40398000FDF787FF0021684604F042FD0C2806D0072806D01F2806D0122806D006E0022404E0042402E0272400E0012420467CBD01480121417270477016002010B500F036
:4039C000ADF9FFF7FBF9FFF7FFF910BD70B504460025FEF7E1F8002C06D0A079012803D8214602F0CFFC00E00125284670BD01460120002902D05020088000207047000004
:403A000001460120002905D003485422007850430880002070470000A20D002010B502460D49FE204870032410460DF013FB002810D10DF0B7FA00280CD105F0D5FA0028BD
:403A400008D100F061FB002804D104F087FF002800D10024204610BDA00D002070B50025044600280ED0A07901280BD8FEF794F8A0790028204602D003F016F803E002F0FE
:403A8000EBFF00E00125284670BD0000014610B50120002904D006220248FDF7FAFE002010BD0000AC0D002001460120002903D0087802490870002070470000A20D0020E0
:403AC000F0B5002493B00E46054627461094FEF763F800F025FD002836D0002D0CD0EA7F1F2A01D9012407E000A829460130FDF7D0FEE87F69460870002E0FD0002C29D10E
:403B0000F27F1F2A01D9012424E008A831460130FDF7BFFEF07F08A9087001E0002C19D10020002D05D011A9684600F049FD10900120002E05D011A908A800F0E5FD074623
:403B400001201099394301D0022403E0002801D000F0A2FC204613B0F0BD00000148007A704700007016002038B504460120002C20D0617801291DD800290BD0FF25E535FA
:403B8000FEF70AF80C4828180088C0B22070072803D00EE0FF25CD35F2E70020694608706846FFF725F969460878012801D108202070002038BD000000102E40014A002117
:403BC00092681047A00D002008B500226B461A7026280CD0094A342852680BD0352805D1900703D50021352005F0DAFA08BD19462620F9E7D007F9D03420F5E7A00D002057
:403C0000014908727047000070160020F8B504460120002C26D06178012902D92278092A20D8002905D0FF25E5352078092803D004E0FF25CD35F8E708202070FDF7ACFF6E
:403C40002078114F114E08280DD00020FFF70CF970780128207810D00D4969180880FE2070700020F8BD0120FFF7FEF80720B8810549203188800120F2E7B88102482178E0
:403C800020308180EBE70000C0112E40A00D002000102E4070B50E46050001D0002400E00C4C002C11D0E28A500609D5D107C90F022002F08DFFE08A40218843E08204E0D3
:403CC000D107C90F012002F083FF3146284602F067FC70BDD0150020F8B50546002004460D4E009013E022466946284600F0E0FF0098002801D00DF08FF9A878214602F0F0
:403D0000A9FAA878214602F097FA641CE4B2308AA042E8D8F8BD00009C16002038B51E4CFFF74CF8042813D0052811D0062812D003282AD007280AD1002069460870024661
:403D40000120FEF75DFFFFF739F80128FBD138BD00F077FB38BD02F0D3FA00F072FB02F033FB8007800F0228F4D10C4841880029F0D05B21095D0029ECD101210170A07DAA
:403D80000140022002F024FF38BD02F0BDFA0120FFF744F838BD0000D0150020C60D0020F8B50646002402F081FF0546304602F097FF03460A480021068A0DE001228A40AF
:403DC0001046174628401F40002803D0002F01D1224394B2491CC9B28E42EFD82046F8BD9C1600201CB50020694648706846FFF7BBFE01AA69460A20FEF702FF694604203C
:403E000008561CBD70B50D4601F038FB04000BD02079002808D0FDF7BFFEE178A0782A4602F044FC002070BD022070BD0148007970470000A41500204030C07E002800D0DF
:403E40000120704700B500F001F800BD902148430749084A40186030417F491CC9B24177D289914201D300214177C8B270470000B01500209C16002013B501F0FFFA040078
:403E80000BD001F09CFE002807D0214601AA0A310620FEF7B5FE00201CBD02201CBD000010B50C4601F0EAFA00280AD001F087FE002806D0224604490A20FEF7A1FE002099
:403EC00010BD022010BD000091150020F3B581B0074601460026029802F0E0FE0446002F01D0002500E0154D002D21D0284601F0FBFA032C04D13946029802F02BFF06469B
:403F00003846029902F098F9032C06D0002C10D00121384601F0EEFB03E03146384603F01FF9284602F07CF80221284602F092F8FEBD3846029902F07FF9FEBDD015002098
:403F400010B5044600F066FA002804D103F0DEFD002801D00C2010BD2078611C02F0ACFCFF2801D01F2010BD02F0F2FCFF280AD02178621C02F0EEF8044821780068026BE8
:403F8000601C904710BD072010BD0000EC0D002010B503F0BBFD002801D00C2010BD02F06DFC03480068C06A8047002010BD0000EC0D002070B50D46044610210CF06CFF13
:403FC0001021601806460CF067FF334610221946204603F0C9FD102130460CF05DFF02202870204604F0F0FB70BD0000F8B504464078217802028006870FE0781143A678E4
:4040000009050002090D0643084601F037FA00210546F2B2002812D0002C10D0022F0ED0032F0CD0002A0AD00279092A07D0002A05D0134A5A23527F1B5C9A4207D8288948
:40404000002104F0F6FA20460CF0E6FFFF21002914D10C48224600682946436930469847C0B2FF280AD128464030817EF2B2491C8176FF232146284600F0E3F8F8BD00006A
:4040800064150020080E00200020704710B5044603F03CFD002801D00C2010BD2078611C02F00AFCFF2808D002F03EFB044821780068426B601C904710BD1F2010BD0000D0
:4040C000EC0D002010B500F06BF904F047FC002010BD10B5044600786178E2780843A17811430843217908436179084305D003F0FFFC002803D00C2010BD122010BD204687
:4041000002F0D2FC002010BD10B5FDF7AFF902F0EFFD044803F066FD02F010FB012000F003F810BD78150020F1B586B003A8009005A8019028489F22017B114001736846F9
:40414000FDF744FD002845D169460989C90705D0224806990068C2686846904769460989890706D5002835D11D480068816A0698884700282ED11B4E00257570757375715F
:40418000F575357675767575B570F570B5713746F5730120D03738731F20F880FF2130467972A0300176457600F0CAFA00242046069901F0AFFC002803D1641C2406240E22
:4041C000F5D0FD720749BD72B573C0310D704D704D600D7207B0F0BD64150020080E0020EC0D0020B015002070B505460E46084602F05CFD0446304602F072FD0121A940D3
:404200000A46224001400A4301D0012070BD002070BD10B50446084602F062FD0121A140014201D0012010BD002010BD10B5FEF7C5FD032804D102F067F80120FEF7EEFD64
:4042400010BDFEB51C4616460F46054601F0E8FEA878FFF7F7FD02460190334639460094284600F00DF8002808D1A8780199FFF711FDFF2C02D138460CF0CEFEFEBD0000F9
:40428000FFB585B005460E980C46FF2810D02B49C00009680A5840180179C0795278814201D9012601E09006860F6846038108E06078A1788006860FE078000201436846AD
:4042C0000181284601F086FC070007D021462846079A00F081FC384609B0F0BD304600F02FFD04AE0346039002AA29460096204600F0BBFB3C20405D002818D0284601F071
:4043000069FC012813D0684600890096C0B20190A878231DFF22079902F0F6F868460089039BC2B2A878079902F03AFCD3E7684600890021C0B20091E9E70000040E0020F3
:40434000F8B5002600253046FFF72AFD07001DD090201149704340186030447F12E0601CFDF76CF9CCB23846E040C007C00F07D02146304601F058FF21463046FFF7A6FD6B
:404380006D1CEDB20548018AA942E8D8761C3606360ED7D0F8BD0000B01500209C16002010B502F0CBF90020FFF7BEFE0CF0CAFE002010BDF8B5002400F0B2F80123012877
:4043C00000D10124104F00203E4620360425082203E0002801D0002100E031460979002907D001290BD002290BD0114681402143CCB2401C0006000EEBD07C70F8BD1C4315
:40440000F7E72C43F5E70000B015002010B5FFF7D1FF10BD10B5044604F0F2FB002802D1601C00F001F810BD1CB500240094062269460194FDF71EFA002800D11224204663
:404440001CBD10B5FCF7A9FD0446FEF7B7FC012809D0FEF7B3FC022805D0FDF757F82046FCF79FFDEEE72046FCF79BFD10BD10B50B4681791943817103D08078114602F031
:404480005DFB10BD10B582798A43827102D1807802F068FB10BD000030B50C4C0220A28A0B4B9978002901D0022906D11D785B78EB18282B01D9032002E0032900D10120C1
:4044C0005105490DC0020143A18230BDC0112E40BC0D002000B500F029F8002807D0012805D0032801D0042801D0002000BD012000BD014600B50020C90701D000F010F8A6
:4045000000BD014600B50020C90701D000F008F800BD00000148006870470000B40D002001480088000A704720102E400448008B410501D5042070474007800F7047000080
:4045400000102E400148406870470000B40D00207CB50446002568460570200610D5FFF7E5FF01280CD101A801F0D4FE6846007900F036FB012001F0BBFD0220FFF746FFAB
:40458000600712D50C48017901290ED10571684601F0C0FE6846007800F056FB0220FFF735FF00212620FFF70FFB044800680169204688477CBD0000C00D0020EC0D002057
:4045C00010B501460A4A007800241070FFF7A8FF0128084603D002F0D3F9204610BD00F0E7F80400F9D1034801210170F5E70000BC0D00207016002070B50446FFF790FF8D
:40460000002801D00C2070BDA27B01211F48002A827801D00A4301E05208520082706279012A14D0C17849084900C170184D2868016820468847207901280CD06188208811
:4046400003F012F82080207904280FD015E0C2780A43C270EAE72868C168E01D8847E01D02F00EFA0B48008D208006E02868C168E01D8847E01D02F003FA07492079887046
:40468000204602F08BF9002070BD0000B0150020EC0D002064150020BC0D002008B50178FFF73EFF814201D10C2008BD002914D0072069460870FFF70DFF012807D10121E2
:4046C000684600F0E5F8012801D0092008BDFFF7E3FE02F097F9012011E0FFF7FBFE012806D1684601F016FE6846007800F0ACFA02F07EF9FFF714FF0028FBD10220FFF710
:4047000085FE002008BD000010B501460A4A007800245070FFF704FF0128084603D002F0EDF9204610BD00F065F80400F9D1034801214170F5E70000BC0D00207016002063
:4047400038B568460CF0FEFB002801D01F2038BD01210098C90201804180002505714571857107214173857302F018F9009C202200212046FDF796F825702A460021601C0E
:40478000FDF790F8204602F0FBF8204602F0B6F900980CF041FC062200210448FDF782F802480C388560002038BD0000C00D0020F8B5044600250D4800950078012806D065
:4047C00068460CF0BFFB002803D007250CE00C250AE0074E009830602278611C401CFDF758F83168207808702846F8BD70160020B40D0020F8B5044600250D4800954078E2
:40480000012806D068460CF09DFB002803D007250CE00C250AE0074E009870602278611C401CFDF736F87168207808702846F8BD70160020B40D00200346084800B5834211
:4048400009D8184600F01AFE002804D00089984201D1012000BD002000BD0000FF0E0000074A9179491C8906890E917138220A4092014907090E1143084302490840704789
:40488000B0150020FF0E0000C006C00E70470000F8B507460E4600240D4803E0002C01D0002500E005462979002905D0641C2406240EF3D00020F8BD0021204601F02AF915
:4048C0002E712046FFF7CCFF28813C700120F8BDD015002010B503F07BF90222002100F003F801F0D7FE10BD10B5094B40074907000F090F185A595A40185043C00864219F
:40490000FCF79CFE002800D1012080B210BD0000D0330100F7B53D20405C88B015460C46002802D02878042802D200200BB0F0BD6946087200262046FFF77EFA012800D005
:404940000126204603A938300191009023460327A17E34333246206A03F05EF902A8089900900B46019120463A4603A9243003F0DBF802466846007A2870204601F0B6F898
:404980001046D3E7FFB587B00C4605461078694608723D20005D1746002826D000262046FFF74AFA012800D00126204603A93830019100902346A17E34333246206A03F013
:4049C0002BF902A80090291D019120462B1D03A924300A9A03F0A8F802006846007A388002D1204601F082F810460BB0F0BDF0B505463C20405C89B016460C4600280CD085
:404A0000307869460873002806D000272046FFF713FA012803D003E01F2009B0F0BD012703200890204604A93830019100902346E17E34333A46E06903F0EEF86846007B18
:404A400003A928180290009120462B46019504A92430089A03F09CF802466846007B3070204601F04DF81046D7E7FFB505463C20405C89B016460C46002810D0084601F0AA
:404A8000A9F801280BD0308869468883002809D000272046FFF7D0F9012805D005E000200DB0F0BD0220FBE70127204603A93830019100902346E17E34333A46E06903F072
:404AC000ABF8291D2B1D07A8129A6D4607C5204603A924300C9A03F05BF802466846808B3080204601F00CF81046D9E770B50D460446FFF7A1F901280AD0E87AA97A00025B
:404B00000143A07801F0C2FC012808D0002070BD00222421204602F0F9FC242070BD28214C200155204600F0B1FB282070BD0000002801D0002000E003484030C07F012859
:404B400000D0002070470000D01500200146002049070ED50021084B03E0002901D0002200E01A461279022A04D0491C0906090EF3D0704701207047D01500200146002068
:404B800049070ED50021084B03E0002901D0002200E01A461279022A04D0491C0906090EF3D0704701207047D015002010B5044680346068002803D00CF042FA0020606004
:404BC00010BD4030417070474030817070474030017070470171704792001018C166704770B53C2501F09CF9040004D020460021433001F0FFFBFF222946204600F0E8FB0D
:404C0000002C02D0A07801F00DF970BD10B5002801D0002000E00348002802D0008903F04FFD10BDD015002010B5002801D0002000E00448002804D00179072901D100F02B
:404C400047F810BDD015002010B501F069F9002802D0807801F0E6F810BD00207047000070B50546008A00281ED01049F122097B1140C90618D5294640314A8A098A521CE4
:404C80004A4392B2D10800D10121540801E0621A94B2A042FBD9FEF761FE012804D1298AA878224601F0B8FC70BD00006415002010B50023054C0B60248A944204D9920013
:404CC0001018C26E0A60C36610BD00009C16002038B5044600200090A079002814D14020015D052901D00E290ED168460CF03AF9002809D12046009902F0E6FB034810211D
:404D0000428B2046FFF7B3FB38BD00006415002010B50B4604460146184602F04FF8002802D020460CF082F910BD13B5044601AA11460620FDF764FF6846818861811CBD29
:404D4000002800D10220704770470000F8B504462346401D543300909A1EA078911E01F0F5FA25464035A88A298A8000FCF766FC401E81B2688A884203D96982A07801F0C0
:404D800061FF698A8C20015120460021433001F031FB27480088E88102F01AFFE989891C8AB26179FFF7A0FD01F074FC02F010FF2A8A6179FFF798FD074601F05FFC688A5A
:404DC000002806D01B49088A032212021043088202E0002001F02AFF1648803801886E8A002E0CD0304648431349FCF711FD0004000C01D0401C80B21049488002E00F48C5
:404E000000214180288A704381B2A07801F084FEFF2228374932B9B21346204602F028FCE98AA07801F0F8FDA07801F025FAF8BD80102E40E0112E4071020000C60D002021
:404E40007FB504468034616805460E46183108226846FCF71EFD31462031082202A8FCF718FD102168460CF017F86068102108300CF012F860682B460830243310226946FB
:404E800002F072FE7FBD10B504460821FFF7FAFA10212046FFF7F6FA207905281FD006281DD008281AD12189002003F081FB072020712046FEF7C0FF014620464030012978
:404EC00013D00E21017000210176204600F0BCFF2046FFF76BFE2046FFF7C2FE10BD20890122002103F048FBE1E70521EAE70000FFB581B01F4604460821FFF7C3FA102155
:404F00002046FFF7BFFA2079082803D0092804D0042203E00422012501E009220025204600F044FE264600204036307022712046FFF73CFE0398002D02D0012808D00BE04C
:404F400001280AD120890022029903F015FB04E02189029803F02CFB012700203076012F04D0204600F070FF05B0F0BD02983073204602F0F7FA054605480121428B2046F6
:404F8000FFF775FA002DEFD109202071ECE700006415002070B50C460546FEF74DFF012809D108212846FFF76DFA0023012221462846FFF79DFF70BD10B5044600F0F6FDB3
:404FC0002046FFF7F3FD00214034217010BD70B505461A24FEF730FF012809D108212846FFF750FA0023012221462846FFF780FF70BD0000F8B50446002000900E46684660
:405000000BF0B0FF002801D00D20F8BD8420005908212030009D00F02CFA20460421383000F027FA002E02D1204600F0FBFD2946204602F0D4F90E480821428B2046FFF733
:4050400016FA204600F071FF25464035002808D0204600F023F8002801D0092028700020F8BD08202870204600F0DAFFF7E7000064150020014610B540310A460978082995
:4050800006D0092907D00A2901D100F091F810BD0B20107010BD00F001F810BD70B50446007925464035052805D0062803D008280FD00C2070BD03220621204602F026FAA1
:4050C0000D480821428B2046FFF7D1F91120287010E006202873204602F044FA0646AA8A0A20424301212046FFF7C1F9002E01D109202071002070BD6415002038B50446F1
:405100000020009068460BF02DFF002801D00D2038BD2046009D00F0C3F908202071204600F080FD2946204602F090F900213D2001550F2040210855204600F071FF00209D
:4051400038BD00B5024600F031FD10214032117000BD10B50446FEF76FFE012809D04020005D112805D100231A4606212046FFF7BFFE10BD10B5FFF786FE10BD38B504462C
:405180000021684600910BF0EDFE00280CD12046009902F0DCF905480821428B2046FFF766F90D204034207038BD00006415002038B504460021684600910BF0D3FE002896
:4051C00001D00D2038BD2046009902F0B5F905480821428B2046FFF74AF90C2040342070002038BD6415002000787047F8B5002569460D70002801D0002400E01F4C002C9C
:4052000018D0204600F0DBFC002813D0207903280BD005280CD026464036B18AA07801F085FCB078012806D01DE0042020711DE006202071F8BD0021204601F0DCFD2746FF
:4052400080373868002802D00BF0FAFE3D600020B0702079072802D12046FFF701FD0221204600F0F7FE20790428E3D1207A694608703420FEF7A8FCF8BD0000D0150020C9
:4052800010B54C22115400F052F810BD10B50446FF21FFF7F7F809202071A07801F06CFC10BD000038B5FF216A461180002801D0002400E00B4C002C12D011460620FDF722
:4052C0009FFC684601882046FFF72FFD204600F087FC002804D104480068C1692046884738BD0000D0150020080E002010B504468079002809D022214C200155FF212046A7
:40530000FFF7C0F8204600F012F810BD10B5037902464032002B03D01173092B02D003E0002100E02221117300F001F810BDFEB5044600890027009027812079264640364E
:40534000002817D0012815D002280AD112E002AA01A9204601F020FD002807D101980BF065FE204601F040FD0028F0D02046FEF7B3FCB776254680352868002802D00BF000
:405380005FFE2F606868002802D00BF059FE6F60317B002919D0009800F064F8A078002100F086FF2046FFF795FAA07801F058F8A07800F037FDFF212046FFF763F80B2044
:4053C000FFF724F800F068FCFEBD1F213173E2E7F8B517460E46054602F0F6FB04003CD020460C3000F0F6FF2046062200211830FCF758FA2046062200211230FCF752FA50
:405400001648224600683946436A28469847074626702846FEF710FD012148406070002D10D02889608028464030C1782171002E0FD169796171018AE180418A2181808A8C
:40544000608106E00648008BC005C00F2071002060803946204603F02EF8F8BDEC0D002000102E400A4610B50146002003F040F910BD10B50BF0ECFA10BD000000B5014639
:40548000FFF702FA002801D0002000E00348002802D002898A4200D0002000BDD015002038B5044680346068002806D168460BF069FD002801D100986060606838BD0000E3
:4054C00010B5014600F086FB0128887802D0FEF7BDFC10BD90214843024940186030007F10BD0000B015002070B5054604464035A87F012811D1A1789020084A484380187A
:405500006030067F3046FEF76FFE002805D10220A877A078314601F04DF870BDB015002010B50C4CA07A002813D0FEF709FF0A48027F417F408B00F0B7FB012809D1002006
:40554000A07200F0FDFE05498989090B01D000F03BFA10BD80160020B0150020A0102E4070477047490510B5490F0B00FCF7E2FC060704080C0C0F073E21FFF781FE10BDA1
:405580000821FFF7C3FE10BDFFF7D1FE10BDFFF7ADFE10BDF8B507460025002D01D0002600E0204E00F09AFE3046403044890021418100F09DFE304600F001FB01282BD17D
:4055C000A00702D52846FFF711FEE00602D52846FFF768FEA00601D5FEF7B2FE600601D500F014FB200602D5284600F01DF8600702D5284600F02CFA380402D52846FFF72E
:4056000013FB780402D52846FFF700FBE00703D021463046FFF7A6FF6D1C2D062D0EBCD0F8BD0000D0150020F8B5002801D0002400E0284C002C4BD025464035A8780128AD
:4056400046D1FF278820493700593E46002805D02149097B890601D5878AC68A2046FEF7EBFB012834D002F0B3FA2A8A6179FFF73BF9009001F002F800983346283081B25B
:405680003A46204601F0F4FFE98AA07801F0C4F912480188688A124E002810D048431149FCF7B6F80004000C01D0401C80B27080A07DC107C90F002001F08AFA01E0002072
:4056C0007080288A698A484381B2A07801F024FAF8BD0000D01500206415002060112E40C60D0020710200000149096809680847080E002070B50D460026194A0146002877
:4057000001D0002401E014462034002C26D0204600F060FA01280AD19020484380186030007FFEF761FD002801D101F09BFE0D48006881692046884700280CD020464030A0
:40574000817EA94202D3491B817600E086762089294602F06EFF204600F062FC70BD0000B0150020080E002070B503460088FFF785FE040013D000F022FA00280FD02079BE
:40578000092819D02546997840352973204601F0E9FE0646A878012803D0AA8A02E0022070BDEA880A20424301212046FEF75FFE002E01D109202071002070BD0EB5002250
:4057C00017216B460292198100905A810120029B00990BF0D5FC0EBDF8B518480024807A002822D1164E0025B089000B22E0204600F010FE1249A039401807882A462146CE
:40580000384600F051FA012810D00E480122478305770A4944778A72002D01D0002000E02030002801D000F0FBFBF8BDB089000B641CE4B20028DAD1F8BD00008016002063
:40584000A0102E40B015002010B50088FFF716FE002809D0014640310C460978082905D00B2903D00C2010BD022010BDFFF716FC002801D009202070002010BD70B5034638
:405880000088FFF7FBFD040008D0254640352878082805D00B2803D00C2070BD022070BD8420005910220830991CFBF7F2FF2046FFF7C6FA2878082804D02046FFF778FCD4
:4058C000002801D00A202870204600F0A9FB002070BD000010B50C46002121700088FFF7CDFD03000BD000F06AF9002807D00948F121007B0840C00603D4112010BD022082
:4059000010BD022020701A8A1889002102F00CFF002010BD64150020F8B50F46002100910088FFF7ABFD040012D000F048F900280ED0E079410641D4617E02264A07002AD1
:4059400008DB8907402500291ADA2843E07135E00220F8BD02F038F90021017021894180A1898180217E4170E189C1803E7005460178134802F0B2FB284602F079FE1DE004
:40598000204600F02DF9012806D068460BF0EAFA002803D00720F8BD2A20F8BDE07900992843E071204601F007FE607E0421304360760448428B2046FEF759FD0020F8BD14
:4059C0001D040000641500203EB500220F236C460292238100910190628169460EC900200BF0CEFB3EBD0000F8B50F46054600F097FA040025D003202071254600264035D1
:405A0000EE76E6702046FFF7A1F900F0F1FF0920FEF7FCFCA07800F011FD0121204600F019FB2E706E70AE703A4600212046FFF7CFFC0649887B401C8873A078FFF754FEB3
:405A4000F8BD284601F098F8F8BD0000B015002010B5002801D0002000E0094800280DD0014640310A464978022901D100215170807DC107C90F002001F0AAF810BD00000F
:405A8000D015002070B503460D460088FFF7F6FC04000BD000F093F8002807D01248F121007B0840C00603D4112070BD022070BD20464030418A008A491C41430804C10CF1
:405AC0005888884201D2122070BD20822079072802D12046FFF7C4F8022028702089002102F04AFE002070BD64150020016A491C016204D1817E491C4906490E8176704711
:405B0000C169491CC16104D1C17E491C4906490EC1767047F0B5074687B003A8009005A800260D460190002F01D0002400E01B4C002C05D06846FCF749F8002803D00BE058
:405B4000022007B0F0BD68460089C00704D1902200212046FBF7A6FE114829460068826820469047050016D1A77066762746267140373E70204600F019F8204601F030F9B7
:405B8000084820820848BE77007BF121084000D001202075E682E8B2D3E70000D0150020080E0020B80B000064150020002101628176C161C176203001774177704700793C
:405BC000002805D0012803D0022801D001207047002070474030807F002800D00120704740300078002807D0012805D0052803D00E2801D0012070470020704710B580786B
:405C000001F06EF8002800D0012010BD10B500F097FB03498989090B01D0FFF7D5FE10BDA0102E4070B5054604464035A87F002825D1FF206075A0789021154A4843801836
:405C40006030417F9023491CC9B24177A0785843104B8018DB896030994201D300214177A0789021484380186030467F0677A1783046FEF7B9FA002802D00120A87770BD0B
:405C80000220A877A078314600F094FC70BD0000B01500209C1600200020401C0006000EFBD0002070470000F0B515468207920F85B0000A02926A469080002D01D000249F
:405CC00000E0564C002C28D0084600F0A3FB07466846808800280BD00298012843D0022841D003280BD03D20005D012879D08FE04B48381801882046FFF717F888E000200B
:405D0000029002A80BF00EF9002807D03D20005D012802D12046FFF7E9FE7CE06846029E8388324600213846FCF77CFE3C48381801882046FEF7F9FF284600F0A9FA01AA98
:405D400021463046FEF7E6FD002806D030460BF059F93D204C21085531E0F5773146204601F0A6F957E0002000902089039068460BF0C8F8002802D0002005B0F0BD6846E6
:405D8000009E8388321D00213846FCF74BFE2448381801882046FEF7C8FF284600F078FA2046FFF70CFF002805D025464035287E002810D107E030460BF01AF92BE020460A
:405DC000FFF764FA27E001AA21463046029BFEF7D9FD002806D030460BF00AF93D202873EDE712E00298FEF7AFFF0399317003990001090A0143717068468088B070000AF9
:405E0000F0703046FFF7DAFC05E02046FFF76EFE284600F03DFA0120AFE70000D015002000102E4010B5074A917B002901D0491E91730021FFF76EFE002801D0002010BD54
:405E4000012010BDB0150020F8B5074606464037B87F00282DD0B078902100904843234945186035287F0099FEF7D3F901281ED0287F401CC4B21E48C089A04200D80024C6
:405E80000020B877FF276F772F77A87702460146009800F0FFFC717DFF2903D0304600F060FF777501F0DEFA0025114F19E00320B877F8BD00200090224669463046FEF796
:405EC000F7FE0099002904D0FF231A463046FEF7B8F9641CF889E4B2A04200D800246D1CEDB2F889A842E5D8F8BD0000B01500209C16002010B502460021084B03E00029BB
:405F000001D0002000E018460479944204D0491C0906090EF3D0002010BD0000D015002000B50120FFF7E6FF00BD10B5044601F04BFE2189018080346168416061682831A9
:405F4000816002F04FFB10BDF7B50646087982B00C46092807D0A078F0770846FFF73AFE012806D010E030460BF060F8022005B0F0BDA1789020294A484380186030007F8D
:405F8000FEF732F9012810D0A078FEF7D1FD01280BD037780121304601F00CFA25462035062F38D00B2F0FD107E06846027C21463046FEF7ADFE0D20D9E72046FDF73CFF72
:405FC000012801D1002028772046FFF779FA054604AA21463046FEF70AFD01205F2108556946097C002001910090A07833463A46294600F089FA69460A7CA07803232946FD
:4060000000F0CEFDA0782946FDF744FE30460BF00DF80020ABE70120D5E70000B015002010B502464032937F0021002B03D1927E002A00D00121064A927A002A00D00021AA
:406040000279092A00D10121807800F0E1FD10BD8016002070B50C460546FDF7EDFE00280BD1012C06D92879092806D02846FFF7C5FD0446002C02D004E0012402E0A87D5F
:40608000C007FAD1A87DC107C90F204600F0A0FD70BD0000012807D0082804D104480282034808300180704701488038FAE70000A0102E40014908817047000000102E40D1
:4060C00010B50446FF20F130012C01D1FF20D530002200F0CFFD044A108A044980B2A0430880108210BD000000102E40CA0D0020034B198A034A89B281431180198270478A
:4061000000102E40CA0D002010B50446012802D0082C07D102E0FF20D53001E0FF20F13000F0A0FD0348018A034A89B221431180018210BD00102E40CA0D0020034B198A17
:40614000034A89B2014311801982704700102E40CA0D0020F8B505460120A84086B214460F46012231467C2000F084FD3A463146782000F07FFD6078267800020643E07858
:40618000A2780002024360792379000203430C2045430D2080010549281844182680001D44182280001D40180380F8BD00102E40CB065B0E0343480901021943D00108433D
:4061C0000121C902084301490881704780142E404278037812021343084A1382C37880781B021843908248780B78000203431383C8788978000201439183704700142E40A3
:40620000024A1080000C90801181704700142E40044A002180180288491C89B21029FAD37047000000102E40024A10820148803081817047A0102E4010B5054A108208468D
:4062400000F03CFD024A0021A03A8018018010BDA0102E4010B50B46044600F005F819462046FFF7E1FF10BD024A10820148803001817047A0102E4010B504490882FF200C
:40628000002220211D3000F0F5FC10BDA0102E40000202494D3008807047000000102E400249888A0422904388827047C0112E4010B5084B074C0202A03B0029208202D09E
:4062C00075321A8010BD04490020088088807632F7E70000A0102E40201A2E4000B5034908884880FFF704FF00BD0000CA0D002000B502484088FFF721FF00BDCA0D0020B0
:4063000010B5FCF745FD10BD014952200880704700102E4000210170704700000748808806492039098B884201D8081A03E00022D243101A401880B27047000020112E4058
:406340000148008AC0B27047A0102E4070B5084C049D2082074804890548603006880E8001891180808818806007400F287070BDA0102E40E0112E40014800897047000036
:40638000C0102E4000280FD00D4A108B0870000A4870908B8870000AC8700948203000880871000A48717047064A10880870000A487090888870000AC8701089F0E7000017
:4063C00040102E40C0112E400148008A70470000001A2E40064B1A8999891B8A0270120A42708170090AC1700371190A4171704760102E40012904D00549098BC90B01705B
:4064000070470349403109898907C90FF7E7000000102E4001484089704700009C160020044A10820448028980894843101880B270470000A0102E409C1600209021074BA8
:40644000414300B5C918FF2260314A770A7700228A77114600F01EFA00BD0000B015002090225043074A10B58018FF21603041770177002181770448C18EFF201D3000F007
:40648000F1FB10BDB01500206415002000B5044A1082034880308088022200F003F800BDA0102E4010B50023884201D8081A03E00024E443201A4018044980B2884201D894
:4064C000824200D90123184610BD0000FF7F000070B55478157824022543D47888232602947834435679127936023243002900D09823044908820348A03818180580848016
:40650000028170BDA0102E40FFB581B014460D4607460A9E0B9BFFF783FF002E0AD0009333460021049AFCF70DFB05484019C45505B0F0BD0021049AFCF7EAFAF5E7000087
:40654000CE0D002070B502460448054D808808242C800B460021FCF7DBFA70BD9C160020A0142E4010B5212402466401044953200880102300212046FCF7CAFA10BD00009D
:4065800000102E40417802780902044B0A431A83C1788078090208439883704760142E40034A1082802001430148803001817047A0102E40054A1082044A6032908B0009B3
:4065C000000108439115084390837047A0102E4030B500210F4B0A46012809D0032802D005280AD107E04021198102210A2204E004210C2201E004210D221882054C2034E3
:406600002088C0B205460D42FAD022800021198230BD000080142E4010B5044607480482074801808280032189030820FFF76CFD200202497530A039088010BDA0102E4044
:40664000201A2E40054A1082044A60321183000202494B30A039088070470000A0102E40054A491E1082044A60321183000202494C30A03908807047A0102E40034988424E
:4066800000D908460249088070470000FF0F000060112E400349884200D908460249888070470000FF0F000060112E408823002900D09823084908820748A03819180888E6
:4066C0001070000A507088889070000AD07008891071000A50717047A0102E4010B51446024606480B46C0880021FCF7F7F9012C02D103495420088010BD00009C1600200B
:4067000000102E40064A11880170090A417091888170090AC1700349542008807047000080142E4000102E400121814010B589B200227C2000F09EFA10BD0000FEB5FF2127
:406740000120FFF7BDFCFF210820FFF7B9FC3020FFF7CEFC4148802101804148414D00784007400F022873D001286FD100202880002211460320FCF743FA3B4E3B49308E41
:4067800088823A4F002420373448A0300482B08F38822046FFF764FE641C2406240EF3D0314C3248403421882030018320462C3800F052F9B1697069019100906946487931
:4067C000C021084369464871684600F06DF900F055F8224FE088A03738832089B8831F496089C03188802148F18E203001802048002404823920FFF7A1FC184E53203080EB
:406800001C490720088354203080E020FFF700FDE820FFF7FDFCF020FFF7FAFC0020FEF759F813488482282101838015B8810F48403084815B203080094800784007400F7F
:40684000022807D0012801D10B482880FEBDFFE703208CE70848C01CF7E7000000102E409C160020001F2E4064150020C0112E40001A2E4080142E40E02300000448002131
:406880008183018302497420603908807047000060102E40074B1882064B6033988B00090001084399158843002A01D11021484098837047A0102E40F3B50D2284B09201B7
:4068C00000924A780B78120213430393CA788B78120213434A790979FF20120211431A4A8C46918B9E460291118B01911649742260390A80154900220F7921E00121124BAF
:406900009140009C603BE3181D8889B21C881B88039E6E407546654064462E435C4026430CD1029B194209D00199D140CB070499DB0F8B4202D1104606B0F0BD521CD2B261
:406940009742DBD8F8E7000060102E40A415002030B50949FF208C8B084A00210125137905E02A468A40224204D0491CC9B28B42F7D830BD084630BD60102E40A4150020B1
:4069800010B50446E020FFF743FC20782246401CC3B20021E020FCF761F810BD42790021012A02D901214171090342790A430179042914D049001143827B032A01D8D200C1
:4069C0001143427B52010A43817909021143012252031143054A118300889083704711460122920211430222E5E7000000102E4000B50120FFF77CFB01494120088000BD89
:406A000000102E4000B50120FFF798FB01494020088000BD00102E40024A10820148603081817047A0102E4010B5044C208204488180028183815143018210BDA0102E40F1
:406A4000A0132E40034B1882024820388180028070470000A0102E404178027809020A4306490A80C2788378120213438B804279007912021043088170470000C0112E40EB
:406A80004178027809020A4306490A81C2788378120213438B81427900791202104308827047000060102E40417802780902084B0A431A83C178827809020A439A8341792F
:406AC0000079090208430249203108807047000040102E404178027809020A4306498A80C2788378120213430B814279007912021043888170470000001F2E4010B5044628
:406B0000E820FFF785FB20782246401CC3B20021E820FBF7A3FF10BD024A10820248818370470000A0102E40001A2E40024A10820148603081807047A0102E4010B5044657
:406B400088000521FAF77AFD04490C8204498880200202497230A039088010BDA0102E40001A2E4003490882000202497330A03908807047A0102E400349088200020249CD
:406B80007030A03908807047A0102E4003490882000202497130A03908807047A0102E40F8B505461C4617460E46084600F086F8054AB90021431582034AA03A80180180FB
:406BC000024880194455F8BDA0102E40D30D002030B50E4C238A01251A46012804D0022804D000290BD00CE02A430AE0002908D12A4322825008400020821A4601E05A08A2
:406C000052009A4200D0228230BD0000001A2E40054A1082044A6032908B4023984389010143918370470000A0102E40044A118A0223002801D0194300E099431182704703
:406C4000001A2E4000B5064A1082054860300181002901D0012000E00020FFF7E7FF00BDA0102E40024A801802880A430280704700102E4070B5084BC5182C88002308001E
:406C800003D104E040085B1C9BB2C607FAD08C439A4022432A8070BD00102E40024A1018405C8007800F7047D30D0020024908820148803080897047A0102E408000FF30DE
:406CC00041307047044B02461B8AFF208B4202D902484018805C70479C160020CE0D0020024908820148803000897047A0102E40174902460B680020002B08D10A60520739
:406D0000520F012A04D0022A10D0086012207047112292018A80CA80032252020A810122D2024A8140228A8105220DE0092252028A80CA80012252030A810322D2024A819B
:406D4000012252028A810422CA810A82704700009C1600200A4600B501461046FFF7B2FF00BD38B50C4605460021684600910AF0F9F8002804D1009928464C7000F00EFC76
:406D800038BD10B5044680780021FFF745FE01212046FFF75FF910BD436E002B0CD00B60014660318B781370826E4266CA788A700021816608467047FF20704710B5034694
:406DC000446E6033002C04D0846E002C04D0FF2010BD41669A7001E08166DA70002010BD0021416681667047406E002801D000207047FF20704770B50446C0790D46810684
:406E000010D5DF210840E07100F0DEFE0570218941804034218A8180618AC180A18A018101F01CFB70BD000010B50446FEF7D2FE01280AD1A1789020054A48438018603057
:406E4000007FFDF7D1F9012801D000F00BFB10BDB0150020F8B50E460446FCF7EDFF01282BD02079042801D0072825D1F079B77900020743A0783946FFF708FB25464035D5
:406E8000012820D03A46711C204600F094FA02212046FDF796FEA07DC107C90F0220FFF797FE688A002807D0E87E002804D1032109020820FFF728F9F8BD01222421204608
:406EC00000F024FBF8BD282028732046FEF7DEF9F8BD70B50D460646FDF708FE002852D120213046FDF7CEFA3446687840346073E87820220002E081A9780843E081687934
:406F0000010228790843218A814203D0F1791143F1712082E8790102A8790843618A814203D0F1791143F1716082687A0102287A0843A18AE180814203D0F1791143F171F8
:406F4000A082A08A218A8000FAF778FB401E618A80B2814200D9608201213046FDF734FEE87AA97A000201430022304600F03EFB608A002807D0E07E002804D10321090280
:406F80000820FFF7C1F870BDF8B50C4605460027FCF752FF012847D0284E307BC00709D02846403000900078002806D0102803D01F212CE01A212AE001272846FEF770FAA2
:406FC000002823D02E4680360822611C7068FAF760FC7068617A20300172A17A417270682146183008220B31FAF753FC21462846042213313430FAF74CFC39462846FDF752
:40700000F9FF002810D1002F0FD012E007210322284600F07BFA728B08212846FDF727FA11212846FDF7D3FDF8BD06212846FDF7D1FD009801210176F8BD00006415002097
:4070400010B5FEF717F810BD38B504460020009020790D46032803D0042801D007281BD12046FCF7E9FE012817D0684609F07AFF002811D10C486A78007B00991040F1226A
:4070800010402075607E082210436076204600F0C1F92046FDF7E1FD38BD08222421204600F034FA38BD00006415002070470000F3B581B004460298FEF796F80646204653
:4070C000FEF77DFD00282FD0162E04D32046029900F003F928E025464035287800270300FAF728FF0E1B1B1B08081B1B1B0808080808081B0298194A01780020135C8B424B
:4071000001D1012702E0401C0728F7D3E87E002801D1072901D0002F0AD01049B00008310A58204602999047029809F06BFFFEBDA078FFF721FD002301223D212046FDF756
:40714000D7FE3D2028732046FFF71BFE029809F059FF2046FEF7EBF8FEBD0000E033010070B50D460021002801D0002400E00C4C002C14D020464030C177807F032802D1CC
:407180002046FEF761FE2046FFF74EFE162D04D20449A800095820468847FEF77DFD70BDD01500204034010010B5014640310C4609780E2903D1FDF7A1FF0120207610BD40
:4071C00010B54021095C0F2901D1FDF7BAFF10BD4021095C0F2902D1002120304177704738B5044600220E4800920D46007BF1210840C0060ED52046FEF7F2FC012809D072
:40720000684609F0AFFE002803D12046009900F067F938BD2946204600F05FF838BD00006415002010B51021FDF72CF910BD10B54022125C002A02D04978FDF7ABFE10BD78
