:400000000040002011000000B5090000B509000010B500F0EFFCC04670B512222A4B1A6001F0A2F8294801F0B7FC012001F0BCF8302000F0BBFF264A264B1A60264D802314
:40004000DB052B60254A116802230B431360244A244B1A600022244B1A60244A13680824A3431360FA20C00001F04AF8204801F03DF8BC2292011F4B1A601F4B1F4A1A603A
:40008000E82149011E4A11601E4A1A60822212061D4B1A608022D2021C4B1A6041221C4B1A60013A1B4B1A601B4A1C4B1A601C4B2B601C4B1C601B4B1B681B07FBD40122C6
:4000C000184B1A6070BDC04630001040001BB7000600008004010B400C020B4078002E402D3E00007C002E4064F02E406CF02E40DC050000040301400000014041FF00807E
:400100000003014040FF008008010B4000010B401801014008010140FF7F000008020B400700004010020B4010B572B60022274B1A6000240FE026486200131959000B0093
:40014000411889881A5AC31858880004104300F0FDFB0134E4B2012CEDD9EE2212061D4B1A60EE221C4B1A6099231B041B4A13601B4A13601B4A13601B4908780622062356
:400180000343DBB20B70DB210904184B1960012317490B6017490A60C02017490860D82000041649086004201549086015490B60154B1A60033A154B1A602132144B1A6018
:4001C000FFF72AFF00F0D8FB10BDC0466CF02E4084530100000002400005024000500F4010500F4030500F4000700F400800044000010440080104400003044008030440CF
:40020000180304400004044008040440000504400805044010B5064C2378002B07D1054B002B02D0044800E000BF0123237010BD88110020000000001C530100084B10B57B
:40024000002B03D00749084800E000BF07480368002B00D110BD064B002BFBD09847F9E7000000008C1100201C530100000C00200000000010B5074818230381064B0360D8
:4002800002238380C3800023044A002110F08EFC10BDC0462C230020040C00206423002010B586B028282CD004D8012809D026282ED064E0422839D04C2840D041285ED15A
:4002C0002EE0002000F054FC002803D001002D4802F0D0FD2C4802F0CDFD00236A469371684603F063FE062405E0013C6B46195D264802F0BFFD002CF7D1254802F036FE41
:400300003DE0002000F034FC0022224B1A7036E0214B1B78042B32D1002000F029FC2EE001221C4B5A7000F06BFC28E0194B00221A705A7001329A70FFF79CFF1FE002ABB6
:4003400015C915C31A000B6813609BB2152B05D1039A11780F4A117001219170172B07D1039A11780D4B197052785A70FFF782FF0B4A13785078000218430FF00FFA06B052
:4003800010BDC04620530100485301007853010080530100A41100205C230020040C00206423002000B585B001A912230B81064B01938880054A13785078000218430FF02F
:4003C000A1F905B000BDC046002300206423002000B585B00C4B9B78012B13D10A4A00239370127869460A704B7001A8153303810191022383803E33044A002110F0D6FBD5
:4004000003F0D8FD05B000BDA41100206423002010B502F0E3FD0F2101F070FF0131C8B210BDC04610B5002000F0BAFFFFF7F0FF074C2070FFF7ECFF6070FFF7E9FFA0706B
:40044000FFF7E6FFE070042000F044FF10BDC0464423002010B5204B00221A705A709A70DA7000F009FA002803D101221A4B9A7031E000F037FA002803D10122164B5A70A9
:4004800029E000F039FA002803D10122124B5A7021E0742000F03AFA002803D101220E4B1A7018E0752000F031FA002803D10122094B1A700FE0762000F028FA002803D1D7
:4004C0000122054B1A7006E000F028FA002802D10122014BDA7010BD4023002010B5E521402000F02FF9344C208100214C2000F039F9208001214C2000F03AF9608001219D
:400500004D2000F035F9A08023214D2000F030F9E0800E21742000F031F901F021FF20610E21752000F02AF901F01AFF60610E21762000F023F901F013FFA0610621742045
:4005400000F04CF901F00CFF60810621752000F045F901F005FFA0810621762000F03EF901F0FEFEE0810821742000F043F901F0F7FEA0830821752000F03CF901F0F0FE83
:40058000E0830821762000F035F901F0E9FE208403220221182000F039F9A08405220421182000F045F9208507220621182000F051F9E08410BDC0460023002070B562B6E9
:4005C000354800F0D3FE002000F066FE334800F079FA00F013FF01F0DBF901F07BF9002002F038FD02F0CCFC0025012000F0D8FE002001F07FF92A4C20802A49002001F00F
:400600008FF90023E15E002001F098F901F0A8FEC4B2254B1C70A5420FD0062C09D9012001F0AEF80122214B5A60FFF713FF250003E0002001F0A4F825001C4B5B68002B13
:4006400001D0FFF74BFF194B5B78012B1BD1FFF7BFFE164B1B78012B10D1012000F0ACFE134B1B78002B14D1002000F08DFE2C20FFF798FE012000F087FE0AE00D4B1878CF
:4006800000F09AFE05E0012000F07EFE012000F093FE03F08FFCA8E725040000A10200004A2300204C04000048230020A411002060230020040C002010B582B004000A00B0
:4006C00001A900230A706A46137053700233012200F056FF00F02CFF8307FBD5012302226946200000F0C8FF00F022FFC307FBD56B4618785B780002184302B010BDC0463C
:4007000010B582B004000A0001A900230A706A46137053700233012200F032FF00F008FF8307FBD5012301226946200000F0A4FF00F0FEFEC307FBD56B461878C0B202B019
:4007400010BDC04610B5FFF7B7FF43011B1A9B001818C3171B041B0C18180014063880B210BDC04610B5FFF7CBFF002010BDC04610B5FFF7C5FF002010BDC04610B582B069
:4007800004000B0001A90B70002300930233012200F0F6FE00F0CCFE8307FBD5012304226946200000F068FF00F0C2FEC307FBD56B46187800065B781B0418436B469B78ED
:4007C0001B0218436B46DB78184302F0B7F9024901F0DEFD02B010BD00401C4610B5FFF76BFF02F0ABF9024901F0D2FD10BDC0460000204110B5FFF75FFF02F09FF9024960
:4008000001F0C6FD10BDC04600007A4470B505001600FFF775FF040031002800FFF770FF00020F239C43E4B2204380B2000970BD70B505001600FFF763FF0400310028009E
:40084000FFF75EFF00020F239C43E4B2204380B2000970BD70B505001600FFF751FF040031002800FFF74CFF00020F239C43E4B2204380B2000970BD00B583B0002301937A
:40088000009302330222FA21402000F079FE00F04FFE8307FBD50123042201A9402000F0EBFE00F045FEC307FBD502230222FC21402000F065FE00F03BFE8307FBD5012319
:4008C00004226946402000F0D7FE00F031FEC307FBD56B461878063843425841C0B203B000BDC04610B5FD214C20FFF7E5FE313843425841C0B210BD10B5FD214D20FFF78C
:40090000DBFE323843425841C0B210BD10B50421FFF7D2FE431E9841C0B210BD10B500211820FFF7EDFEFA3843425841C0B210BD70B50D001600002404E0287801F040F847
:4009400001350134B442F8DB300070BD10B50A00002102F087FA10BD064B1B68002803D080221206134301E05B005B08014A13607047C04680033A4010B50323084A136010
:40098000084A136080221206074B1A600422074B1A600022064B1A600120FFF7DDFF10BD300030403000314000003A4000033A40000E3F4010B502F011FA03680C2B00D153
:4009C000FEE7FEE710B50300084A1068C318084A9A1A802A02DC054A136005E002F0FEF90C2303600120404210BDC046080C00209823002070B50F4E0F4D13E029686B6856
:400A0000AC68002202E001C901C30432A242FAD1E868002202E0002102C304328242FAD11035013E002EE9D102F0DEF9FFF7C6FDFEE7C04601000000A057010010B50E4A3D
:400A4000136801218B43136000230AE0032B03D89A000A49505800E009489900094A885001332F2BF2D9FFF75FFB034A116801230B43136010BDC046000010400000000081
:400A8000B50900000000002010B500F08DFA10BD10B50024064B1C70064B1C70064B1C70FFF7F2FF054B1C70054B1C7010BDC0466723002060230020662300204C230020D8
:400AC0005423002010B590B0040014221F490BA802F0BFF91E4B1B78002B04D1FFF7D8FF01221B4B1A70002C2DD01A4B1C6008A805AA426006AB0893002101811B311980A0
:400B0000598017391971002313701231694403F02DFB002818D1104B0293104B0193052300930BABAE2212010D490E4803F074FA002809D101220C4B1A7029321D210B480E
:400B400010F01CF800E0012010B010BD90530100AC110020502300207902000000600100C0000020ED0C00005C230020A453010010B5022833D81E4B1B78042B31D11D4BA4
:400B80001B785B0730D400280BD11B4B1A004032002111822022596C0A805B6C30325A800EE001280CD1144B1A00403296211182C822D200596C0A805B6C8022D2015A80B4
:400BC0000E4B18700C4840300DF0E8FB00280DD1084A117804230B43DBB2137006E0012004E00420FF3001E00420FF3010BDC0465C230020672300200C0C0020662300209B
:400C000010B50DF07BFC034A117808230B43DBB2137010BD672300207047C04603784078000218437047C04670B5050083890F2B1FD1043031332A0000210FF0B7FF041E81
:400C400011D16868FFF7EAFF830706D50A4B1B68290082204000984705E0074B1B6829000620FF309847054A137801218B43137000E00024200070BD5023002067230020CA
:400C8000024B00225A701A707047C0466423002010B582B00400FFF7C7FF0A4B1B78DB070ED4002809D001A912238B70A3890B80C87020680EF0E8FC02E020680EF06EFDA3
:400CC00002B010BD672300208379002B07D000200BE0C25C002A07D10133DBB200E00023052BF6D9002000E001207047F0B583B004000D009A4A117801230B43DBB213702F
:400D0000272800D1C2E012D8062800D185E004D8012821D005287CD010E1242800D1B1E0262800D1BAE0212800D007E18AE0422800D1EFE006D8282800D1ABE0412800D1A3
:400D4000D4E0FBE04C2800D1EFE0FA2800D1F0E0432800D0F2E0E0E001AE0727377000237370300005F00EF9377001237370300005F008F903F012F97A4B1E683000FFF747
:400D8000A3FF00280CD0300003F018F9754E00213068FFF741FF30680121FFF73DFF2AE0714B1F78714B18788001FC263601020032403F21394011436D4B1B781B03F82214
:400DC0005202134019436B4B1B785B04FE22120413400B43684E33701A0A72701B0CB370300003F0EBF800213000FFF715FF01213000FFF711FF03200DF074F901A83F2377
:400E00000370002343700DF08BF904225B4B1A7094E02A785A4B1A7090E02B78002B00D08CE06B78002B07D1564B0322DA8029329A80554A1A606B60494A137801218B4366
:400E400013707BE0464B1B789B0677D44F4B1B78102B02D105224D4BDA704D4B18784B490DF05EFA01AB1880002804D0494B1B6801A9362098473A4A117801230B43DBB2ED
:400E800013705BE06A78444B1A7057E002223B4B1A7053E00422394B1A704FE0374B1B78022B4BD02E4A1278D20747D52C4A1278520708D50322314B1A70294A13780421A0
:400EC0008B4313703AE0264A1278120708D504222A4B1A70224A137808218B4313702DE0032B2BD10422254B1A7027E0284E02222900300001F0ADFF0022214B1A70317852
:400F00009E318900254B591801310432244801F0A0FF13E0FFF7B4FE10E06988162900D9172128880EF0BAFB08E02800FFF7B0FE04E01C4A117801230B431370084B1A7884
:400F400011231A4209D0064A137801218B431370104B1B6829002000984703B0F0BDC04667230020600C00207CF1FF0F7DF1FF0F7BF1FF0F78F1FF0F640C00205C23002001
:400F800060230020B0110020A00B0020A40D002064230020502300205423002000600100582300204C2300207047C04610B586B0040000F0FAFC0E4B1B6800930D4B1B68C9
:400FC0000193033C0C4B1B5D02930C4B1B68039304AA0B4B04936B4605930A4B1A600A490A4A11601B6800F0E4FC06B010BDC04608010B4000010B40F0550100300010403D
:40100000B6EA0000080010401700008004001040024B1B68012018407047C0460C002E401F2318401E3B8340014A13607047C04600E100E01F2318401E3B8340014A1360E7
:401040007047C04680E100E001BE704770B504000D001F2802D90020FFF7F6FF1034A40080239B059C4664442068256070BDC04670B504000E00032902D90020FFF7E4FF6D
:401080001F2C02D90020FFF7DFFF03252540ED00063500F08AFCA408A400074B9C46644421680323AB4099430B003100A9401943216000F07EFC70BD00E400E010B5040023
:4010C00006E0084B586800F067FC074B9C46644480231B029C42F4D8024B9868604300F05BFC10BDAC0D00200080FFFF10B5034B1B7B584300F050FC10BDC046AC0D0020D7
:4011000010B504000F4A116801230B4313600E4A0E4B1A600E4A1368802109020B431360002809D100200CE00120FFF7DFFFFFF76FFF002804D1013C002CF5D1102000E021
:40114000002010BD60F02E400220000078002E4010002E40034B1868C0231B02184000D00120704700010B4010B50D4B1A6801218A431A601A68022082431A60094A10686E
:401180003024A043203C204310601068093CA043014311601A68802109060A431A6010BD00F02E4000FF2E4070B51D4B1B6801241C40002802D0012816D02BE0184B19685A
:4011C0000122914319601968022081431960154B19682E3081432038014319601968093881430A431A6018E00D4B1A6802218A431A600C4A10680725A843014311601168EB
:4012000030208143103801431160196801220A431A6002E00020FFF717FF200070BDC04600F02E4000FF2E4010B500F0BEFB044A1368C02109020B43136000F0BAFB10BDB0
:4012400000010B4010B500F0B0FB08490A68084B1A408024E40122430A600A6813408022120213430B6000F0A4FB10BD00010B40FF3FFFFF10B50400022802D90020FFF7F6
:40128000E3FE044B1868E4000134E0400123184010BDC04610020B4010B504000C4A136803431360C30704D50020FFF7E3FF0028FAD0E30504D50120FFF7DCFF0028FAD014
:4012C000E30304D50220FFF7D5FF0028FAD010BD10020B4070B5050000F067FB0400FFF739FF002803D0FFF7ADFF012100E0002108482840084A1568084B2B4018431060A9
:401300001368012901D1FFF78FFF200000F051FB70BDC0460404040010020B40FBFBFBFF014B18667047C0460000002010B5040000F03BFB044A1368C0218B43A4011C43B8
:40134000146000F036FB10BD08E400E080225200014B1A607047C04600E100E080225200014B1A607047C04680E100E010B50400FFF7F4FF2000FFF7D3FF0320FFF7D6FFC7
:40138000FFF7E4FF10BDC04604490A68D2B240239A438001184010430860704700030440044A1368DBB201218B430840184310607047C0460004044004490A687F231A4053
:4013C000C301D8B2104308607047C0460003044010B50A20FFF724FE10BDC04610B500F01DF810BD10B5044A1368802109060B431360FFF7EDFF10BD0000254010B5064B46
:401400001B78002B04D1FFF7E9FF0122024B1A70FFF7E8FF10BDC046B811002010B50024184B1C60184A194B1A60194B194A1360194A1460194A1460194A1360194B1C6002
:401440000A20FFF7F7FD03210A20FFF711FE16490A20FFF7FBFD154B1C60154B1C60154B1C60154B1C60154B1C60154B1C601022144B1A70144B1C80144B1C60144B1C609A
:4014800010BDC046000025407708008060002540070100800003254004032540100325400002254004022540951A0000C80E2540880E2540480F2540080F2540C80F254031
:4014C000880F254068230020762300207C2300207023002010B50E4A13685B005B08136000230C490B600C490B600C4804680C49214001600B490B600B490B6010210B4BD2
:4015000019701368802109060B43136010BDC04600002540680025406C00254060002540FF5CFFFF880F2540C80F25406823002010B50A20FFF77EFD074B1C88A2B21400A1
:40154000064B1B789B0602D504231A4394B20A20FFF766FD200010BD7623002068230020054B1B682022134000D0082301221343024A13607047C046640025406800254083
:40158000F0B583B001900C0017001D00002917D02A4B1B78102B08D10A20FFF74BFD284B1B68DB070ED508260FE0244B1B78602B0AD1244A138808218B431380002604E011
:4015C000042602E0002600E00426002E2FD128221A4B1A7000231C4A13601C4A13601C4B1F601C4B1C60EAB21B4B1A70019B5C00FF231C40134A138802218B4313804023C9
:40160000164A13601649174A11601421FF31164A1160164A1360EB0704D5FFF7A1FF144B1C6004E0124B1C600222124B1A600A20FFF7F6FC300003B0F0BDC0466823002056
:4016400064002540762300206C23002070230020782300208023002074230020800F254017030000000F2540080F2540880F25404002254068002540F0B583B001900C006E
:4016800017001D00002917D02F4B1B78102B08D10A20FFF7CFFC2D4B1B68DB070ED508260FE0294B1B78602B0AD1294A138808218B431380002604E0042602E0002600E0DC
:4016C0000426002E39D129221F4B1A700022214B1A60214A1760214B1C60EBB220490B70019B5C00FF231C400120044318490B8883430B801B491C4B19601421FF311B4BC4
:4017000019601368072B03D80422194B1A6008E0184A1368802149000B4313600822144B1A60EB0704D5FFF71BFF134B1C6004E0114B1C600222114B1A600A20FFF770FC3A
:40174000300003B0F0BDC0466823002064002540762300207C23002088230020842300207423002017030000000F2540080F2540C80F25406000254040022540680025401F
:4017800004490A68D2B220239A43400118401043086070470000044010B503210F20FFF767FC27490F20FFF751FC0122254B1A60254B1B68002B01DA244900E02449254AF5
:4017C00013680B431360244A244B1A60244A254B1A600023244A13602449254A11602549254A116025490A688020400202430A60234A1360234A13600133234A13602349AE
:401800000868234A024013430B60002315E09800204A82188021C90011601A4C216801229A401204120C0A432260590000241A4A8C521A491A4A81500133002BE7D010BD10
:401840008519000020003A4080033A40400210534002005300003A40F400008004003A401007F00718003A401C003A40FF03020010003A400200020014003A4000033A40BA
:4018800028023A4038023A4018023A4030003A40FFFFFFDF80003A4090230020204E00008C23002010B5094B1B68002B0CDB084B1B68002BFBDB054A1368802109060B435F
:4018C00013600A20FFF712FC10BDC04600003A4008023A4010B5064B1B78002B04D1FFF75BFF0122024B1A70FFF7DCFF10BDC046C011002010B5041E02D00020FFF7A4FB80
:40190000002C07D1A400054B9C46644420680004000C00E0002000B210BDC04680013A4070B504000D00002802D00020FFF78CFBA400014BE55070BD8C23002070B50400F6
:401940000D00002802D00020FFF77EFB62000A4BD05A00B2281A00B201F0F0F8074900F031FE051CA400064BE05801F0E7F8011C281C00F00DFD70BD902300200000204128
:401980008C230020014B1A681A60704710023A407047C046000000000230800803D00138FDD1C046C046C0467047EFF3108072B6704780F3108870470000000000000000A0
:4019C000FEB5494652465B460EB407462E4909688A462E4A12682E48022100F01FFB03002A480068C0182A4900F018FB06001F3EB346234A126801219140C9430C00012571
:401A00000026FFF7D2FF814651460B6823400B6058460430FFF7C0FF3800F040284090400B68234003430B605846FFF7B5FF0136072EF1D900200130012090400B682340D6
:401A400003430B6058460630FFF7A6FF4846FFF7B0FFC046C046C0460EBC894692469B46FEBDC046C046C046C046C046C046C046C046C046C046C046C046C046C046C0469A
:401A8000C4110020C40D0020C00D0020BC0D00208025000010B5AF4B1B68002B00D09847AD4B1B68DB0702D50022AC4B1A60AC4B1B789B0628D5AB4B1B68DB0507D5AA4A91
:401AC0001188C0239B000B431380012300E00023A44A1268D20706D5A34A118890239B000B4313800123002B0FD09D4A1278D20701D5012200E002229B49088802430A803E
:401B00000021974A117000E00023954A1278920600D417E1934A1268D20611D51022934B1A608F4B1B78DB0701D5012300E002238D4A11880B4313801022894B1A7007E19C
:401B4000874A1278120720D5864A126892070AD50222864B1A60844A118888239B000B431380012311E07E4A1278D20703D525217B4A117009E02421794A11707C4A1268E7
:401B8000002A02D014397B4A1160754A1278520700D4AEE0724A1278D20749D5764A1268120727D5754A1268754909681F240C40744909686418141B082C09D8002C16D11E
:401BC000714A1168714B0B401360012308340EE008240CE06B4A11686D48006841186D480068C0B20870116801311160013C002CF0D119E0604A1268520715D5614A11685C
:401C000063480068411863480068C0B208701168013111601168594A1268914203D204215D4A116000E001235C495D4A116060E04C4A1268920726D502224C4B1A60594928
:401C40000B681D321A40096880231B020B4000D001239B18544A1168CB1A13601268534B1A60414A118884239B000B431380504B1A68802149020A431A6019684D4A0A40AB
:401C80001A60012335E04C4A1268D2061ED427E0454A1168364A126891421DD2344A1268013A414909688A4204D1402243490A6030490A603C4A11684148006841180978F8
:401CC000C9B240480160116801311160354A12681F210A40082ADBD11021384A116008E0354A1268520604D52F4B1A682F4B1A600123002B2CD0244A1168244B0B4013607E
:401D00000023314A13601B4A1360304B1B789B070ED5134B1B78DB0701D5092300E00A23114A11880B43138060220D4B1A700FE0274B1B689B0601D5182200E01022164B04
:401D40001A6005E0064B1B78DB0601D4FFF7C2FB10BDC046BC1100208C0E2540880E2540682300200C0F254076230020000F254078230020880F2540CC0F254088230020E3
:401D8000080325407C23002060002540FFFEFFFF842300204003254068002540ED0F0000C00F2540080225406C2300207023002004022540FFFFFEFF8C0F2540800F25409D
:401DC0008023002040022540C80F254074230020640025400160704701607047324B1A781202324B1B781A43314B1B781B02314909780B4330498B4201D1072A06D0D42174
:401E000009018B4206D1042A04D102E02B4B042200E02A4B2A490B602A4B1A602A4B1B781B022A4A1278134380229201934202D0002B02D002E0264B00E0254B254A13607A
:401E4000254B1B781B02254A12781343244A934205D0244A934204D0052B05D103E0224B02E0214B00E0204B204A1360204B1B681B09204A1268AA2A15D1012B13D9164BCF
:401E80001B780E2B0FD11C4B1B781B021B4A127813431B4A13601B4B1B781B021A4A127813431A4A13607047D9F0FF0FD8F0FF0FDFF0FF0FDEF0FF0F580B0000580D00002C
:401EC0006C002E4074002E40DBF0FF0FDAF0FF0F0220000078002E40DDF0FF0FDCF0FF0F0F0F000005050000050F000080002E40EC0F00F0E00F00F06DF2FF0F6CF2FF0FEB
:401F000084002E406FF2FF0F6EF2FF0F94002E4010B5FFF7EBF810BD10B5FFF7CFF810BD10B500F04BF810BD10B500F04FF810BD10B500F04BF8034800F02AF8032000F020
:401F40002DF810BD1520000010B5024800F046F810BDC046152000000220FF307047C0462B2070472B2070472B2070472B2070472B2070472B2070472B2070472B207047D7
:401F80002B2070472B2070472B2070477047C046014B18677047C0460000002010B50400FFF703FD044A1368C0218B43A4011C431460FFF7FEFC10BD0CE400E08022520185
:401FC000014B1A607047C04600E100E080225201014B1A607047C04680E100E010B50400FFF7F4FF2000FFF7D3FF0320FFF7D6FFFFF7E4FF10BDC04610B5FFF7D6FC044AD5
:40200000136804218B43136030BFFFF7D2FC10BD10ED00E010B513F06DF910BD002243088B4274D303098B425FD3030A8B4244D3030B8B4228D3030C8B420DD3FF2209022C
:4020400012BA030C8B4202D31212090265D0030B8B4219D300E0090AC30B8B4201D3CB03C01A5241830B8B4201D38B03C01A5241430B8B4201D34B03C01A5241030B8B426C
:4020800001D30B03C01A5241C30A8B4201D3CB02C01A5241830A8B4201D38B02C01A5241430A8B4201D34B02C01A5241030A8B4201D30B02C01A5241CDD2C3098B4201D325
:4020C000CB01C01A524183098B4201D38B01C01A524143098B4201D34B01C01A524103098B4201D30B01C01A5241C3088B4201D3CB00C01A524183088B4201D38B00C01A80
:40210000524143088B4201D34B00C01A5241411A00D20146524110467047FFE701B5002000F0F0F802BDC0460029F7D076E7704703460B437FD4002243088B4274D3030980
:402140008B425FD3030A8B4244D3030B8B4228D3030C8B420DD3FF22090212BA030C8B4202D31212090265D0030B8B4219D300E0090AC30B8B4201D3CB03C01A5241830BDE
:402180008B4201D38B03C01A5241430B8B4201D34B03C01A5241030B8B4201D30B03C01A5241C30A8B4201D3CB02C01A5241830A8B4201D38B02C01A5241430A8B4201D3F1
:4021C0004B02C01A5241030A8B4201D30B02C01A5241CDD2C3098B4201D3CB01C01A524183098B4201D38B01C01A524143098B4201D34B01C01A524103098B4201D30B0133
:40220000C01A5241C3088B4201D3CB00C01A524183088B4201D38B00C01A524143088B4201D34B00C01A5241411A00D201465241104670475DE0CA0F00D04942031000D35A
:402240004042534000229C4603098B422DD3030A8B4212D3FC22890112BA030A8B420CD3890192118B4208D3890192118B4204D389013AD0921100E08909C3098B4201D3C4
:40228000CB01C01A524183098B4201D38B01C01A524143098B4201D34B01C01A524103098B4201D30B01C01A5241C3088B4201D3CB00C01A524183088B4201D38B00C01ABE
:4022C0005241D9D243088B4201D34B00C01A5241411A00D20146634652415B10104601D34042002B00D54942704763465B1000D3404201B5002000F005F802BD0029F8D017
:4023000016E770477047C046F0B54F464646C0B41604360C9946330005042C0C070C150C63437E436F4365431C0CAD1964199C46A64203D980235B02984647446346250CFA
:40234000EF191D044B464A4343432D0C240464199918C91920000CBC90469946F0BDC0469E2110B5C905041C00F060FC002803D1201C00F0C1FB10BD9E21201CC90500F0A7
:4023800035FA00F0B9FB80231B069C466044F2E7F0B5564644465F464D46F0B444024600C70F83B08846650A360EBA463DD0FF2E22D00023EC00802599469B46ED04254371
:4023C0007F3E43465C025800DB0F640A000E984636D0FF2830D080230021E400DB041C437F38301A0190484642460843724E800030587A4013008746002D44D108239946E9
:40240000063B9B46DDE70122FF2000241A406402C305640AD2071C431443200003B03CBC90469946A246AB46F0BD002D20D104239946033B9B46C4E7002C17D1022102E0BE
:40244000002C0AD10121321A01924A4643460A435A48920082587B409746200000F0F0FB431F76309C4040420021BAE70321B8E7280000F0E5FB431F9D40002376304642DA
:4024800099469B469DE70C239946093B9B4698E780240022E403FF20B9E70024C2468B465A465346022AAED0032A7DD0012A31D1012200201A400024A9E70122101A1B2852
:4024C00056DD1A4000200024A1E78023DB031D424BD18023DB032B435C02640A3A00FF2095E76D016001854230D2019A0024013A01921B220127290064006D00002901DB6E
:40250000A84201D82D1A3C43013A002AF3D16A1E95412C4301987F300028CEDD620704D00F222240042A00D00434220103D5244A019814408030FE2800DD64E70122A401DF
:40254000640AC0B21A4062E72C00A9E72D1A1A220124CFE76B02BCD500248023DB031C436402640A4246FF2051E71C42B3D1F4E721002022C140101A8440621E94410C4356
:40258000620704D00F222240042A00D00434620104D5012201201A40002438E70122A401640A1A40002032E78023DB031C436402640A5246FF202AE7205601006056010085
:4025C000FFFFFFF7F0B557464E4645464300E0B446028846760A1F0EC40F002F47D0FF2F25D0002380259A469946F600ED042E437F3F434642465D02D20F5B006D0A1B0EC7
:40260000904640D0FF2B39D080220020ED00D20415437F3BFB1842465746591C62408C4607430F2F5CD86F49BF00C9598F46002E45D108239A46063B9946DAE742460228BD
:402640002DD0032800D1C3E0012800D0A2E0002500260240D4B27602ED05760A2E43E407264330001CBC90469946A246F0BD002E1AD104239A46033B9946BAE72A00511EB8
:402680008A41901CC6E70120002DC3D0280000F0D7FA431F76309D4043420020BAE70124FF2514400026D6E7300000F0C9FA431F9E400023763047429A46994699E70C239E
:4026C0009A46093B994694E780260024F603FF25C1E735004846B2E7350022004846AEE72904090C0800370C3604360C2C0C7943704367437443060C64183619B14203D93A
:4027000080214902884647440004000C310409188D01681E8541890E2943350CED19AD010D43290104D5012369081D4063460D4319007F31002925DD680704D00F20284010
:40274000042800D00435280103D5274980330D401900FE29A3DC0124AD016E0A1440CDB279E78020C003064207D0054205D128434602760A4446FF256DE706437602760A61
:40278000FF2568E70124611A1B2905DD14400025002660E76346CBE72E002023CE40591A8D406B1E9D412E43730704D00F233340042B00D00436730104D5012401251440F0
:4027C000002648E70124B601760A1440002542E780260124F6032E437602760A1440FF2539E7C046A0560100FFFFFFF7F8B54A024E0043024400240EC50F9B09360EC90F3A
:402800009209FF2E00D183E001204140A01BA9425CD0002800DC95E0002E1CD1002A00D081E05A0704D00F221A40042A00D004335A013BD50134FF2C00D191E001209B017A
:402840005B0AE4B205405B02E4055B0AED0723432B431800F8BDFF2CE3D08021C9040A431B2800DD90E016002021C640081A8240511E8A4132439B1A5A0115D59B019E0982
:40288000300000F0DDF90538864084426CDC041B330020200134E340041BA640721E964100243343BDE70D005A07BCD1DF0801231D40FF2C33D1002F00D190E08022D20304
:4028C00013003B435B025B0AFF24BCE700284FDD002E2ED0FF2CA4D08025ED042A431B2800DD97E016002025C640281A8240501E824132439B185A01D5D50134FF2C6DD0A6
:4029000001227B481A405B08034013430D0088E7002A00D07AE777E7031EC5D100257B025B0AE4B28FE701380028A4D0FF2C97D177E7002A00D174E701380028DAD0FF2C0A
:40294000CDD16EE7002821D1601CC0B2012858DD80279E1AFF0437402FD0D61A0D008FE701231D4000236EE7624B241A334058E7002851D1601CC6B2012E33DDFF282DD07C
:402980009B185B0804004CE7012274E7002C1AD0FF2E1FD08024E404404223431B2800DD96E01D002024C540201A8340581E83412B43D31A34000D005EE7002E00D05FE74E
:4029C00000250024ABE7002B44D0C0430028F0D0FF2EE3D11300FF240D0022E70D00FF24002330E7002C5DD1002B7DD0002A00D117E79B185A0100D456E73E4A0400134072
:402A00000FE7002C1ED1002B2FD1002A65D013000D0006E701226DE7002C1FD1002B59D0C04300280BD0FF2E4FD01B285EDC1D002024C540201A8340581E83412B439B187A
:402A4000340058E7002B1CD1002A49D013000D00FF24E6E6130034000D00E2E6FF2E34D08024E40440422343DFE7002A00D1D8E68027981AFF04074000D14DE7D31A0D0097
:402A8000CFE6FF24002A00D1CBE68020DB08C003034204D0D208024201D113000D00DB00FF24BEE6002B10D0FF24002A00D1B8E68020DB08C003034203D0D208024200D16D
:402AC0001300DB000D00FF24ABE61300FF24A8E601236EE713003400A3E6002700251EE780270025FF03E9E613009AE60123A6E7FFFFFF7DFFFFFFFB4302590A4300C20FBA
:402B00001B0E00207E2B0EDD9D2B0DDC802000040143952B0BDC9620C31AD9400B005842002A00D118007047034BD018FBE7963B99400B00F3E7C046FFFFFF7F70B50028E7
:402B400030D0C317C5185D40C40F280000F078F89E231B1A962B0DDC9622D21A95406A02520AD8B25202C005520AE40702432243100070BD992B19DC9922D21A9540124A63
:402B80002A40690704D00F210D40042D00D00432510103D50C4B1A409F231B1A9201520AD8B2DFE7002400200022DBE705222E00121AB921D6402A00C91A8A40551EAA41D4
:402BC00035001543DBE7C046FFFFFFFB8446081C6146FFE71FB500F0BDF8002801D40021C8421FBD10B500F049F84042013010BD10B500F0AFF8002801DB002010BD0120AC
:402C000010BDC04610B500F0A5F8002801DD002010BD012010BDC04610B500F057F8002801DC002010BD012010BDC04610B500F04DF8002801DA002010BD012010BDC046C0
:402C40001C2101231B04984201D3000C10391B0A984201D3000A08391B09984201D30009043902A2105C40187047C04604030202010101010000000000000000430270B5FD
:402C800042004C005D0AC30F4802120E460A240EC90FFF2A0FD0FF2C11D00120A24200D070BDB542FCD18B420DD0002AF8D12800431E9841F4E70120002DF1D1EBE70120D2
:402CC000002EEDD1E9E70020EAE7C0464302F0B542005D0AC30F4802440A4800120E000EC90FFF2A1FD0FF2822D0002A09D16E426E4100280FD1002C0DD10020002D09D00A
:402D000005E0002801D1002C01D08B4213D0584201231843F0BD002EF7D048424141012049420843F6E7002DDDD002204042F1E7002CDAD0F9E78242E9DC04DBA542E6D853
:402D40000020A542E6D25842434101205B421843E0E7C0464302F0B542004C005E0AC30F4802120E450A240EC90FFF2A17D0FF2C19D0002A0BD170427041002C17D0002853
:402D800007D048424141012049420843F0BD002C13D08B4214D0584201231843F6E70220002EF3D1E3E70220002DEFD1E1E7002DE5D10020002EE9D0EDE7002DE9D1EAE7AB
:402DC000A242E8DC04DBAE42E5D80020AE42DDD25842434101205B421843D7E7014B18687047C046801100200E4B70B500251E000D4CE41AA410A54204D0AB00F358984755
:402E00000135F8E712F0BAFC084B00251E00084CE41AA410A54204D0AB00F35898470135F8E770BD8857010088570100885701009057010030B50024A24208D0035D651C29
:402E40000C5DA34201D0181B02E02C00F4E7002030BD002310B59A4203D0CC5CC4540133F9E710BD03008218934202D019700133FAE770470FB40B4B13B51C68002C05D053
:402E8000A369002B02D1200000F0BAFA05AB049AA1682000019300F09BFC16BC08BC04B01847C0468011002070B505000E00002804D08369002B01D100F0A2FAAB69AC6881
:402EC000002B02D1280000F09BFA254B9C4201D16C6808E0234B9C4201D1AC6803E0224B9C4200D1EC68A3891B0702D52369002B11D12100280000F019F900280BD0012099
:402F000040422BE0013B0136A360002B08DB23685A1C226019703178A3680029F2D10BE0A269934201DB0A29F1D12200280000F0A5F8431CEFD1E2E7013BA360002B08DA2D
:402F400022000A31280000F099F8431CD7D00A2004E00A2023685A1C2260187070BDC046E8560100085701002857010010B5034B01001868FFF798FF10BDC046801100200B
:402F8000104B70B51C680500A36B002B15D1182000F040FB0C4BA06303800C4B012243800B4B83800B4BC3800B4B038105234381063383810023026143610022A36B1D619F
:402FC0005A6170BD801100200E330000CDABFFFF341200006DE6FFFFECDEFFFF154B10B51C68A36B002B15D1182000F013FB124BA0630380114B01224380114B8380114B44
:40300000C380114B03810523438106338381002302614361A46B0D4A206961690C4BFFF773F90122002380185941206161614800400810BD801100200E330000CDABFFFF28
:40304000341200006DE6FFFFECDEFFFF2D7F954C2DF4515813B5084B040000226946186800F062FA002802DA01235B4200930098002C00D0206016BD80110020F8B505003C
:403080000F001400002804D08369002B01D100F0B7F9234B9C4201D16C6808E0214B9C4201D1AC6803E0204B9C4200D1EC68A369A360A3891B070AD52369002B07D02368B8
:4030C0002269FEB2981A636998420FDB08E02100280000F02BF80028F1D0012040421DE02100280000F01EF90028F6D1A3680130013BA36023685A1C22601F706369984214
:4031000005D0A3893000DB0708D50A2E06D12100280000F007F90028DFD13000F8BDC046E85601000857010028570100364B70B51D6806000C00002D05D0AB69002B02D124
:40314000280000F05DF9314B9C4201D16C6808E02F4B9C4201D1AC6803E02E4B9C4200D1EC680C22A35E9AB2110723D4D10607D409220120326037321343A381404242E0BB
:40318000530713D5616B002908D023004433994202D0300000F048FA002363632422A3899343A38100236360236923600822A3891343A3812369002B0BD1A0238022A1891B
:4031C0009B0092000B40934203D02100300000F0E3F90123A289134005D00023A36063695B42A36103E0920700D46369A36000202369834207D10C22A35E1A0603D5402297
:403200001343A381013870BD80110020E85601000857010028570100F7B58A8905000C0013075AD44B68002B02DC0B6C002B19DDE76A002F16D000232E682B6080235B01C9
:403240001A4001D0606D14E00123216A2800B847431C0ED12B68002B0BD01D2B01D0162B02D12E6000205AE04022A3891343A38155E0A3895B0706D56368C01A636B002B5C
:4032800001D0236CC01A00230200216A2800E76AB847A389421C06D129681D293AD8204ACA40D20736D50022626022692260DB0405D5431C02D12B68002B00D16065616B0E
:4032C0002E600029CED023004433994202D0280000F0AAF90020606321E00F69002FC1D00B680F60DB1B01930023920700D14B69A36003E0019B3F181B1A0193019B002B45
:40330000B0DD019B3A00216A2800A66AB0470028F0DCA389402201201343A3814042FEBD010040200B6970B505000C00002B01D100201CE0002804D08369002B01D100F01D
:403340005FF80B4B9C4201D16C6808E0094B9C4201D1AC6803E0084B9C4200D1EC680C22A35E002BE4D021002800FFF755FF70BDE8560100085701002857010010B50249E6
:4033800000F0B0F810BDC04625330000002310B5040003604360836081814366C281036143618361190008225C30FFF75BFD054B24626362044BA362044BE362044B236326
:4033C00010BDC0464D3D0000753D0000AD3D0000D93D000070B568254B1E5D430E002900743100F06DF9041E08D000212A00016046600C30A0606832FFF734FD200070BD3B
:40340000836913B50400002B28D18364C3640365134B144A1B6882620193984201D101238361200000F020F86060200000F01CF8A060200000F018F80022E0600421606854
:40344000FFF7A4FF01220921A068FFF79FFF02221221E068FFF79AFF0123A36113BDC046E45601007D330000F8B51D4B06001D68AB69002B02D12800FFF7C2FF4835AC6891
:403480006B68013B05D40C22A75E002F10D06834F7E72B68002B01D02D68F0E704213000FFF798FF28600028F6D10C23336016E0012320005B42E3810233A381676627606A
:4034C000A760676027616761A7615C3008223900FFF7C8FC20006763A763A764E764F8BDE4560100F7B504000700002601914834002C16D06368A5680093009B013B0093F1
:403500000DD4AB89012B08D90E22AB5E013304D029003800019B984706436835EDE72468E6E73000FEBD0000002370B5064C050008001100236000F0E5FC431C03D1236884
:40354000002B00D02B6070BD9423002070B50E001D000E23C95E90B01400002906DA00232B60B3891B060FD540230FE001AA00F05FFC0028F3DBF023029A1B021340054A21
:403580009B185A4253412B608023DB000020236010B070BD00E0FFFFF7B502268B8905000C00334210D101AB6A46FFF7CFFF00990700280000F084F800280CD10C22A35EDA
:4035C0009A0523D43343A3812300473323602361012363611AE080220D4BAB62A38920601343A381009B20616361019B002B0AD00E23E15E280000F02DFC002803D0012298
:40360000A3891343A381A3891F43A781F7BDC0467D33000010B5034B0100186800F050F810BDC0468011002070B50500002944D00C1F2368002B00DAE418280000F03BFC07
:403640001E4A13681100002B02D16360146031E0A3420DD92268A018834203D118685B688218226063600C6024E0A24203D813005A68002AF9D11E689819A0420BD12168D2
:40368000711858181960824214D110685268411819605A600EE0A04202D90C232B6009E021686018824203D1106852684118216062605C60280000F0FFFB70BDF822002047
:4036C000032370B5CD1C9D43083506000C2D01D20C2501E0002D01DBA94202D90C23336048E0300000F0E7FB234B1C681A002100002913D00B685B1B0DD40B2B02D90B601B
:40370000CC181EE08C4202D1636813601AE04B6863600C0016E00C004968E9E7174C2368002B03D1300000F0FFFA20602900300000F0FAFA431C18D00323C41C9C43A042F8
:403740000DD12560300000F0B7FB200007220B30231D9043C31A0ED05A42E2500BE0211A300000F0E1FA431CEBD10C233000336000F0A2FB002070BDF8220020F42200207C
:40378000936810B5013B9360002B05DA9469A34208DBCBB20A2B05D01368581C10601970C8B201E0FFF76AFC10BDF8B506000F001400D518AC4208D021783A003000FFF7D6
:4037C000DFFF0134431CF5D100E00020F8BD0000F0B59FB006000F0002920593002804D08369002B01D1FFF70BFE7F4B9F4201D1776808E07D4B9F4201D1B76803E07C4B3B
:403800009F4200D1F768BB891B070AD53B69002B07D0002306AD6B6120336B761033AB763DE039003000FFF781FC0028F1D001204042D6E0059A111D12680591002A00DA36
:403840007FE00992013423782E2B00D18DE021780322684800F024FB002807D0654B2A68C01A4023834013432B6001342178631C062261480293297600F012FB002800D100
:403880009DE05E4B002B00D090E00722059B07339343083305936B69039A9B186B61029C2378002B04D1029BE31A049312D003E0252BF8D00134F3E7049B029A39003000E1
:4038C000FFF773FF431C00D186E06A69049B944663446B612378002B7ED00122002352426A6002A95432521801342B60EB60AB601370AB6521780522414800F0D1FA0028E3
:4039000008D03F4B2A68C01A0123834013432B600134EFE72B68DA0604D55322202102A8121811701A0704D553222B2102A81218117022782A2A00D17CE7099B00200A216E
:4039400005E05242EA60022213432B607AE72278303A092A04D84B4301349B180120F6E7002800D16FE709936DE763782A2B0AD1059B02341A1D1B680592002B01DA0123FC
:403980005B42079363E700230A201A0001346B6021783039092904D84243013452180123F6E7002B00D152E7079250E705AB00933A00144B2900300000E000BF07E005AB7A
:4039C00000933A000F4B2900300000F08BF80390039B013300D05EE7BB895B0600D526E70B981FB0F0BDC046E856010008570100285701004E57010052570100000000003F
:403A000048570100AB370000F7B5170001938A680B6900900C00934200DA130022003B6043321278002A01D001333B6023689B0602D53B6802333B60062523681D401ED0EC
:403A4000230043331B785A1E9341226892061CD53020E1184331087021005A1C45310978A2184332023311700FE022000123193201990098089EB047431C0ED00135E36806
:403A80003A689B1A9D42F0DBDAE72200019943320098089DA847431C02D10120404220E006232068E1683A6803400025042B03D18D1AEB43DB171D40A3682269934201DD9E
:403AC0009B1AED180027BD420AD0220001231A3201990098089EB047431CDED00137F2E70020FEBDF0B58BB006920A0043320793059004920A7E0C00109B6E2A00D1ABE0C3
:403B000011D8632A22D009D8002A00D1B5E0582A00D0C5E045310A70814A4FE0642A1DD0692A1BD0BCE0732A00D1AAE009D86F2A29D0702A00D0B3E0202209680A4322604C
:403B400037E0752A1FD0782A33D0A9E00E001A684236111D196013683370A4E021681A68080606D4490604D5111D19600023D55E02E0111D19601568002D3BDA2D23049AD3
:403B80006D42137036E021681A68080606D4490604D51568111D1960ADB202E0111D196015685F4B227E039308276F2A1DD00A271BE022007821453211705A4A19680392EB
:403BC000081D226818600D68100602D4500600D5ADB2D30702D520231A4322601027002D03D1202322689A4322602300002243331A7002E00A274A4B03936368A360002B00
:403C000009DB0422216891432160002D05D1049E002B11D07BE0002D79D0049E28003900FEF782FA039B013E5B5C280033703900FEF7F4F9051EF1D1082F09D12368DB07C9
:403C400006D563682269934202DC3023013E3370049B9B1B23612BE009681A68080607D4490605D5111D19601368A28A1A8004E0111D1960136862691A600023049E2361C6
:403C800016E01A68111D1960166800216268300000F006F9002801D0801B6060636803E0260042363270012323610023049A1370079B09AA00932100069B0598FFF7A4FE50
:403CC000431C02D10120404227E02369320006990598079DA847431CF4D0236800259B070FD4099BE068984217DA180015E022000123193206990598079EB047431CE1D0C6
:403D00000135E368099A9B1A9D42F0DBE9E72600039B42361B7833708EE70BB0F0BDC046595701006A570100002370B5064C050008002360FCF746FE431C03D12368002B1E
:403D400000D02B6070BDC0469423002070B50C000E25495F00F0B2F8002803DB636D1B18636503E0A289024B1340A38170BDC046FFEFFFFFF8B51F008B8905000C0016006F
:403D8000DB0505D50E23C95E0022022300F074F8A289054B28001340A38132000E23E15E3B0000F01FF8F8BDFFEFFFFF70B50C000E25495F00F060F8A389421C03D1054AAE
:403DC0001340A38104E0802252011343A381606570BDC046FFEFFFFF10B50E23C95E00F015F810BD70B50500080011000022064C22601A00FCF79CFD431C03D12368002B66
:403E000000D02B6070BDC04694230020002370B5064C05000800236000F064F8431C03D12368002B00D02B6070BDC04694230020002370B5064C050008001100236000F02E
:403E400059F8431C03D12368002B00D02B6070BD94230020002370B5064C05000800236000F058F8431C03D12368002B00D02B6070BDC0469423002070B5050008001100AE
:403E80000022064C22601A0000F04CF8431C03D12368002B00D02B6070BDC04694230020C9B28218904204D003788B4202D00130F8E70020704770477047000070B505001C
:403EC000080011000022064C22601A0000F032F8431C03D12368002B00D02B6070BDC0469423002058220120014B40421A6070479423002058220120014B40421A60704726
:403F00009423002058220120014B40421A607047942300205822024B00201A607047C0469423002058220120014B40421A6070479423002058220120014B40421A60704739
:403F400094230020134A1088810703D08107890F401A001D11791030484381B25088820703D08207920F801A001D800040180A494030098980B2CA0701D0503080B28907A3
:403F800006D504495422091F09785143081880B270470000CE0D0020D411002010B501F011FF10BD10B501F013FF10BD10B501F017FF10BD10B500F05BFA10BD10B5074970
:403FC000044609780220002907D1204601F050FF002802D120460AF089F910BD6C0F002070B504460120002C12D02368002B0FD0616800290CD0074D0622288920811846BB
:404000002968FEF726FF6968606809780170002070BD0000D4110020FFB585B0002768460E9D07734F481C460078002802D0082009B0F0BD10990F9801900095029105A866
:4040400007C800F007F90028F2D16946264603AB84460873002C19D0002115E08A00B75A082F09D990198078002805D0083FB7521878401C187005E0002914D00027B75225
:4040800090198770491CC9B2A942E7D360460028CED10F98002809D0109901F043FA002804D00120C4E701208446EFE701F090FE2D48002141608160059901602188818026
:4040C000022D07D3A1798171A17AC171A1890181218A418100211EE0481C19E082008B00A75AE65ABE46BE4211D26F463E80B4461E190296B678BE7001967646E652171941
:40410000029EBB78B3706646A652019EBE70401CA842E3D3491CA942DED3134822460C3000906846037B0799069800F01BF90028B8D168460B4C007B60700B480C3001F09D
:4041400077FE0028AED1084907480C3107F0A4F90028A7D107F0BEF90028A3D10121217066E70000C80D0020C8110020F8B5054636480F460078002802D002242046F8BD5C
:40418000002F60D000243249002D16D02A89D0070DD02868002808D003881B3BE12B04D24088FB2801D81B2801D2012409E0900707D56868002804D1F7E70020088108601D
:4041C0004860002CDAD122482E8906811F481B21801D01804180042101711C490020891C0870F00705D019480622801D2968FEF730FE1749B00703D56A681448127882709E
:40420000124D0E46AD1D281F0D60486001F056FE284601F045FE30890DF0D8FD30890CF0C1FF28880CF0C4FF30890DF039FF03461033FFF787FE1F21C018890140183880A8
:40424000A91F88809AE7012498E70000C80D0020D4110020FFB58446384F1C460020BB883F78054602460646002F11D100290ED0029999420BD36146002908D0002C06D0D9
:404280000A99002906D02E4B0B99994202D2012004B0F0BD002144E0AB001F19BF78002F3BD0E35A002B38D07B43591889B22B0000F04AF8050410161C253100A7782388D3
:4042C000BC46FF27233BEB37BB4222D26346032B1FD322E0A388002B1FD0302B19D31CE02389002B19D0282B13D316E0A289002A13D01346134F233BBB420AD20DE0268A1C
:40430000002A0AD033460F4F233BBB4201D2964203D901200EE0002001E000280AD16D1CEDB2099B9D42B7D31C2463435B1802998B42ACD89642AAD8AAE70000C80D002053
:4043400079020000BAFF000030B47446641E2578641CAB4200D21D46635D5B00E31830BC18470000FFB583B0002469460C801F4606468C80002806D00598002803D0049814
:404380003043800701D0012466E0002FFBD03449049809888842F6D3FDF7D6FDFDF7C4FD00F012FC002855D100F07AFD002851D12C49084601F0EAF805042D0C4AD12A48B2
:4043C0000499066081800021C18007810C98007AC00704D0684601F014FD040007D10C98007A800703D501A801F014FD0446BF1DFEB2002C20D13146059800F05DF8040012
:404400001AD10DF05BFE040016D16A461088928808368518144AF1B29088D288AEB29319984207D3401B801A80B201F09FFB050007D000E0FF25012400F05EFA002D04D0E0
:4044400008E0F8B200F01CF9F6E700F081FA07490120087000F0CAFB204607B0F0BD0000CC0D0020A5450000E0110020D40D002010B503480078012801D101F019FA10BDAC
:40448000D40D002070B5084B0446DA889E8803205518B54206D8186880182060D8884018D880002070BD0000E01100200148008970470000E0110020F0B587B007460D4630
:4044C00000208900009006916846FFF7DBFF844600285DD1304800990160002117E02E4B88001A680629115406D22C4C0419667882185670628805E0C419203CA67A821840
:40450000567022891B68C018491C4280C9B2A942E5D300242DE0601CC2B2059025E01E4FA30039689600581840887118039604904E88B04217D938466F46FE80B6464F784E
:404540006E4677710297049F4F800168039F5E18767879184E700168764659184E800068029F18184770521CD2B2AA42D7D30598C4B2AC42CFD36046002809D16846069962
:40458000FFF780FF8446002802D1054900980860604607B0F0BD0000D80D0020B0570100DC0D00207047000010B5002809D005494A68002A05D0011F08788000105801F05E
:4045C00083FA10BDD80D002010B50446FFF76EFFC0B2801DA0420CD307484068002808D0A100405801F0E2F9002801D00470001D10BD002010BD0000D80D0020F8B51646DC
:404600000D460446FFF752FFC0B2801DA04203D20020C0430090F8BDB2B2E9B2684601F0EBF90099481C03D0024AA000526811500098F8BDD80D0020F8B50746FFF736FF98
:40464000801DC6B20A49002005460C680DE06178002907D06188B94202D32078FFF7B4FF002804D1241D6D1CEDB2B542EFD3F8BDD80D002010B5002801D0FFF795FF10BD45
:4046800070B506460948002504680BE06178002905D062882078121D0023FFF7AFFF241D6D1CEDB2B542F1D370BD0000D80D0020FFB581B00A9F16000C4620D000F0F2F857
:4046C000054604281BD0002F0CD03846FFF7B4FF20492A0151184860002810D03A460499FEF7B7FB1B4928010E504618778101980570200406D47D20C000444304E0FF2081
:4047000005B0F0BD6404640C00F0BAF80746042807D000F04FFAA0420BD800F04BFA201A03E0204600F0AAFA0020F06035720020E6E700F03FFA009000F0B6FA00980121EC
:40474000001B009000F0ECF802493A0151180098C860E6E7EC110020F8B5060116483418217A042903D0E068002802D017E00020F8BD00F01FFA054600F096FA00F0A0F8BE
:4047800004280CD001010C480F18F8680021451900F0C6F80020F860284600F06FFA6068054D002801D0FFF765FF042020720020A8516081E060DAE7EC110020FEB5002694
:4047C0006A46304601232549050169180D7A042D02D0C96800291BD000211154401CC0B20428F0D300246846005D002830D01B482101081841894768056802910021016071
:404800004160042241810272C160002E02D015E01354E3E700F054F804280ED001010F4808180190C6680021304600F079F801980021C160304600F021FA0126002D07D037
:4048400038460299A847002F02D03846FFF712FF641CE4B2042CC6D3FEBD0000EC1100200EB5002005216A460090118150810348694600680EF087FA0EBD0000E00D00208E
:40488000074A0020010189180B7A042B02D0C968002903D0401CC0B20428F3D370470000EC1100200549002002015218127A042A03D0401CC0B20428F6D37047EC1100209E
:4048C00030B50A4B04200A4C00210A011219157A042D06D0D268002A03D09A4201D808461346491CC9B20429EFD330BDFFFF0000EC1100207047000030B50020074C054653
:404900000423020111190B72A5504D60401C4D81C0B2CD600428F4D330BD0000EC11002030B5094C00231A011219157A042D04D0D568002906D02D18D5605B1CDBB2042B1E
:40494000F1D330BD2D1AF7E7EC110020002070471CB5002469460C70142001902346054A05480EF015FA04480068401C00D1FF2420461CBDCD490000E00D00203EB5124AC1
:404980000146FF2000230124126800290DD0012914D0042908D104206946009308814B8110460EF0F0F980B23EBD6846009304814381694610460EF0E1F9F4E7684600930D
:4049C000048143816946EBE7E00D002070B545890468416800890300FFF7B6FC08280509091E22282628002005F008FC1EE0022908D0C8B22A4621460CF028FB2046FFF7C1
:404A000039FE13E002202A4621460CF01FFB2946204600F00DF809E000200DF0B3FE05E02046FFF7CBFE01E0FDF7B0FA002070BD014B0022DB681847E40D002070B54489D3
:404A400005680089022803D0032809D0FF2070BD2246094C0023A46829460120A04708E0FFF7A0FA241DA2B200232946022006F0C6FB002070BD0000E40D00207047000003
:404A8000024800214160018041807047E40D002070B50C46002186B016460391012802D0022859D116E003A9012006F0FDFB01281BD1039D324621462846FEF7CAF90095D3
:404AC000287801900220694608814E816846FFF7B5FF41E0214D002B686809D0049004A9022006F0E1FB01281DD0022006B070BD002812D0298840182146FEF7AAF928888F
:404B00000024801980B228806988091D884206D12C801348FFF792FF03E00320E6E788421AD96C6018E004986860E278A378110219430B4A698000231060E3565360032319
:404B400013815181A1788170E178C1706178417021780170042028800020C7E7E40D00202C1200203EB515460C46022803D004280CD000203EBD0091019002206946088162
:404B800007484A8100680EF0FEF807E00CF05EFA044B0022DB6829462046984701203EBDE00D0020E40D0020014AD16090607047E40D0020034801688068081A0A214843FA
:404BC000000970473812002010B5FDF7B1F94C2204490548FEF73DF903490120C870002010BD0000CC5701003C16002010B5FDF797F910BD70B5134C2368002B08D0207B0A
:404C00001149C20705D04008400020738868A08070BD88680B4AA18880B29268814203D90A4D691A091802E0814202D2411A5118A160A080A0689842EAD30EF0C1F800F04C
:404C400013F870BD38120020C0102E40FFFF000010B508461946FFF7A7FF10BD704710B5FFF780FF10BD000003480021016041608160C1607047000038120020024610B51F
:404C8000FF20002A0CD0FFF7EFFF064C0321207B0843207310010A21FDF746FA2060002010BD00003812002000B504480A21806848430209FFF7D8FF104600BD38120020C1
:404CC0000248007B8007C00F704700003812002010B54B490868002802DA4A4B01221A70022290430860484800694549C00B4031096A0246C907C90F0A4259D0012000F05E
:404D000097FA3F480E216C30FDF766F83E4820218430FDF761F83C4814219C30FDF75CF83948FF21C131A430FDF756F83648FF212F31B030FDF750F833483449BC30FDF70E
:404D40004BF831483249AC30FDF746F830492E48491CB430FDF740F82B482E49B830FDF73BF829482C49CC30FDF736F826482B490830FDF731F824482949A830FDF72CF888
:404D8000214828498830FDF727F81F4826498C30FDF722F81C481921C9029030FDF71CF8FDF71CF8FDF7D8F8C0B2022812D01FE000290BD0002101420AD0114801216030E7
:404DC000FDF70AF80120FDF7A7F897E70121F2E7FF2010BD15491648FCF7FEFF14481549001DFCF7F9FF124800210830FCF7F4FF54200449C043891C0870002010BD0000CF
:404E000000F02E40F40D002000002E40320300002F3F00003102000010520000EC160000FA12000031D000003AE300009956000080012E40F80F000070B50646581C80B225
:404E400045086D00002408E0304600F0C1F81055000A1119A41C4870A4B2AC42F4D3D80705D0D0182038D15CC47FD454C17770BD30B50A4C002100195B1E07E05418647823
:404E80002502545C2C430480891C89B29942F5DB994201D1515C018030BD000000102E4010B5FF2000F0C4F90F49FF2048700E481021801D41800121417001700A490020FB
:404EC000C91C4870FFF704FF04000AD100F010F907210648FCF77EFF044807211830FCF779FF204610BD0000F40D0020CC112E4070B5002405465B1E0AE0284600F068F8E3
:404F0000010A161971702D1D1055A41CADB2A4B29C42F2DB9C4203D1284600F059F8105570BD000070B500210A4D5B1E0AE0541864782602545C344346193480001D891C28
:404F400080B289B29942F2DB994202D1515C4019018070BD00102E40F0B50599091FCFB200217E1E0BE0541864782502545C2C43164D45192C80001D891C80B289B2B1428B
:404F8000F1DBFC0712D01C78515C24020F4A0C4381180C809C785D78001D210280B2294384182180001D80B2D9780CE059781A7809021143054A84182180001DD9789B78AD
:404FC000090280B2194380180180F0BD00102E40014940180088704700102E4010B50B490020487000F084F8002000F047F9002000F034F907210648FCF7ECFE04480721C4
:405000001830FCF7E7FE002010BD0000F70D0020CC112E4010B50B46062812D006DC01280CD0032801D1FFF7D9FF10BD0A28FCD00B28FAD105480078107010BDFFF730FF1C
:4050400010BD1146184600F035F910BDFA0D0020F8B5244DAC6A0127A007234E002816DA307806280ED1286A384328621F480069F903084381B21D481030FCF7ADFE042013
:4050800000F0D6F8174802212830FCF7A3FEE00718D000F01FFF01280FD1002000F06CFF062000F0C5F81049FF20C91E48707078002802D1686B384368630A4801212830B1
:4050C000FCF788FEE0050BD53078042802D1052000F0AEF80348FF2101312830FCF77AFEF8BD000040F02E40F70D002000002E4010B503212348FCF76FFE0120FCF708FFFC
:4051000020483038406A204C80076178800F890001431C480C38FCF75FFE6078002808D0401E022181401820FDF7E8F8C000083800E0B82081B21548FCF74EFE13480321A9
:4051400009021438FCF748FE10481149B830FCF743FE612189010F48FCF73EFE0D480321001FFCF739FE0C490C48FCF735FE0B480B496038FCF730FE084801218838FCF729
:405180002BFE10BD70F02E40FA0D0020D8102E4090890000041E2E40FF0F000058122E40209000000848017806290BD140780749002803D1486B400840004863C86A01225C
:4051C0001043C86270470000F70D002040F02E400148007870470000F70D002000B50300FFF7B2F8080D050D0B070507090D012000BD032000BD042000BD022000BDFF20CD
:4052000000BD0000074A9168D26889B2064B92B2994204D105498A4201D1012100E000210170704780002E4033D000003FE3000010B50446FCF778FE072C01D9FF2C01D1E1
:4052400002480470FCF76CFE10BD0000F70D00200149487070470000F40D002010B5064A012805D01921C9021046FCF7B5FD10BD1D21C902F8E7000090002E4010B50A4A69
:40528000141D012808D009491046FCF7A5FD08492046FCF7A1FD10BD04491046891CFCF79BFD0349491DF3E788002E4031D000003AE3000070B50C460546FCF74DFEC0B285
:4052C00002280E49287804D0FF2810D04C280CD810E0FF2809D10A4AD0680004800F032801D0087807E09069000A553803E00878207070BD4F382070087070BDF60D002058
:4053000000002E40F0B50122002834D0002932D00424420600D00524792342065B06D21800D0641C034600221EE00C2516466E43124D00277519AF72104F002ABB516960BE
:4053400007D0661EB24209D10D4E86197606760E05E05E06760E8027BE1B00E080269B198919521C2E81D2B2A242DED303480549006B002288611046F0BD0000C4140020A1
:4053800079020000000E002018B50020694608700A48006900280ED0132149014018047E684604704F21C900054800F05BF8A04201D0012018BD002018BD0000000E002060
:4053C00048120020074900200C2242435218927A012A05D0401CC0B20628F5D30020704701207047C4140020F8B50F000446164609D01A4D1A496868A04202D94018A04263
:4054000001D38E4201D90120F8BD39462046FDF711FD002820D0324639462046FDF719FD0E49F0B2012620318E7600210C220B4653430A4A9A1813895568EF18A74207D9D8
:40544000641B1B1B9672834206DAC01A1469C0B2491CC9B20629E9D30020F8BDC414002079020000034610B50020024604E09C5C2018521CC0B292B28A42F8D310BD0000DC
:4054800070B500F05FF8084C064A216907480D46FDF7DFFC05492846FFF734FFFFF774FF207070BD79020000000E002048120020002070470020054A002902D0012902D076
:4054C00002E0906000E0D06000207047000E002070B5084C154608460549E26889182A46FDF7B7FCE0684019E06028B270BD000048120020000E00203EB50A226946FFF7FF
:40550000E7FF044606480A2200686946FDF792FC002802D00020C0433EBD20463EBD0000040E0020002802D0044A914201D2FF20704703494A610861002070477902000007
:40554000000E0020024800218160C16070470000000E002070B5074C15460548A26880182A46FFF741FFA0684019A06028B270BD48120020000E002010B503490A22096885
:40558000FFF7E8FF10BD0000040E002010B50F4A002313600E4A13600E4B18600E4801600E49012008600E490860000290600E490C4808600D4914300860FF38153850602E
:4055C00000F0BCF800F0CAF9002010BD340E00201C0E0020480E00204C0E0020380E0020280E00200C1600202C0E0020400E0020014610B50020002910D0094B1A689C68F6
:405600005118A14209D25868196080188A0704D08A07920F891A091D196010BD002010BD1C0E0020F8B50024164E671E321F3D463168136806E01422624310328A58521CA0
:405640001BD0641C9C42F6D36A1C14D02C461422544322460C3288500C214843FFF7C8FF3168002808510AD031680020103408517068401C70602846F8BD2546E4E7384657
:40568000F8BD00002C0E0020F3B50026F64381B000281BDB1E490968884217D80299002914D01B4F142204463F1D54432546396810354859401C09D0FCF736FC38682F1F35
:4056C0004159C359994203DBFCF72AFC3046FEBD214608310091465801590C20704308180C220299FDF7B5FB0948761C001D0068C159B14200D100260549009A091D86500C
:4057000008684159491C4151FCF70AFC0020FEBD280E0020002803DB07490968884202D90020C043704704491422091D096850431030085870470000280E0020F0B50020D9
:405740000D4A451E0346171F50600FE014260146714314680E1DA3510C461668083433511668083435511468401C635039688842ECD30020F0BD00002C0E0020F3B5002607
:40578000F64381B0002841DB2349096888423DD8029900293AD0204F142204463F1D54432546396810354859401C2FD0FCF7BCFB3868415900292BD0211D009146580C21E0
:4057C000005971430F46C1190C220298FDF741FB11480021001D0068761C00590C34C0190160416081600C48001D00680159B14200D100260849009A091D86500868415981
:40580000491E4151FCF78CFB0020FEBD3046FEBDFCF786FBFAE70000280E0020FEB504460D4600201E49089E0860471E009001900290002C11D0486885420ED2002A0CD0D7
:40584000002E0AD0642E08D808460C3001681C2068430C18207A002801D03846FEBD0120226020721846FFF7DDFE6060401C13D06681A6810A4827610C3067610179A94230
:4058800000D205710021684601810A462846029B00F040F82846FEBD00202072DDE70000340E002038B50124009400F039F838BDFEB50027164EFF433D4600240EE01C20BE
:4058C000316860430818017A002906D04068FFF721FF002801D0254603E0641C3079A042EDDA681C12D01C2130684D434419FCF71BFB69466068FFF741FF0546FCF710FBD4
:40590000002DD9D1216868468847D5E7FEBD0000400E002038B50024009400F001F838BD1FB500220C49541E0A60002811DB496888420ED808491C220C3109685043081896
:40594000406801A9FFF7A0FE401C02D0002004B010BD2046FBE70000340E0020F0B50021114A4D1E174611710C3F0B46BD6016E008461C2460431668041D35511468064690
:40598000235014680836A3551468361DA353044616680A34335318301468491C255078688142E5D30020F0BD400E002038B500210091002811DB0F49097888420DDA0D4DA6
:4059C00004010C3529680859002807D0201D0818694600F06FF9002801D0002038BDFCF7A3FA28680F34015D491E0155FCF798FA009838BD500E0020F7B582B00025029853
:405A00006E1E06602E48D21C024017462D4A2C4610460C380178106805E02301C358002B0FD0641CE4B28C42F7D3711C28D03401211D40180191039900F02AF900281FD178
:405A400001E02646F1E71F48016820460C300F521C480399026820460E30115419480399026820460F3011540398784300F0A0F8144900280968085102D00024009011E0A6
:405A800001251AE00F48016801980818009900F02CF9002801D0012502E00098C0190090641CE4B203988442ECD3002D05D10298066004480179491C0171284605B0F0BDF7
:405AC000FCFF00005C0E0020F8B50D4600216A468C461180002839DB23490978884235DA214B04010C3319680A59002A2ED020460C300B5A801C0E5C1846704380189542A2
:405B000024D3854222D2002006E007465F43BF18AF4206D0401CC0B2B042F6D36046002814D0114E271DC8190C366A46294600F006F900280AD168460088012808D030683F
:405B40002946C01900F0D1F8002803D00120F8BD0020F8BDFCF7E8F930680F34015D491C0155FCF7DDF9F3E7500E0020F8B50F46002400F031F8002817D10C4900220B467E
:405B80000C334A600EE021011D680E466A501D680C36AA53B61C1D680F31AA551D68641C6A54E4B2BC42EED31A71F8BD500E002000280BD0C01C074A810850688900538854
:405BC0004118994203D89368516018187047002070470000500E0020F8B5064600200F4D009029700C0121466846FEF74BFC00280CD129460C3100980860301B001F84B261
:405C000021466846FEF73EFC002801D0FF20F8BD6C800098A8600020F8BD0000500E0020F8B5002827DB19490978884223DA174C05010C342168485900281CD028460C3062
:405C4000085A009028460E300E5C401C0E5420682F1DC01900F064F800280CD12068002445590EE0094829460C300068C01900F03CF8002801D00120F8BD00982D18641C9B
:405C8000E4B2B442EED30020F8BD0000500E002030B50D4604000BD0A800FFF789FF6060002805D000202570C0436080002030BD012030BD70B50D46040005D0002D03D046
:405CC0000220205E002801DA012070BDFCF72CF90221615E60688900405828606088401E6080FCF71DF9002070BD70B50D46040007D0002D05D002212078615E401E8142DC
:405D000001DB012070BDFCF70FF96088401C00B26080616880000D50FCF702F9002070BD10B5040009D0227800216068FDF79AF80020C0436080002010BD012010BDF0B559
:405D400000231D46002802D00224045F0AE00120F0BD46689F00F6598E4201D1012503E05B1CDBB29C42F4DA15700020F0BD00000148007870470000640E00207CB5054693
:405D80000024FEF70FF9A8796946087000A8062229460130FDF75DF80021684604F0F4FC0C2806D0072806D01F2806D0122806D006E0022404E0042402E0272400E0012488
:405DC00020467CBD01480121417270474817002010B500F05FF9FFF7FBF9FFF7FFF910BD70B504460025FEF7DDF8002C06D0A079012803D8214602F081FC00E00125284637
:405E000070BD01460120002902D05020088000207047000001460120002905D003485422007850430880002070470000660E002010B502460D49FE204870032410460DF02B
:405E4000C5FA002810D10DF069FA00280CD105F087FA002808D100F013FB002804D104F039FF002800D10024204610BD640E002070B50025044600280ED0A07901280BD8B6
:405E8000FEF790F8A0790028204602D002F0C8FF03E002F09DFF00E00125284670BD0000014610B50120002904D006220248FCF7D0FF002010BD0000700E002001460120D0
:405EC000002903D0087802490870002070470000660E00200148007A704700004817002038B504460120002C20D0617801291DD800290BD0FF25E535FEF754F80C4828187C
:405F00000088C0B22070072803D00EE0FF25CD35F2E70020694608706846FFF773F969460878012801D108202070002038BD000000102E40014A002192681047640E0020CD
:405F400008B500226B461A7026280CD0094A342852680BD0352805D1900703D50021352005F0DAFA08BD19462620F9E7D007F9D03420F5E7640E0020014908727047000091
:405F800048170020F8B504460120002C26D06178012902D92278092A20D8002905D0FF25E5352078092803D004E0FF25CD35F8E708202070FDF7F6FF2078114F114E08289C
:405FC0000DD00020FFF75AF970780128207810D00D4969180880FE2070700020F8BD0120FFF74CF90720B8810549203188800120F2E7B8810248217820308180EBE7000004
:40600000C0112E40640E002000102E4070B50E46050001D0002400E00C4C002C11D0E28A500609D5D107C90F022002F08DFFE08A40218843E08204E0D107C90F012002F0CA
:4060400083FF3146284602F067FC70BDA8160020F8B50546002004460D4E009013E022466946284600F0E0FF0098002801D00DF08FF9A878214602F0A9FAA878214602F01A
:4060800097FA641CE4B2308AA042E8D8F8BD00007417002038B51E4CFFF79AF8042813D0052811D0062812D003282AD007280AD100206946087002460120FEF7ABFFFFF7FD
:4060C00087F80128FBD138BD00F077FB38BD02F0D3FA00F072FB02F033FB8007800F0228F4D10C4841880029F0D05B21095D0029ECD101210170A07D0140022002F024FFA9
:4061000038BD02F0BDFA0120FFF792F838BD0000A81600208A0E0020F8B50646002402F081FF0546304602F097FF03460A480021068A0DE001228A401046174628401F401D
:40614000002803D0002F01D1224394B2491CC9B28E42EFD82046F8BD741700201CB50020694648706846FFF7BBFE01AA69460A20FEF750FF6946042008561CBD70B50D463C
:4061800001F038FB04000BD02079002808D0FDF709FFE178A0782A4602F044FC002070BD022070BD01480079704700007C1600204030C07E002800D00120704700B500F04A
:4061C00001F800BD902148430749084A40186030417F491CC9B24177D289914201D300214177C8B270470000881600207417002013B501F0FFFA04000BD001F09CFE002812
:4062000007D0214601AA0A310620FEF703FF00201CBD02201CBD000010B50C4601F0EAFA00280AD001F087FE002806D0224604490A20FEF7EFFE002010BD022010BD00002A
:4062400069160020F3B581B0074601460026029802F0E0FE0446002F01D0002500E0154D002D21D0284601F0FBFA032C04D13946029802F02BFF06463846029902F098F93E
:40628000032C06D0002C10D00121384601F0EEFB03E03146384603F01FF9284602F07CF80221284602F092F8FEBD3846029902F07FF9FEBDA816002010B5044600F066FA59
:4062C000002804D103F0DEFD002801D00C2010BD2078611C02F0ACFCFF2801D01F2010BD02F0F2FCFF280AD02178621C02F0EEF8044821780068026B601C904710BD07205D
:4063000010BD0000B00E002010B503F0BBFD002801D00C2010BD02F06DFC03480068C06A8047002010BD0000B00E002070B50D46044610210CF06CFF1021601806460CF03B
:4063400067FF334610221946204603F0C9FD102130460CF05DFF02202870204604F0F0FB70BD0000F8B504464078217802028006870FE0781143A67809050002090D0643C2
:40638000084601F037FA00210546F2B2002812D0002C10D0022F0ED0032F0CD0002A0AD00279092A07D0002A05D0134A5A23527F1B5C9A4207D82889002104F0F6FA2046A9
:4063C0000CF0E6FFFF21002914D10C48224600682946436930469847C0B2FF280AD128464030817EF2B2491C8176FF232146284600F0E3F8F8BD00003C160020CC0E0020C6
:406400000020704710B5044603F03CFD002801D00C2010BD2078611C02F00AFCFF2808D002F03EFB044821780068426B601C904710BD1F2010BD0000B00E002010B500F068
:406440006BF904F047FC002010BD10B5044600786178E2780843A17811430843217908436179084305D003F0FFFC002803D00C2010BD122010BD204602F0D2FC002010BD04
:4064800010B5FBF769FD02F0EFFD044803F066FD02F010FB012000F003F810BD50160020F1B586B003A8009005A8019028489F22017B114001736846FDF792FD002845D1AD
:4064C00069460989C90705D0224806990068C2686846904769460989890706D5002835D11D480068816A0698884700282ED11B4E0025757075737571F57535767576757545
:40650000B570F570B5713746F5730120D03738731F20F880FF2130467972A0300176457600F0CAFA00242046069901F0AFFC002803D1641C2406240EF5D0FD720749BD72B5
:40654000B573C0310D704D704D600D7207B0F0BD3C160020CC0E0020B00E00208816002070B505460E46084602F05CFD0446304602F072FD0121A9400A46224001400A4367
:4065800001D0012070BD002070BD10B50446084602F062FD0121A140014201D0012010BD002010BD10B5FEF713FE032804D102F067F80120FEF73CFE10BDFEB51C46164625
:4065C0000F46054601F0E8FEA878FFF7F7FD02460190334639460094284600F00DF8002808D1A8780199FFF711FDFF2C02D138460CF0CEFEFEBD0000FFB585B005460E98BA
:406600000C46FF2810D02B49C00009680A5840180179C0795278814201D9012601E09006860F6846038108E06078A1788006860FE0780002014368460181284601F086FC80
:40664000070007D021462846079A00F081FC384609B0F0BD304600F02FFD04AE0346039002AA29460096204600F0BBFB3C20405D002818D0284601F069FC012813D0684611
:4066800000890096C0B20190A878231DFF22079902F0F6F868460089039BC2B2A878079902F03AFCD3E7684600890021C0B20091E9E70000C80E0020F8B50026002530463D
:4066C000FFF72AFD07001DD090201149704340186030447F12E0601CFBF726FDCCB23846E040C007C00F07D02146304601F058FF21463046FFF7A6FD6D1CEDB20548018A7A
:40670000A942E8D8761C3606360ED7D0F8BD0000881600207417002010B502F0CBF90020FFF7BEFE0CF0CAFE002010BDF8B5002400F0B2F80123012800D10124104F0020AC
:406740003E4620360425082203E0002801D0002100E031460979002907D001290BD002290BD0114681402143CCB2401C0006000EEBD07C70F8BD1C43F7E72C43F5E70000BD
:406780008816002010B5FFF7D1FF10BD10B5044604F0F2FB002802D1601C00F001F810BD1CB500240094062269460194FCF742FB002800D1122420461CBD10B5FBF7F5F86F
:4067C0000446FEF705FD012809D0FEF701FD022805D0FBF711FC2046FBF7EBF8EEE72046FBF7E7F810BD10B50B4681791943817103D08078114602F05DFB10BD10B58279FA
:406800008A43827102D1807802F068FB10BD000030B50C4C0220A28A0B4B9978002901D0022906D11D785B78EB18282B01D9032002E0032900D101205105490DC002014350
:40684000A18230BDC0112E40800E002000B500F029F8002807D0012805D0032801D0042801D0002000BD012000BD014600B50020C90701D000F010F800BD014600B5002016
:40688000C90701D000F008F800BD00000148006870470000780E002001480088000A704720102E400448008B410501D5042070474007800F7047000000102E400148406882
:4068C00070470000780E00207CB50446002568460570200610D5FFF7E5FF01280CD101A801F0D4FE6846007900F036FB012001F0BBFD0220FFF746FF600712D50C48017996
:4069000001290ED10571684601F0C0FE6846007800F056FB0220FFF735FF00212620FFF70FFB044800680169204688477CBD0000840E0020B00E002010B501460A4A00786D
:4069400000241070FFF7A8FF0128084603D002F0D3F9204610BD00F0E7F80400F9D1034801210170F5E70000800E00204817002070B50446FFF790FF002801D00C2070BDD1
:40698000A27B01211F48002A827801D00A4301E05208520082706279012A14D0C17849084900C170184D2868016820468847207901280CD06188208803F012F8208020798A
:4069C00004280FD015E0C2780A43C270EAE72868C168E01D8847E01D02F00EFA0B48008D208006E02868C168E01D8847E01D02F003FA074920798870204602F08BF90020DD
:406A000070BD000088160020B00E00203C160020800E002008B50178FFF73EFF814201D10C2008BD002914D0072069460870FFF70DFF012807D10121684600F0E5F801285A
:406A400001D0092008BDFFF7E3FE02F097F9012011E0FFF7FBFE012806D1684601F016FE6846007800F0ACFA02F07EF9FFF714FF0028FBD10220FFF785FE002008BD0000A8
:406A800010B501460A4A007800245070FFF704FF0128084603D002F0EDF9204610BD00F065F80400F9D1034801214170F5E70000800E00204817002038B568460CF0FEFBFA
:406AC000002801D01F2038BD01210098C90201804180002505714571857107214173857302F018F9009C202200212046FCF7BAF925702A460021601CFCF7B4F9204602F0DF
:406B0000FBF8204602F0B6F900980CF041FC062200210448FCF7A6F902480C388560002038BD0000840E0020F8B5044600250D4800950078012806D068460CF0BFFB002820
:406B400003D007250CE00C250AE0074E009830602278611C401CFCF77CF93168207808702846F8BD48170020780E0020F8B5044600250D4800954078012806D068460CF05F
:406B80009DFB002803D007250CE00C250AE0074E009870602278611C401CFCF75AF97168207808702846F8BD48170020780E00200346084800B5834209D8184600F01AFE0E
:406BC000002804D00089984201D1012000BD002000BD0000FF0E0000074A9179491C8906890E917138220A4092014907090E1143084302490840704788160020FF0E000062
:406C0000C006C00E70470000F8B507460E4600240D4803E0002C01D0002500E005462979002905D0641C2406240EF3D00020F8BD0021204601F02AF92E712046FFF7CCFF9D
:406C400028813C700120F8BDA816002010B503F07BF90222002100F003F801F0D7FE10BD10B5094B40074907000F090F185A595A40185043C0086421FBF756FA002800D1AD
:406C8000012080B210BD000018580100F7B53D20405C88B015460C46002802D02878042802D200200BB0F0BD6946087200262046FFF77EFA012800D00126204603A93830DA
:406CC0000191009023460327A17E34333246206A03F05EF902A8089900900B46019120463A4603A9243003F0DBF802466846007A2870204601F0B6F81046D3E7FFB587B09B
:406D00000C4605461078694608723D20005D1746002826D000262046FFF74AFA012800D00126204603A93830019100902346A17E34333246206A03F02BF902A80090291DC6
:406D4000019120462B1D03A924300A9A03F0A8F802006846007A388002D1204601F082F810460BB0F0BDF0B505463C20405C89B016460C4600280CD030786946087300288B
:406D800006D000272046FFF713FA012803D003E01F2009B0F0BD012703200890204604A93830019100902346E17E34333A46E06903F0EEF86846007B03A928180290009160
:406DC00020462B46019504A92430089A03F09CF802466846007B3070204601F04DF81046D7E7FFB505463C20405C89B016460C46002810D0084601F0A9F801280BD03088B9
:406E000069468883002809D000272046FFF7D0F9012805D005E000200DB0F0BD0220FBE70127204603A93830019100902346E17E34333A46E06903F0ABF8291D2B1D07A84B
:406E4000129A6D4607C5204603A924300C9A03F05BF802466846808B3080204601F00CF81046D9E770B50D460446FFF7A1F901280AD0E87AA97A00020143A07801F0C2FC8C
:406E8000012808D0002070BD00222421204602F0F9FC242070BD28214C200155204600F0B1FB282070BD0000002801D0002000E003484030C07F012800D00020704700001A
:406EC000A81600200146002049070ED50021084B03E0002901D0002200E01A461279022A04D0491C0906090EF3D0704701207047A81600200146002049070ED50021084B13
:406F000003E0002901D0002200E01A461279022A04D0491C0906090EF3D0704701207047A816002010B5044680346068002803D00CF042FA0020606010BD40304170704789
:406F40004030817070474030017070470171704792001018C166704770B53C2501F09CF9040004D020460021433001F0FFFBFF222946204600F0E8FB002C02D0A07801F007
:406F80000DF970BD10B5002801D0002000E00348002802D0008903F04FFD10BDA816002010B5002801D0002000E00448002804D00179072901D100F047F810BDA8160020CC
:406FC00010B501F069F9002802D0807801F0E6F810BD00207047000070B50546008A00281ED01049F122097B1140C90618D5294640314A8A098A521C4A4392B2D10800D1D7
:407000000121540801E0621A94B2A042FBD9FEF7AFFE012804D1298AA878224601F0B8FC70BD00003C16002010B50023054C0B60248A944204D992001018C26E0A60C366D8
:4070400010BD00007417002038B5044600200090A079002814D14020015D052901D00E290ED168460CF03AF9002809D12046009902F0E6FB03481021428B2046FFF7B3FBB4
:4070800038BD00003C16002010B50B4604460146184602F04FF8002802D020460CF082F910BD13B5044601AA11460620FDF7B2FF6846818861811CBD002800D10220704764
:4070C00070470000F8B504462346401D543300909A1EA078911E01F0F5FA25464035A88A298A8000FBF720F8401E81B2688A884203D96982A07801F061FF698A8C200151E9
:4071000020460021433001F031FB27480088E88102F01AFFE989891C8AB26179FFF7A0FD01F074FC02F010FF2A8A6179FFF798FD074601F05FFC688A002806D01B49088A13
:40714000032212021043088202E0002001F02AFF1648803801886E8A002E0CD0304648431349FBF7CBF80004000C01D0401C80B21049488002E00F4800214180288A70431A
:4071800081B2A07801F084FEFF2228374932B9B21346204602F028FCE98AA07801F0F8FDA07801F025FAF8BD80102E40E0112E40710200008A0E00207FB504468034616805
:4071C00005460E46183108226846FBF742FE31462031082202A8FBF73CFE102168460CF017F86068102108300CF012F860682B46083024331022694602F072FE7FBD10B5A8
:4072000004460821FFF7FAFA10212046FFF7F6FA207905281FD006281DD008281AD12189002003F081FB072020712046FEF7C0FF014620464030012913D00E210170002193
