:400000000040002011000000310600003106000010B500F02DFBC04670B512222E4B1A6000F0E0FE2D4801F0E3F9012000F0FAFE302000F0F9FD2A4A2A4B1A602A4D8023E6
:40004000DB052B60294A116802230B431360284A284B1A600022284B1A60284A13680824A3431360FA20C00000F088FE244800F07BFEBC229201234B1A60234B234A1A6090
:40008000E8214901224A1160224A1A6080218900214A1160214A1A6082221206204B1A608022D2021F4B1A6042221F4B1A60013A1E4B1A60013A1E4B1A601E4A1E4B1A6075
:4000C0001E4B2B601E4B1C601D4B1B681B07FBD401221B4B1A6070BD30001040001BB7000600008004010B400C020B4078002E402D3E00007C002E4064F02E406CF02E40D3
:40010000DC050000080301400000014042FF00800403014041FF00800003014040FF008008010B4000010B40180101400801014004010140FF7F000008020B4007000040E1
:4001400010020B4010B572B600222C4B1A6000240FE02B486200131959000B00411889881A5AC31858880004104300F02DFA0134E4B2012CEDD9234A234B1A60EE22234B12
:400180001A600022224B1A6099231B04214A1360214A1360214A1360214A1360214A117806230B43DBB213701F4A204B1A6021221F4B1A601F4A204B1A6020221F4B1A6005
:4001C0001F4A204B1A60C0221F4B1A601F4A204B1A6004221F4B1A60033A1F4B1A601F4B05321A60033A1E4B1A6021321D4B1A60FFF712FF00F0FEF910BDC0466CF02E4077
:40020000484901000000FFFF00010240000502400000024000500F4010500F4020500F4030500F4000700F4000102700080004400001044006102700080104401801044018
:40024000811D18000802044000030440006CDB0008030440180304400004044008040440000504400805044010B5064C2378002B07D1054B002B02D0044800E000BF0123FB
:40028000237010BD401100200000000030460100084B10B5002B03D00749084800E000BF07480368002B00D110BD064B002BFBD09847F9E70000000044110020304601002C
:4002C000D80B00200000000000B583B00C4A117801AB19705178597091789970D27852B2DA70084817220281036004238380C3800023054A00210FF0E3FD03B000BDC046FF
:40030000F0220020E42200201823002010B584B0282810D004D8012809D0262812D04CE042281DD04C2824D0412846D112E0002000F05CFA41E0002000F058FA0022204B00
:400340001A703AE01F4B1B78042B36D1002000F04DFA32E001221A4B5A7000F08FFA2CE0174B00221A705A7001329A70FFF7ACFF23E06B4615C915C31A000B6813609BB2F9
:40038000142B05D1019A11780D4A117001219170162B0BD1019A11780B4B19705078587092789A70094B1970FFF78EFF084A13785078000218430EF07BFB04B010BDC046E8
:4003C0005C11002010230020F0220020DC0B00201823002000B585B001A912230B81064B01938880054A13785078000218430EF013FB05B000BDC046F8220020182300202F
:4004000000B585B00C4B9B78012B13D10A4A00239370127869460A704B7001A8143303810191022383803E33044A00210FF048FD02F04AFF05B000BD5C1100201823002089
:4004400010B502F075FA0F2101F088FC0131C8B210BDC04610B5FFF7F3FF204C2070FFF7EFFF6070FFF7ECFFA070FFF7E9FFE0701B4B5B78012B1BD1FFF7C2FF184B1B78B8
:40048000012B10D1012000F0D5FD164B1B78002B1FD1002000F0B6FD0420FFF79BFF012000F0B0FD15E0104B187800F0C3FD10E0012000F0A7FD012000F0BCFD084B1B7823
:4004C000002B06D100F0C2FD002802D0002000F0A5FD042000F03CFD10BDC046F82200205C11002014230020DC0B002010B5012000F064FE0122014B5A6010BD5C1100209F
:4005000030B58BB062B6284800F06EFD002000F001FD264800F014F900F0B6FD00F056FF234800F055FF00F0F3FE002002F05EFA02F0D0F9002000F071FD9620400000F03E
:40054000FBFB0025012000F069FD002000F0F0FE184C20801849002000F000FF0023E15E002000F009FF01F02BFCC2B2134C22701349684602F018FA684600F029FF247810
:40058000A5420DD0062C07D90E4B5B68012B03D0FFF7ACFF250003E0002000F00FFE250002F092FECEE7C046550400000D03000004490100FE2200204C040000FC2200209D
:4005C0002C4901005C11002010B50A00002102F079F910BD064B1B68002803D080221206134301E05B005B08014A13607047C04680033A4010B50323084A1360084A13606C
:4006000080221206074B1A600422074B1A600022064B1A600120FFF7DDFF10BD300030403000314000003A4000033A40000E3F4010B502F003F903680C2B00D1FEE7FEE7E0
:4006400010B50300084A1068C318084A9A1A802A02DC054A136005E002F0F0F80C2303600120404210BDC046E00B00205023002070B50F4E0F4D13E029686B68AC680022ED
:4006800002E001C901C30432A242FAD1E868002202E0002102C304328242FAD11035013E002EE9D102F0D0F8FFF72AFFFEE7C046010000004C4D010010B50E4A1368012161
:4006C0008B43136000230AE0032B03D89A000A49505800E009489900094A885001332F2BF2D9FFF72FFD034A116801230B43136010BDC04600001040000000003106000099
:400700000000002010B500F08DFA10BD10B50024064B1C70064B1C70064B1C70FFF7F2FF054B1C70054B1C7010BDC0461B230020142300201A2300200023002008230020FE
:4007400010B590B0040014221F490BA802F0B1F81E4B1B78002B04D1FFF7D8FF01221B4B1A70002C2DD01A4B1C6008A805AA426006AB0893002101811B31198059801739A0
:400780001971002313701231694402F079FE002818D1104B0293104B0193052300930BABAE2212010D490E4802F0C0FD002809D101220C4B1A7015321C210B480FF068FBD2
:4007C00000E0012010B010BD5449010064110020042300207902000000560100C000002069090000102300206849010010B5022833D81E4B1B78042B31D11D4B1B785B0744
:4008000030D400280BD11B4B1A004032002111822022596C0A805B6C30325A800EE001280CD1144B1A00403296211182C822D200596C0A805B6C8022D2015A800E4B18704B
:400840000C4840300CF034FF00280DD1084A117804230B43DBB2137006E0012004E00420FF3001E00420FF3010BDC046102300201B230020E40B00201A23002010B50CF0FC
:40088000C7FF034A117808230B43DBB2137010BD1B2300207047C04603784078000218437047C04670B5050083890F2B1FD1043031332A0000210FF003FB041E11D16868CA
:4008C000FFF7EAFF830706D50A4B1B68290082204000984705E0074B1B6829000620FF309847054A137801218B43137000E00024200070BD042300201B230020024B002229
:400900005A701A707047C0461823002010B582B00400FFF7C7FF0A4B1B78DB070ED4002809D001A912238B70A3890B80C87020680EF034F802E020680EF0BAF802B010BDD3
:400940001B2300208379002B07D000200BE0C25C002A07D10133DBB200E00023052BF6D9002000E001207047F0B583B004000D009A4A117801230B43DBB21370272800D15D
:40098000C2E012D8062800D185E004D8012821D005287CD010E1242800D1B1E0262800D1BAE0212800D007E18AE0422800D1EFE006D8282800D1ABE0412800D1D4E0FBE0B8
:4009C0004C2800D1EFE0FA2800D1F0E0432800D0F2E0E0E001AE0727377000237370300004F05AFC377001237370300004F054FC02F062FC7A4B1E683000FFF7A3FF0028A2
:400A00000CD0300002F064FC754E00213068FFF741FF30680121FFF73DFF2AE0714B1F78714B18788001FC263601020032403F21394011436D4B1B781B03F822520213406C
:400A400019436B4B1B785B04FE22120413400B43684E33701A0A72701B0CB370300002F037FC00213000FFF715FF01213000FFF711FF03200CF0C0FC01A83F23037000236E
:400A800043700CF0D7FC04225B4B1A7094E02A785A4B1A7090E02B78002B00D08CE06B78002B07D1564B0222DA8016329A80554A1A606B60494A137801218B4313707BE068
:400AC000464B1B789B0677D44F4B1B78102B02D105224D4BDA704D4B18784B490CF0AAFD01AB1880002804D0494B1B6801A9362098473A4A117801230B43DBB213705BE043
:400B00006A78444B1A7057E002223B4B1A7053E00422394B1A704FE0374B1B78022B4BD02E4A1278D20747D52C4A1278520708D50322314B1A70294A137804218B43137090
:400B40003AE0264A1278120708D504222A4B1A70224A137808218B4313702DE0032B2BD10422254B1A7027E0284E02222900300001F09FFE0022214B1A7031789E318900DD
:400B8000254B591801310432244801F092FE13E0FFF7B4FE10E06988162900D9172128880DF006FF08E02800FFF7B0FE04E01C4A117801230B431370084B1A7811231A4290
:400BC00009D0064A137801218B431370104B1B6829002000984703B0F0BDC0461B230020380C00207CF1FF0F7DF1FF0F7BF1FF0F78F1FF0F3C0C00201023002014230020A6
:400C000068110020A00B00205C0D0020182300200423002008230020005601000C230020002300207047C04610B586B0040000F0E8FB0E4B1B6800930D4B1B680193033C45
:400C40000C4B1B5D02930C4B1B68039304AA0B4B04936B4605930A4B1A600A490A4A11601B6800F0D2FB06B010BDC04608010B4000010B40A04B010030001040B6EA000060
:400C8000080010401700008004001040024B1B68012018407047C0460C002E401F2318401E3B8340014A13607047C04600E100E01F2318401E3B8340014A13607047C0464E
:400CC00080E100E001BE704770B504000D001F2802D90020FFF7F6FF1034A40080239B059C4664442068256070BDC04670B504000E00032902D90020FFF7E4FF1F2C02D988
:400D00000020FFF7DFFF03252540ED00063500F078FBA408A400074B9C46644421680323AB4099430B003100A9401943216000F06CFB70BD00E400E010B5040006E0084BB9
:400D4000586800F055FB074B9C46644480231B029C42F4D8024B9868604300F049FB10BD640D00200080FFFF10B5034B1B7B584300F03EFB10BDC046640D002010B5040093
:400D80000F4A116801230B4313600E4A0E4B1A600E4A1368802109020B431360002809D100200CE00120FFF7DFFFFFF76FFF002804D1013C002CF5D1102000E0002010BD81
:400DC00060F02E400220000078002E4010002E40034B1868C0231B02184000D00120704700010B4010B50D4B1A6801218A431A601A68022082431A60094A10683024A043A8
:400E0000203C204310601068093CA043014311601A68802109060A431A6010BD00F02E4000FF2E4070B51D4B1B6801241C40002802D0012816D02BE0184B1968012291431D
:400E400019601968022081431960154B19682E3081432038014319601968093881430A431A6018E00D4B1A6802218A431A600C4A10680725A8430143116011683020814351
:400E8000103801431160196801220A431A6002E00020FFF717FF200070BDC04600F02E4000FF2E4010B500F0ACFA044A1368C02109020B43136000F0A8FA10BD00010B4022
:400EC00010B500F09EFA08490A68084B1A408024E40122430A600A6813408022120213430B6000F092FA10BD00010B40FF3FFFFF10B50400022802D90020FFF7E3FE044BBC
:400F00001868E4000134E0400123184010BDC04610020B4010B504000C4A136803431360C30704D50020FFF7E3FF0028FAD0E30504D50120FFF7DCFF0028FAD0E30304D508
:400F40000220FFF7D5FF0028FAD010BD10020B4070B5050000F055FA0400FFF739FF002803D0FFF7ADFF012100E0002108482840084A1568084B2B40184310601368012959
:400F800001D1FFF78FFF200000F03FFA70BDC0460404040010020B40FBFBFBFF014B18667047C0460000002010B5040000F029FA044A1368C0218B43A4011C43146000F0A3
:400FC00024FA10BD08E400E080225200014B1A607047C04600E100E080225200014B1A607047C04680E100E010B50400FFF7F4FF2000FFF7D3FF0320FFF7D6FFFFF7E4FFE9
:4010000010BDC046044A1368DBB201218B430840184310607047C0460004044004490A68D2B240239A43800118401043086070470003044004490A687F231A40C301D8B261
:40104000104308607047C04600030440024B1868C0090123184070470403044010B50A20FFF71CFE10BDC04610B500F01DF810BD10B5044A1368802109060B431360FFF73F
:40108000EDFF10BD0000254010B5064B1B78002B04D1FFF7E9FF0122024B1A70FFF7E8FF10BDC0467011002010B50024184B1C60184A194B1A60194B194A1360194A146027
:4010C000194A1460194A1360194B1C600A20FFF7EFFD03210A20FFF709FE16490A20FFF7F3FD154B1C60154B1C60154B1C60154B1C60154B1C60154B1C601022144B1A705A
:40110000144B1C80144B1C60144B1C6010BDC046000025407708008060002540070100800003254004032540100325400002254004022540F5140000C80E2540880E25401D
:40114000480F2540080F2540C80F2540880F25401C2300202A230020302300202423002010B50E4A13685B005B08136000230C490B600C490B600C4804680C492140016016
:401180000B490B600B490B6010210B4B19701368802109060B43136010BDC04600002540680025406C00254060002540FF5CFFFF880F2540C80F25401C23002004490A686B
:4011C000D2B220239A43400118401043086070470000044010B503210F20FFF787FD27490F20FFF771FD0122254B1A60254B1B68002B01DA244900E02449254A13680B436F
:401200001360244A244B1A60244A254B1A600023244A13602449254A11602549254A116025490A688020400202430A60234A1360234A13600133234A136023490868234A5F
:40124000024013430B60002315E09800204A82188021C90011601A4C216801229A401204120C0A432260590000241A4A8C521A491A4A81500133002BE7D010BDC1130000DF
:4012800020003A4080033A40400210534002005300003A40F400008004003A401007F00718003A401C003A40FF03020010003A400200020014003A4000033A4028023A407A
:4012C00038023A4018023A4030003A40FFFFFFDF80003A4044230020204E00004023002010B5094B1B68002B0CDB084B1B68002BFBDB054A1368802109060B4313600A20C4
:40130000FFF732FD10BDC04600003A4008023A4010B5064B1B78002B04D1FFF75BFF0122024B1A70FFF7DCFF10BDC0467811002010B5041E02D00020FFF7C4FC002C07D1E4
:40134000A400054B9C46644420680004000C00E0002000B210BDC04680013A4070B504000D00002802D00020FFF7ACFCA400014BE55070BD4023002070B504000D000028B6
:4013800002D00020FFF79EFC62000A4BD05A00B2281A00B201F002F9074900F043FE051CA400064BE05801F0F9F8011C281C00F01FFD70BD44230020000020414023002082
:4013C000014B1A681A60704710023A407047C04670B505000078012404E000F021F8285D0134E4B20028F8D170BDC046000000000230800803D00138FDD1C046C046C046D7
:401400007047EFF3108072B6704780F31088704700000000000000000000000000000000FEB5494652465B460EB407462E4909688A462E4A12682E48022100F01FFB030008
:401440002A480068C0182A4900F018FB06001F3EB346234A126801219140C9430C0001250026FFF7CEFF814651460B6823400B6058460430FFF7BCFF3800F0402840904025
:401480000B68234003430B605846FFF7B1FF0136072EF1D900200130012090400B68234003430B6058460630FFF7A2FF4846FFF7ACFFC046C046C0460EBC894692469B4664
:4014C000FEBDC046C046C046C046C046C046C046C046C046C046C046C046C046C046C0467C1100207C0D0020780D0020740D00208025000010B5AF4B1B68002B00D098477A
:40150000AD4B1B68DB0702D50022AC4B1A60AC4B1B789B0628D5AB4B1B68DB0507D5AA4A1188C0239B000B431380012300E00023A44A1268D20706D5A34A118890239B0084
:401540000B4313800123002B0FD09D4A1278D20701D5012200E002229B49088802430A800021974A117000E00023954A1278920600D417E1934A1268D20611D51022934B5A
:401580001A608F4B1B78DB0701D5012300E002238D4A11880B4313801022894B1A7007E1874A1278120720D5864A126892070AD50222864B1A60844A118888239B000B4305
:4015C0001380012311E07E4A1278D20703D525217B4A117009E02421794A11707C4A1268002A02D014397B4A1160754A1278520700D4AEE0724A1278D20749D5764A126808
:40160000120727D5754A1268754909681F240C40744909686418141B082C09D8002C16D1714A1168714B0B401360012308340EE008240CE06B4A11686D48006841186D4830
:401640000068C0B20870116801311160013C002CF0D119E0604A1268520715D5614A116863480068411863480068C0B208701168013111601168594A1268914203D2042166
:401680005D4A116000E001235C495D4A116060E04C4A1268920726D502224C4B1A6059490B681D321A40096880231B020B4000D001239B18544A1168CB1A13601268534BD0
:4016C0001A60414A118884239B000B431380504B1A68802149020A431A6019684D4A0A401A60012335E04C4A1268D2061ED427E0454A1168364A126891421DD2344A1268A7
:40170000013A414909688A4204D1402243490A6030490A603C4A11684148006841180978C9B240480160116801311160354A12681F210A40082ADBD11021384A116008E0E0
:40174000354A1268520604D52F4B1A682F4B1A600123002B2CD0244A1168244B0B4013600023314A13601B4A1360304B1B789B070ED5134B1B78DB0701D5092300E00A2392
:40178000114A11880B43138060220D4B1A700FE0274B1B689B0601D5182200E01022164B1A6005E0064B1B78DB0601D4FFF7D8FC10BDC046741100208C0E2540880E2540B3
:4017C0001C2300200C0F25402A230020000F25402C230020880F2540CC0F25403C230020080325403023002060002540FFFEFFFF382300204003254068002540ED0F000070
:40180000C00F254008022540202300202423002004022540FFFFFEFF8C0F2540800F25403423002040022540C80F254028230020640025400160704701607047324B1A7814
:401840001202324B1B781A43314B1B781B02314909780B4330498B4201D1072A06D0D42109018B4206D1042A04D102E02B4B042200E02A4B2A490B602A4B1A602A4B1B7805
:401880001B022A4A1278134380229201934202D0002B02D002E0264B00E0254B254A1360254B1B781B02254A12781343244A934205D0244A934204D0052B05D103E0224B65
:4018C00002E0214B00E0204B204A1360204B1B681B09204A1268AA2A15D1012B13D9164B1B780E2B0FD11C4B1B781B021B4A127813431B4A13601B4B1B781B021A4A127865
:4019000013431A4A13607047D9F0FF0FD8F0FF0FDFF0FF0FDEF0FF0F580B0000580D00006C002E4074002E40DBF0FF0FDAF0FF0F0220000078002E40DDF0FF0FDCF0FF0F6B
:401940000F0F000005050000050F000080002E40EC0F00F0E00F00F06DF2FF0F6CF2FF0F84002E406FF2FF0F6EF2FF0F94002E4010B5FFF7F9F910BD10B5FFF7DDF910BDF1
:4019800010B500F04BF810BD10B500F04FF810BD10B500F04BF8034800F02AF8032000F02DF810BD751A000010B5024800F046F810BDC046751A00000220FF307047C04603
:4019C0002B2070472B2070472B2070472B2070472B2070472B2070472B2070472B2070472B2070472B2070472B2070477047C046014B18677047C0460000002010B50400A3
:401A0000FFF7FFFC044A1368C0218B43A4011C431460FFF7FAFC10BD0CE400E080225201014B1A607047C04600E100E080225201014B1A607047C04680E100E010B5040081
:401A4000FFF7F4FF2000FFF7D3FF0320FFF7D6FFFFF7E4FF10BDC04610B5FFF7D2FC044A136804218B43136030BFFFF7CEFC10BD10ED00E010B512F0C7FD10BD0022430825
:401A80008B4274D303098B425FD3030A8B4244D3030B8B4228D3030C8B420DD3FF22090212BA030C8B4202D31212090265D0030B8B4219D300E0090AC30B8B4201D3CB0380
:401AC000C01A5241830B8B4201D38B03C01A5241430B8B4201D34B03C01A5241030B8B4201D30B03C01A5241C30A8B4201D3CB02C01A5241830A8B4201D38B02C01A5241AB
:401B0000430A8B4201D34B02C01A5241030A8B4201D30B02C01A5241CDD2C3098B4201D3CB01C01A524183098B4201D38B01C01A524143098B4201D34B01C01A52410309B8
:401B40008B4201D30B01C01A5241C3088B4201D3CB00C01A524183088B4201D38B00C01A524143088B4201D34B00C01A5241411A00D20146524110467047FFE701B500200F
:401B800000F0F0F802BDC0460029F7D076E7704703460B437FD4002243088B4274D303098B425FD3030A8B4244D3030B8B4228D3030C8B420DD3FF22090212BA030C8B42B7
:401BC00002D31212090265D0030B8B4219D300E0090AC30B8B4201D3CB03C01A5241830B8B4201D38B03C01A5241430B8B4201D34B03C01A5241030B8B4201D30B03C01ADD
:401C00005241C30A8B4201D3CB02C01A5241830A8B4201D38B02C01A5241430A8B4201D34B02C01A5241030A8B4201D30B02C01A5241CDD2C3098B4201D3CB01C01A52412C
:401C400083098B4201D38B01C01A524143098B4201D34B01C01A524103098B4201D30B01C01A5241C3088B4201D3CB00C01A524183088B4201D38B00C01A524143088B4292
:401C800001D34B00C01A5241411A00D201465241104670475DE0CA0F00D04942031000D34042534000229C4603098B422DD3030A8B4212D3FC22890112BA030A8B420CD34F
:401CC000890192118B4208D3890192118B4204D389013AD0921100E08909C3098B4201D3CB01C01A524183098B4201D38B01C01A524143098B4201D34B01C01A5241030917
:401D00008B4201D30B01C01A5241C3088B4201D3CB00C01A524183088B4201D38B00C01A5241D9D243088B4201D34B00C01A5241411A00D20146634652415B10104601D32D
:401D40004042002B00D54942704763465B1000D3404201B5002000F005F802BD0029F8D016E770477047C046F0B54F464646C0B41604360C9946330005042C0C070C150C35
:401D800063437E436F4365431C0CAD1964199C46A64203D980235B02984647446346250CEF191D044B464A4343432D0C240464199918C91920000CBC90469946F0BDC04680
:401DC0009E2110B5C905041C00F060FC002803D1201C00F0C1FB10BD9E21201CC90500F035FA00F0B9FB80231B069C466044F2E7F0B5564644465F464D46F0B44402460092
:401E0000C70F83B08846650A360EBA463DD0FF2E22D00023EC00802599469B46ED0425437F3E43465C025800DB0F640A000E984636D0FF2830D080230021E400DB041C43CC
:401E40007F38301A0190484642460843724E800030587A4013008746002D44D108239946063B9B46DDE70122FF2000241A406402C305640AD2071C431443200003B03CBC25
:401E800090469946A246AB46F0BD002D20D104239946033B9B46C4E7002C17D1022102E0002C0AD10121321A01924A4643460A435A48920082587B409746200000F0F0FBD1
:401EC000431F76309C4040420021BAE70321B8E7280000F0E5FB431F9D4000237630464299469B469DE70C239946093B9B4698E780240022E403FF20B9E70024C2468B4610
:401F00005A465346022AAED0032A7DD0012A31D1012200201A400024A9E70122101A1B2856DD1A4000200024A1E78023DB031D424BD18023DB032B435C02640A3A00FF20CD
:401F400095E76D016001854230D2019A0024013A01921B220127290064006D00002901DBA84201D82D1A3C43013A002AF3D16A1E95412C4301987F300028CEDD620704D085
:401F80000F222240042A00D00434220103D5244A019814408030FE2800DD64E70122A401640AC0B21A4062E72C00A9E72D1A1A220124CFE76B02BCD500248023DB031C439D
:401FC0006402640A4246FF2051E71C42B3D1F4E721002022C140101A8440621E94410C43620704D00F222240042A00D00434620104D5012201201A40002438E70122A40190
:40200000640A1A40002032E78023DB031C436402640A5246FF202AE7D04B0100104C0100FFFFFFF7F0B557464E4645464300E0B446028846760A1F0EC40F002F47D0FF2F74
:4020400025D0002380259A469946F600ED042E437F3F434642465D02D20F5B006D0A1B0E904640D0FF2B39D080220020ED00D20415437F3BFB1842465746591C62408C46B1
:4020800007430F2F5CD86F49BF00C9598F46002E45D108239A46063B9946DAE7424602282DD0032800D1C3E0012800D0A2E0002500260240D4B27602ED05760A2E43E407A4
:4020C000264330001CBC90469946A246F0BD002E1AD104239A46033B9946BAE72A00511E8A41901CC6E70120002DC3D0280000F0D7FA431F76309D4043420020BAE7012470
:40210000FF2514400026D6E7300000F0C9FA431F9E400023763047429A46994699E70C239A46093B994694E780260024F603FF25C1E735004846B2E7350022004846AEE77E
:402140002904090C0800370C3604360C2C0C7943704367437443060C64183619B14203D980214902884647440004000C310409188D01681E8541890E2943350CED19AD0125
:402180000D43290104D5012369081D4063460D4319007F31002925DD680704D00F202840042800D00435280103D5274980330D401900FE29A3DC0124AD016E0A1440CDB290
:4021C00079E78020C003064207D0054205D128434602760A4446FF256DE706437602760AFF2568E70124611A1B2905DD14400025002660E76346CBE72E002023CE40591AFE
:402200008D406B1E9D412E43730704D00F233340042B00D00436730104D5012401251440002648E70124B601760A1440002542E780260124F6032E437602760A1440FF25E9
:4022400039E7C046504C0100FFFFFFF7F8B54A024E0043024400240EC50F9B09360EC90F9209FF2E00D183E001204140A01BA9425CD0002800DC95E0002E1CD1002A00D013
:4022800081E05A0704D00F221A40042A00D004335A013BD50134FF2C00D191E001209B015B0AE4B205405B02E4055B0AED0723432B431800F8BDFF2CE3D08021C9040A43E5
:4022C0001B2800DD90E016002021C640081A8240511E8A4132439B1A5A0115D59B019E09300000F0DDF90538864084426CDC041B330020200134E340041BA640721E9641C4
:4023000000243343BDE70D005A07BCD1DF0801231D40FF2C33D1002F00D190E08022D20313003B435B025B0AFF24BCE700284FDD002E2ED0FF2CA4D08025ED042A431B2868
:4023400000DD97E016002025C640281A8240501E824132439B185A01D5D50134FF2C6DD001227B481A405B08034013430D0088E7002A00D07AE777E7031EC5D100257B02DF
:402380005B0AE4B28FE701380028A4D0FF2C97D177E7002A00D174E701380028DAD0FF2CCDD16EE7002821D1601CC0B2012858DD80279E1AFF0437402FD0D61A0D008FE7B6
:4023C00001231D4000236EE7624B241A334058E7002851D1601CC6B2012E33DDFF282DD09B185B0804004CE7012274E7002C1AD0FF2E1FD08024E404404223431B2800DD15
:4024000096E01D002024C540201A8340581E83412B43D31A34000D005EE7002E00D05FE700250024ABE7002B44D0C0430028F0D0FF2EE3D11300FF240D0022E70D00FF2402
:40244000002330E7002C5DD1002B7DD0002A00D117E79B185A0100D456E73E4A040013400FE7002C1ED1002B2FD1002A65D013000D0006E701226DE7002C1FD1002B59D0CA
:40248000C04300280BD0FF2E4FD01B285EDC1D002024C540201A8340581E83412B439B18340058E7002B1CD1002A49D013000D00FF24E6E6130034000D00E2E6FF2E34D065
:4024C0008024E40440422343DFE7002A00D1D8E68027981AFF04074000D14DE7D31A0D00CFE6FF24002A00D1CBE68020DB08C003034204D0D208024201D113000D00DB0079
:40250000FF24BEE6002B10D0FF24002A00D1B8E68020DB08C003034203D0D208024200D11300DB000D00FF24ABE61300FF24A8E601236EE713003400A3E6002700251EE7B3
:4025400080270025FF03E9E613009AE60123A6E7FFFFFF7DFFFFFFFB4302590A4300C20F1B0E00207E2B0EDD9D2B0DDC802000040143952B0BDC9620C31AD9400B005842DE
:40258000002A00D118007047034BD018FBE7963B99400B00F3E7C046FFFFFF7F70B5002830D0C317C5185D40C40F280000F078F89E231B1A962B0DDC9622D21A95406A02A7
:4025C000520AD8B25202C005520AE40702432243100070BD992B19DC9922D21A9540124A2A40690704D00F210D40042D00D00432510103D50C4B1A409F231B1A9201520AFA
:40260000D8B2DFE7002400200022DBE705222E00121AB921D6402A00C91A8A40551EAA4135001543DBE7C046FFFFFFFB8446081C6146FFE71FB500F0BDF8002801D400211D
:40264000C8421FBD10B500F049F84042013010BD10B500F0AFF8002801DB002010BD012010BDC04610B500F0A5F8002801DD002010BD012010BDC04610B500F057F8002858
:4026800001DC002010BD012010BDC04610B500F04DF8002801DA002010BD012010BDC0461C2101231B04984201D3000C10391B0A984201D3000A08391B09984201D3000902
:4026C000043902A2105C40187047C04604030202010101010000000000000000430270B542004C005D0AC30F4802120E460A240EC90FFF2A0FD0FF2C11D00120A24200D08B
:4027000070BDB542FCD18B420DD0002AF8D12800431E9841F4E70120002DF1D1EBE70120002EEDD1E9E70020EAE7C0464302F0B542005D0AC30F4802440A4800120E000EA5
:40274000C90FFF2A1FD0FF2822D0002A09D16E426E4100280FD1002C0DD10020002D09D005E0002801D1002C01D08B4213D0584201231843F0BD002EF7D048424141012041
:4027800049420843F6E7002DDDD002204042F1E7002CDAD0F9E78242E9DC04DBA542E6D80020A542E6D25842434101205B421843E0E7C0464302F0B542004C005E0AC30FD8
:4027C0004802120E450A240EC90FFF2A17D0FF2C19D0002A0BD170427041002C17D0002807D048424141012049420843F0BD002C13D08B4214D0584201231843F6E70220EF
:40280000002EF3D1E3E70220002DEFD1E1E7002DE5D10020002EE9D0EDE7002DE9D1EAE7A242E8DC04DBAE42E5D80020AE42DDD25842434101205B421843D7E7014B1868DB
:402840007047C046381100200E4B70B500251E000D4CE41AA410A54204D0AB00F35898470135F8E712F060FA084B00251E00084CE41AA410A54204D0AB00F3589847013503
:40288000F8E770BD344D0100344D0100344D01003C4D010030B50024A24208D0035D651C0C5DA34201D0181B02E02C00F4E7002030BD002310B59A4203D0CC5CC454013303
:4028C000F9E710BD03008218934202D019700133FAE77047104B70B51C680500A36B002B15D1182000F0A8F80C4BA06303800C4B012243800B4B83800B4BC3800B4B0381BC
:4029000005234381063383810023026143610022A36B1D615A6170BD381100200E330000CDABFFFF341200006DE6FFFFECDEFFFF154B10B51C68A36B002B15D1182000F03F
:402940007BF8124BA0630380114B01224380114B8380114BC380114B03810523438106338381002302614361A46B0D4A206961690C4BFFF7F9F9012200238018594120619D
:4029800061614800400810BD381100200E330000CDABFFFF341200006DE6FFFFECDEFFFF2D7F954C2DF451580EB410B59DB002A9029008610B48822488604861012040427B
:4029C0001FABC881084804CBA400006801938C8100F04AF90023029A13701DB010BC08BC03B01847FFFFFF7F3811002013B5084B040000226946186800F00CF8002802DAC7
:402A000001235B4200930098002C00D0206016BD38110020002370B5064C050008001100236000F015FC431C03D12368002B00D02B6070BD4823002010B5034B0100186826
:402A400000F050F810BDC0463811002070B50500002944D00C1F2368002B00DAE418280000F0C2FB1E4A13681100002B02D16360146031E0A3420DD92268A018834203D10F
:402A800018685B688218226063600C6024E0A24203D813005A68002AF9D11E689819A0420BD12168711858181960824214D110685268411819605A600EE0A04202D90C23CB
:402AC0002B6009E021686018824203D1106852684118216062605C60280000F086FB70BDB0220020032370B5CD1C9D43083506000C2D01D20C2501E0002D01DBA94202D943
:402B00000C23336048E0300000F06EFB234B1C681A002100002913D00B685B1B0DD40B2B02D90B60CC181EE08C4202D1636813601AE04B6863600C0016E00C004968E9E7E3
:402B4000174C2368002B03D1300000F01BFB20602900300000F016FB431C18D00323C41C9C43A0420DD12560300000F03EFB200007220B30231D9043C31A0ED05A42E2506E
:402B80000BE0211A300000F0FDFA431CEBD10C233000336000F029FB002070BDB0220020AC220020F0B58E6885B007000C00039201939E4243D890238A89DB001A423ED078
:402BC00003250969236801985B1A029363695D43EB0F5D19029B6D1001331B18AB4200D91D00530510D529003800FFF77BFF061E14D0029A2169FFF75CFEA289194B13405F
:402C000080221343A38112E02A00380000F0EEFA061E0CD121693800FFF718FF0C23402201203B60A38940421343A38117E0029B2661F61826606561019EED1AA560019B4B
:402C4000B34200D21E0032000399206800F0B7FA0020A3689B1BA36023689E19266005B0F0BDC0467FFBFFFFF0B59FB0029005938B890F0016001B0610D50B69002B0DD112
:402C80004021FFF72FFF38603861002804D10C23029A01381360D8E040237B61002306AD6B6120336B761033AB7634002378002B03D1A31B049312D003E0252BF9D0013483
:402CC000F4E7A31B320039000298FFF76BFF431C00D1B4E06A69049B944663446B612378002B00D1ABE00122002352426A6002A95432521801342B60EB60AB601370AB6549
:402D0000534E21780522300000F04EFA002807D00123801B83402A68013413432B60EFE72B68DA0604D55322202102A8121811701A0704D553222B2102A8121811702278CA
:402D40002A2A03D0099B00200A210EE0059A111D12680591002A01DB099204E05242EA60022213432B6001340BE02278303A092A04D84B4301349B180120F6E7002800D06B
:402D8000099323782E2B1ED163782A2B0AD1059B02341A1D1B680592002B01DA01235B42079310E000230A201A0001346B6021783039092904D84243013452180123F6E775
:402DC000002B00D00792234E21780322300000F0EBF9002806D04023801B83402A68013413432B60217806221B48661C297600F0DBF9002812D0194B002B06D10722059B63
:402E0000073393430833059314E005AB00933A00134B2900029800E000BF07E005AB00933A000F4B2900029800F08AF80390039B013304D06B69039A9B186B6135E7BB8902
:402E40000B985B0601D5012040421FB0F0BDC046F44C0100FA4C0100FE4C010000000000A52B0000F7B5170001938A680B6900900C00934200DA130022003B6043321278D9
:402E8000002A01D001333B6023689B0602D53B6802333B60062523681D401ED0230043331B785A1E9341226892061CD53020E1184331087021005A1C45310978A218433254
:402EC000023311700FE022000123193201990098089EB047431C0ED00135E3683A689B1A9D42F0DBDAE72200019943320098089DA847431C02D10120404220E0062320686A
:402F0000E1683A6803400025042B03D18D1AEB43DB171D40A3682269934201DD9B1AED180027BD420AD0220001231A3201990098089EB047431CDED00137F2E70020FEBDBA
:402F4000F0B58BB006920A0043320793059004920A7E0C00109B6E2A00D1ABE011D8632A22D009D8002A00D1B5E0582A00D0C5E045310A70814A4FE0642A1DD0692A1BD0AF
:402F8000BCE0732A00D1AAE009D86F2A29D0702A00D0B3E0202209680A43226037E0752A1FD0782A33D0A9E00E001A684236111D196013683370A4E021681A68080606D474
:402FC000490604D5111D19600023D55E02E0111D19601568002D3BDA2D23049A6D42137036E021681A68080606D4490604D51568111D1960ADB202E0111D196015685F4BE0
:40300000227E039308276F2A1DD00A271BE022007821453211705A4A19680392081D226818600D68100602D4500600D5ADB2D30702D520231A4322601027002D03D12023AC
:4030400022689A4322602300002243331A7002E00A274A4B03936368A360002B09DB0422216891432160002D05D1049E002B11D07BE0002D79D0049E28003900FEF784FD08
:40308000039B013E5B5C280033703900FEF7F6FC051EF1D1082F09D12368DB0706D563682269934202DC3023013E3370049B9B1B23612BE009681A68080607D4490605D52C
:4030C000111D19601368A28A1A8004E0111D1960136862691A600023049E236116E01A68111D1960166800216268300000F05CF8002801D0801B6060636803E026004236B8
:403100003270012323610023049A1370079B09AA00932100069B0598FFF7A4FE431C02D10120404227E02369320006990598079DA847431CF4D0236800259B070FD4099BBD
:40314000E068984217DA180015E022000123193206990598079EB047431CE1D00135E368099A9B1A9D42F0DBE9E72600039B42361B7833708EE70BB0F0BDC046054D0100BB
:40318000164D0100002370B5064C050008002360FDF756FA431C03D12368002B00D02B6070BDC04648230020C9B28218904204D003788B4202D00130F8E70020704710B5BA
:4031C000884202D98B18984201D3002305E09B1A013A08D3995C8154FAE7934203D0CC5CC4540133F9E710BD70477047F8B506000C001500002904D11100FFF773FC0400D8
:4032000018E0002A03D1FFF721FC2C0012E000F013F885420ED929003000FFF763FC071E07D021002A00FFF744FB21003000FFF70DFC3C002000F8BD0B1F1A68101F002A2E
:4032400004DA891804390B68D01804387047000058220120014B40421A60704748230020134A1088810703D08107890F401A001D11791030484381B25088820703D08207F3
:40328000920F801A001D800040180A494030098980B2CA0701D0503080B2890706D504495422091F09785143081880B270470000860D00208C11002010B501F00DFF10BD90
:4032C00010B501F00FFF10BD10B500F05BFA10BD10B50749044609780220002907D1204601F050FF002802D120460AF089F910BD240F002070B504460120002C12D0236897
:40330000002B0FD0616800290CD0074D06222889208118462968FFF7CCFA6968606809780170002070BD00008C110020FFB585B0002768460E9D07734F481C46007800282B
:4033400002D0082009B0F0BD10990F9801900095029105A807C800F007F90028F2D16946264603AB84460873002C19D0002115E08A00B75A082F09D990198078002805D002
:40338000083FB7521878401C187005E0002914D00027B75290198770491CC9B2A942E7D360460028CED10F98002809D0109901F043FA002804D00120C4E701208446EFE78D
:4033C00001F090FE2D480021416081600599016021888180022D07D3A1798171A17AC171A1890181218A418100211EE0481C19E082008B00A75AE65ABE46BE4211D26F46AC
:403400003E80B4461E190296B678BE7001967646E6521719029EBB78B3706646A652019EBE70401CA842E3D3491CA942DED3134822460C3000906846037B0799069800F0A1
:403440001BF90028B8D168460B4C007B60700B480C3001F077FE0028AED1084907480C3107F0A4F90028A7D107F0BEF90028A3D10121217066E70000800D002080110020E2
:40348000F8B5054636480F460078002802D002242046F8BD002F60D000243249002D16D02A89D0070DD02868002808D003881B3BE12B04D24088FB2801D81B2801D20124C4
:4034C00009E0900707D56868002804D1F7E70020088108604860002CDAD122482E8906811F481B21801D01804180042101711C490020891C0870F00705D019480622801DE0
:403500002968FFF7D6F91749B00703D56A68144812788270124D0E46AD1D281F0D60486001F056FE284601F045FE30890DF0D8FD30890CF0C1FF28880CF0C4FF30890DF0B7
:4035400039FF03461033FFF78BFE1F21C018890140183880A91F88809AE7012498E70000800D00208C110020FFB58446384F1C460020BB883F78054602460646002F11D186
:4035800000290ED0029999420BD36146002908D0002C06D00A99002906D02E4B0B99994202D2012004B0F0BD002144E0AB001F19BF78002F3BD0E35A002B38D07B435918DE
:4035C00089B22B0000F04AF8050410161C253100A7782388BC46FF27233BEB37BB4222D26346032B1FD322E0A388002B1FD0302B19D31CE02389002B19D0282B13D316E0ED
:40360000A289002A13D01346134F233BBB420AD20DE0268A002A0AD033460F4F233BBB4201D2964203D901200EE0002001E000280AD16D1CEDB2099B9D42B7D31C246343D8
:403640005B1802998B42ACD89642AAD8AAE70000800D002079020000BAFF000030B47446641E2578641CAB4200D21D46635D5B00E31830BC18470000FFB583B000246946A5
:403680000C801F4606468C80002806D00598002803D004983043800701D0012466E0002FFBD03449049809888842F6D3FEF77CF9FEF76AF900F012FC002855D100F07AFDAD
:4036C000002851D12C49084601F0EAF805042D0C4AD12A480499066081800021C18007810C98007AC00704D0684601F014FD040007D10C98007A800703D501A801F014FDC0
:403700000446BF1DFEB2002C20D13146059800F05DF804001AD10DF05BFE040016D16A461088928808368518144AF1B29088D288AEB29319984207D3401B801A80B201F085
:403740009FFB050007D000E0FF25012400F05EFA002D04D008E0F8B200F01CF9F6E700F081FA07490120087000F0CAFB204607B0F0BD0000840D0020B938000098110020AF
:403780008C0D002010B503480078012801D101F019FA10BD8C0D002070B5084B0446DA889E8803205518B54206D8186880182060D8884018D880002070BD000098110020D6
:4037C000014800897047000098110020F0B587B007460D4600208900009006916846FFF7DBFF844600285DD1304800990160002117E02E4B88001A680629115406D22C4C9C
:403800000419667882185670628805E0C419203CA67A8218567022891B68C018491C4280C9B2A942E5D300242DE0601CC2B2059025E01E4FA3003968960058184088711897
:40384000039604904E88B04217D938466F46FE80B6464F786E4677710297049F4F800168039F5E18767879184E700168764659184E800068029F18184770521CD2B2AA4258
:40388000D7D30598C4B2AC42CFD36046002809D168460699FFF780FF8446002802D1054900980860604607B0F0BD0000900D0020604D0100940D00207047000010B5002864
:4038C00009D005494A68002A05D0011F08788000105801F083FA10BD900D002010B50446FFF76EFFC0B2801DA0420CD307484068002808D0A100405801F0E2F9002801D039
:403900000470001D10BD002010BD0000900D0020F8B516460D460446FFF752FFC0B2801DA04203D20020C0430090F8BDB2B2E9B2684601F0EBF90099481C03D0024AA00026
:40394000526811500098F8BD900D0020F8B50746FFF736FF801DC6B20A49002005460C680DE06178002907D06188B94202D32078FFF7B4FF002804D1241D6D1CEDB2B54299
:40398000EFD3F8BD900D002010B5002801D0FFF795FF10BD70B506460948002504680BE06178002905D062882078121D0023FFF7AFFF241D6D1CEDB2B542F1D370BD0000E0
:4039C000900D0020FFB581B00A9F16000C4620D000F0F2F8054604281BD0002F0CD03846FFF7B4FF20492A0151184860002810D03A460499FEF75DFF1B4928010E50461852
:403A0000778101980570200406D47D20C000444304E0FF2005B0F0BD6404640C00F0BAF80746042807D000F04FFAA0420BD800F04BFA201A03E0204600F0AAFA0020F060B5
:403A400035720020E6E700F03FFA009000F0B6FA00980121001B009000F0ECF802493A0151180098C860E6E7A4110020F8B5060116483418217A042903D0E068002802D094
:403A800017E00020F8BD00F01FFA054600F096FA00F0A0F804280CD001010C480F18F8680021451900F0C6F80020F860284600F06FFA6068054D002801D0FFF765FF0420FC
:403AC00020720020A8516081E060DAE7A4110020FEB500266A46304601232549050169180D7A042D02D0C96800291BD000211154401CC0B20428F0D300246846005D0028E3
:403B000030D01B48210108184189476805680291002101604160042241810272C160002E02D015E01354E3E700F054F804280ED001010F4808180190C6680021304600F09C
:403B400079F801980021C160304600F021FA0126002D07D038460299A847002F02D03846FFF712FF641CE4B2042CC6D3FEBD0000A41100200EB5002005216A460090118175
:403B800050810348694600680EF087FA0EBD0000980D0020074A0020010189180B7A042B02D0C968002903D0401CC0B20428F3D370470000A41100200549002002015218D5
:403BC000127A042A03D0401CC0B20428F6D37047A411002030B50A4B04200A4C00210A011219157A042D06D0D268002A03D09A4201D808461346491CC9B20429EFD330BDF9
:403C0000FFFF0000A41100207047000030B50020074C05460423020111190B72A5504D60401C4D81C0B2CD600428F4D330BD0000A411002030B5094C00231A011219157A34
:403C4000042D04D0D568002906D02D18D5605B1CDBB2042BF1D330BD2D1AF7E7A4110020002070471CB5002469460C70142001902346054A05480EF015FA04480068401CCD
:403C800000D1FF2420461CBDE13C0000980D00203EB5124A0146FF2000230124126800290DD0012914D0042908D104206946009308814B8110460EF0F0F980B23EBD68468B
:403CC000009304814381694610460EF0E1F9F4E768460093048143816946EBE7980D002070B545890468416800890300FFF7B6FC08280509091E22282628002005F008FC0E
:403D00001EE0022908D0C8B22A4621460CF028FB2046FFF739FE13E002202A4621460CF01FFB2946204600F00DF809E000200DF0B3FE05E02046FFF7CBFE01E0FDF756FEC9
:403D4000002070BD014B0022DB6818479C0D002070B5448905680089022803D0032809D0FF2070BD2246094C0023A46829460120A04708E0FFF7A4FA241DA2B200232946E2
:403D8000022006F0C6FB002070BD00009C0D0020704700000248002141600180418070479C0D002070B50C46002186B016460391012802D0022859D116E003A9012006F0C9
:403DC000FDFB01281BD1039D324621462846FEF770FD0095287801900220694608814E816846FFF7B5FF41E0214D002B686809D0049004A9022006F0E1FB01281DD0022050
:403E000006B070BD002812D0298840182146FEF750FD28880024801980B228806988091D884206D12C801348FFF792FF03E00320E6E788421AD96C6018E004986860E27844
:403E4000A378110219430B4A698000231060E3565360032313815181A1788170E178C1706178417021780170042028800020C7E79C0D0020E41100203EB515460C46022805
:403E800003D004280CD000203EBD0091019002206946088107484A8100680EF0FEF807E00CF05EFA044B0022DB6829462046984701203EBD980D00209C0D0020014AD16051
:403EC000906070479C0D0020034801688068081A0A21484300097047F011002010B5FDF757FD4C2204490548FEF7E3FC03490120C870002010BD00007C4D0100F41500208F
:403F000010B5FDF73DFD10BD70B5134C2368002B08D0207B1149C20705D04008400020738868A08070BD88680B4AA18880B29268814203D90A4D691A091802E0814202D217
:403F4000411A5118A160A080A0689842EAD30EF0C1F800F013F870BDF0110020C0102E40FFFF000010B508461946FFF7A7FF10BD704710B5FFF780FF10BD0000034800217C
:403F8000016041608160C16070470000F0110020024610B5FF20002A0CD0FFF7EFFF064C0321207B0843207310010A21FDF7ECFD2060002010BD0000F011002000B5044878
:403FC0000A21806848430209FFF7D8FF104600BDF01100200248007B8007C00F70470000F011002010B54B490868002802DA4A4B01221A700222904308604848006945492F
:40400000C00B4031096A0246C907C90F0A4259D0012000F097FA3F480E216C30FDF70CFC3E4820218430FDF707FC3C4814219C30FDF702FC3948FF21C131A430FDF7FCFB41
:404040003648FF212F31B030FDF7F6FB33483449BC30FDF7F1FB31483249AC30FDF7ECFB30492E48491CB430FDF7E6FB2B482E49B830FDF7E1FB29482C49CC30FDF7DCFBB2
:4040800026482B490830FDF7D7FB24482949A830FDF7D2FB214828498830FDF7CDFB1F4826498C30FDF7C8FB1C481921C9029030FDF7C2FBFDF7C2FBFDF77EFCC0B202287D
:4040C00012D01FE000290BD0002101420AD0114801216030FDF7B0FB0120FDF74DFC97E70121F2E7FF2010BD15491648FDF7A4FB14481549001DFDF79FFB124800210830C9
:40410000FDF79AFB54200449C043891C0870002010BD000000F02E40AC0D002000002E40320300002F3F00003102000010520000EC160000FA12000031D000003AE300001F
:404140009956000080012E40F80F000070B50646581C80B245086D00002408E0304600F0C1F81055000A1119A41C4870A4B2AC42F4D3D80705D0D0182038D15CC47FD454B6
:40418000C17770BD30B50A4C002100195B1E07E0541864782502545C2C430480891C89B29942F5DB994201D1515C018030BD000000102E4010B5FF2000F0C4F90F49FF20DA
:4041C00048700E481021801D41800121417001700A490020C91C4870FFF704FF04000AD100F010F907210648FDF724FB044807211830FDF71FFB204610BD0000AC0D00209E
:40420000CC112E4070B5002405465B1E0AE0284600F068F8010A161971702D1D1055A41CADB2A4B29C42F2DB9C4203D1284600F059F8105570BD000070B500210A4D5B1E8B
:404240000AE0541864782602545C344346193480001D891C80B289B29942F2DB994202D1515C4019018070BD00102E40F0B50599091FCFB200217E1E0BE0541864782502F0
:40428000545C2C43164D45192C80001D891C80B289B2B142F1DBFC0712D01C78515C24020F4A0C4381180C809C785D78001D210280B2294384182180001D80B2D9780CE0DB
:4042C00059781A7809021143054A84182180001DD9789B78090280B2194380180180F0BD00102E40014940180088704700102E4010B50B490020487000F084F8002000F046
:4043000047F9002000F034F907210648FDF792FA044807211830FDF78DFA002010BD0000AF0D0020CC112E4010B50B46062812D006DC01280CD0032801D1FFF7D9FF10BD1A
:404340000A28FCD00B28FAD105480078107010BDFFF730FF10BD1146184600F035F910BDB20D0020F8B5244DAC6A0127A007234E002816DA307806280ED1286A38432862E6
:404380001F480069F903084381B21D481030FDF753FA042000F0D6F8174802212830FDF749FAE00718D000F01FFF01280FD1002000F06CFF062000F0C5F81049FF20C91E47
:4043C00048707078002802D1686B384368630A4801212830FDF72EFAE0050BD53078042802D1052000F0AEF80348FF2101312830FDF720FAF8BD000040F02E40AF0D0020C8
:4044000000002E4010B503212348FDF715FA0120FDF7AEFA20483038406A204C80076178800F890001431C480C38FDF705FA6078002808D0401E022181401820FDF78EFCED
:40444000C000083800E0B82081B21548FDF7F4F91348032109021438FDF7EEF910481149B830FDF7E9F9612189010F48FDF7E4F90D480321001FFDF7DFF90C490C48FDF7BD
:40448000DBF90B480B496038FDF7D6F9084801218838FDF7D1F910BD70F02E40B20D0020D8102E4090890000041E2E40FF0F000058122E40209000000848017806290BD153
:4044C00040780749002803D1486B400840004863C86A01221043C86270470000AF0D002040F02E400148007870470000AF0D002000B50300FFF7B2F8080D050D0B070507DE
:40450000090D012000BD032000BD042000BD022000BDFF2000BD0000074A9168D26889B2064B92B2994204D105498A4201D1012100E000210170704780002E4033D00000DF
:404540003FE3000010B50446FDF71EFA072C01D9FF2C01D102480470FDF712FA10BD0000AF0D00200149487070470000AC0D002010B5064A012805D01921C9021046FDF799
:404580005BF910BD1D21C902F8E7000090002E4010B50A4A141D012808D009491046FDF74BF908492046FDF747F910BD04491046891CFDF741F90349491DF3E788002E4019
:4045C00031D000003AE3000070B50C460546FDF7F3F9C0B202280E49287804D0FF2810D04C280CD810E0FF2809D10A4AD0680004800F032801D0087807E09069000A553832
:4046000003E00878207070BD4F382070087070BDAE0D002000002E40F0B50122002834D0002932D00424420600D00524792342065B06D21800D0641C034600221EE00C25B4
:4046400016466E43124D00277519AF72104F002ABB51696007D0661EB24209D10D4E86197606760E05E05E06760E8027BE1B00E080269B198919521C2E81D2B2A242DED318
:4046800003480549006B002288611046F0BD00007C14002079020000B80D002018B50020694608700A48006900280ED0132149014018047E684604704F21C900054800F013
:4046C0005BF8A04201D0012018BD002018BD0000B80D002000120020074900200C2242435218927A012A05D0401CC0B20628F5D300207047012070477C140020F8B50F003A
:404700000446164609D01A4D1A496868A04202D94018A04201D38E4201D90120F8BD39462046FEF7B7F8002820D0324639462046FEF7BFF80E49F0B2012620318E760021D5
:404740000C220B4653430A4A9A1813895568EF18A74207D9641B1B1B9672834206DAC01A1469C0B2491CC9B20629E9D30020F8BD7C14002079020000034610B50020024689
:4047800004E09C5C2018521CC0B292B28A42F8D310BD000070B500F05FF8084C064A216907480D46FEF785F805492846FFF734FFFFF774FF207070BD79020000B80D002044
:4047C00000120020002070470020054A002902D0012902D002E0906000E0D06000207047B80D002070B5084C154608460549E26889182A46FEF75DF8E0684019E06028B2DC
:4048000070BD000000120020B80D00203EB50A226946FFF7E7FF044606480A2200686946FEF738F8002802D00020C0433EBD20463EBD0000BC0D0020002802D0044A91420D
:4048400001D2FF20704703494A6108610020704779020000B80D0020024800218160C16070470000B80D002070B5074C15460548A26880182A46FFF741FFA0684019A06026
:4048800028B270BD00120020B80D002010B503490A220968FFF7E8FF10BD0000BC0D002010B50F4A002313600E4A13600E4B18600E4801600E49012008600E4908600002F1
:4048C00090600E490C4808600D4914300860FF381538506000F0BCF800F0CAF9002010BDEC0D0020D40D0020000E0020040E0020F00D0020E00D0020C4150020E40D00208D
:40490000F80D0020014610B50020002910D0094B1A689C685118A14209D25868196080188A0704D08A07920F891A091D196010BD002010BDD40D0020F8B50024164E671EFD
:40494000321F3D463168136806E01422624310328A58521C1BD0641C9C42F6D36A1C14D02C461422544322460C3288500C214843FFF7C8FF3168002808510AD031680020A1
:40498000103408517068401C70602846F8BD2546E4E73846F8BD0000E40D0020F3B50026F64381B000281BDB1E490968884217D80299002914D01B4F142204463F1D54434D
:4049C0002546396810354859401C09D0FCF7DCFF38682F1F4159C359994203DBFCF7D0FF3046FEBD214608310091465801590C20704308180C220299FDF75BFF0948761C50
:404A0000001D0068C159B14200D100260549009A091D865008684159491C4151FCF7B0FF0020FEBDE00D0020002803DB07490968884202D90020C043704704491422091D8F
:404A4000096850431030085870470000E00D0020F0B500200D4A451E0346171F50600FE014260146714314680E1DA3510C461668083433511668083435511468401C635006
:404A800039688842ECD30020F0BD0000E40D0020F3B50026F64381B0002841DB2349096888423DD8029900293AD0204F142204463F1D54432546396810354859401C2FD0B9
:404AC000FCF762FF3868415900292BD0211D009146580C21005971430F46C1190C220298FDF7E7FE11480021001D0068761C00590C34C0190160416081600C48001D0068CE
:404B00000159B14200D100260849009A091D865008684159491E4151FCF732FF0020FEBD3046FEBDFCF72CFFFAE70000E00D0020FEB504460D4600201E49089E0860471EC1
:404B4000009001900290002C11D0486885420ED2002A0CD0002E0AD0642E08D808460C3001681C2068430C18207A002801D03846FEBD0120226020721846FFF7DDFE6060B0
:404B8000401C13D06681A6810A4827610C3067610179A94200D205710021684601810A462846029B00F040F82846FEBD00202072DDE70000EC0D002038B50124009400F0FB
:404BC00039F838BDFEB50027164EFF433D4600240EE01C20316860430818017A002906D04068FFF721FF002801D0254603E0641C3079A042EDDA681C12D01C2130684D43C6
:404C00004419FCF7C1FE69466068FFF741FF0546FCF7B6FE002DD9D1216868468847D5E7FEBD0000F80D002038B50024009400F001F838BD1FB500220C49541E0A6000287B
:404C400011DB496888420ED808491C220C31096850430818406801A9FFF7A0FE401C02D0002004B010BD2046FBE70000EC0D0020F0B50021114A4D1E174611710C3F0B46DA
:404C8000BD6016E008461C2460431668041D355114680646235014680836A3551468361DA353044616680A34335318301468491C255078688142E5D30020F0BDF80D002062
:404CC00038B500210091002811DB0F49097888420DDA0D4D04010C3529680859002807D0201D0818694600F06FF9002801D0002038BDFCF749FE28680F34015D491E01554C
:404D0000FCF73EFE009838BD080E0020F7B582B0002502986E1E06602E48D21C024017462D4A2C4610460C380178106805E02301C358002B0FD0641CE4B28C42F7D3711C12
:404D400028D03401211D40180191039900F02AF900281FD101E02646F1E71F48016820460C300F521C480399026820460E30115419480399026820460F30115403987843E5
:404D800000F0A0F8144900280968085102D00024009011E001251AE00F48016801980818009900F02CF9002801D0012502E00098C0190090641CE4B203988442ECD3002DF9
:404DC00005D10298066004480179491C0171284605B0F0BDFCFF0000140E0020F8B50D4600216A468C461180002839DB23490978884235DA214B04010C3319680A59002A3F
:404E00002ED020460C300B5A801C0E5C184670438018954224D3854222D2002006E007465F43BF18AF4206D0401CC0B2B042F6D36046002814D0114E271DC8190C366A46F1
:404E4000294600F006F900280AD168460088012808D030682946C01900F0D1F8002803D00120F8BD0020F8BDFCF78EFD30680F34015D491C0155FCF783FDF3E7080E002066
:404E8000F8B50F46002400F031F8002817D10C4900220B460C334A600EE021011D680E466A501D680C36AA53B61C1D680F31AA551D68641C6A54E4B2BC42EED31A71F8BD9D
:404EC000080E002000280BD0C01C074A81085068890053884118994203D89368516018187047002070470000080E0020F8B5064600200F4D009029700C0121466846FEF743
:404F00004BFC00280CD129460C3100980860301B001F84B221466846FEF73EFC002801D0FF20F8BD6C800098A8600020F8BD0000080E0020F8B5002827DB194909788842AD
:404F400023DA174C05010C342168485900281CD028460C30085A009028460E300E5C401C0E5420682F1DC01900F064F800280CD12068002445590EE0094829460C30006843
:404F8000C01900F03CF8002801D00120F8BD00982D18641CE4B2B442EED30020F8BD0000080E002030B50D4604000BD0A800FFF789FF6060002805D000202570C0436080DE
:404FC000002030BD012030BD70B50D46040005D0002D03D00220205E002801DA012070BDFCF7D2FC0221615E60688900405828606088401E6080FCF7C3FC002070BD70B5F6
:405000000D46040007D0002D05D002212078615E401E814201DB012070BDFCF7B5FC6088401C00B26080616880000D50FCF7A8FC002070BD10B5040009D022780021606852
:40504000FDF740FC0020C0436080002010BD012010BDF0B500231D46002802D00224045F0AE00120F0BD46689F00F6598E4201D1012503E05B1CDBB29C42F4DA1570002020
:40508000F0BD000001480078704700001C0E00207CB505460024FEF713F9A8796946087000A8062229460130FDF703FC0021684604F0F4FC0C2806D0072806D01F2806D056
:4050C000122806D006E0022404E0042402E0272400E0012420467CBD01480121417270470017002010B500F05FF9FFF7FBF9FFF7FFF910BD70B504460025FEF7E1F8002C6B
:4051000006D0A079012803D8214602F081FC00E00125284670BD01460120002902D05020088000207047000001460120002905D00348542200785043088000207047000042
:405140001E0E002010B502460D49FE204870032410460DF0C5FA002810D10DF069FA00280CD105F087FA002808D100F013FB002804D104F039FF002800D10024204610BD15
:405180001C0E002070B50025044600280ED0A07901280BD8FEF794F8A0790028204602D002F0C8FF03E002F09DFF00E00125284670BD0000014610B50120002904D00622CF
:4051C0000248FDF776FB002010BD0000280E002001460120002903D00878024908700020704700001E0E00200148007A704700000017002038B504460120002C20D06178F5
:4052000001291DD800290BD0FF25E535FEF758F80C4828180088C0B22070072803D00EE0FF25CD35F2E70020694608706846FFF773F969460878012801D108202070002062
:4052400038BD000000102E40014A0021926810471C0E002008B500226B461A7026280CD0094A342852680BD0352805D1900703D50021352005F0DAFA08BD19462620F9E701
:40528000D007F9D03420F5E71C0E0020014908727047000000170020F8B504460120002C26D06178012902D92278092A20D8002905D0FF25E5352078092803D004E0FF2565
:4052C000CD35F8E708202070FDF7FAFF2078114F114E08280DD00020FFF75AF970780128207810D00D4969180880FE2070700020F8BD0120FFF74CF90720B8810549203145
:4053000088800120F2E7B8810248217820308180EBE70000C0112E401C0E002000102E4070B50E46050001D0002400E00C4C002C11D0E28A500609D5D107C90F022002F009
:405340008DFFE08A40218843E08204E0D107C90F012002F083FF3146284602F067FC70BD60160020F8B50546002004460D4E009013E022466946284600F0E0FF009800282F
:4053800001D00DF08FF9A878214602F0A9FAA878214602F097FA641CE4B2308AA042E8D8F8BD00002C17002038B51E4CFFF79AF8042813D0052811D0062812D003282AD0B6
:4053C00007280AD100206946087002460120FEF7ABFFFFF787F80128FBD138BD00F077FB38BD02F0D3FA00F072FB02F033FB8007800F0228F4D10C4841880029F0D05B21DB
:40540000095D0029ECD101210170A07D0140022002F024FF38BD02F0BDFA0120FFF792F838BD000060160020420E0020F8B50646002402F081FF0546304602F097FF03469D
:405440000A480021068A0DE001228A401046174628401F40002803D0002F01D1224394B2491CC9B28E42EFD82046F8BD2C1700201CB50020694648706846FFF7BBFE01AAD9
:4054800069460A20FEF750FF6946042008561CBD70B50D4601F038FB04000BD02079002808D0FDF70DFFE178A0782A4602F044FC002070BD022070BD014800797047000089
:4054C000341600204030C07E002800D00120704700B500F001F800BD902148430749084A40186030417F491CC9B24177D289914201D300214177C8B27047000040160020C9
:405500002C17002013B501F0FFFA04000BD001F09CFE002807D0214601AA0A310620FEF703FF00201CBD02201CBD000010B50C4601F0EAFA00280AD001F087FE002806D02D
:40554000224604490A20FEF7EFFE002010BD022010BD000021160020F3B581B0074601460026029802F0E0FE0446002F01D0002500E0154D002D21D0284601F0FBFA032CE8
:4055800004D13946029802F02BFF06463846029902F098F9032C06D0002C10D00121384601F0EEFB03E03146384603F01FF9284602F07CF80221284602F092F8FEBD384671
:4055C000029902F07FF9FEBD6016002010B5044600F066FA002804D103F0DEFD002801D00C2010BD2078611C02F0ACFCFF2801D01F2010BD02F0F2FCFF280AD02178621C8E
:4056000002F0EEF8044821780068026B601C904710BD072010BD0000680E002010B503F0BBFD002801D00C2010BD02F06DFC03480068C06A8047002010BD0000680E00204A
:4056400070B50D46044610210CF06CFF1021601806460CF067FF334610221946204603F0C9FD102130460CF05DFF02202870204604F0F0FB70BD0000F8B5044640782178DD
:4056800002028006870FE0781143A67809050002090D0643084601F037FA00210546F2B2002812D0002C10D0022F0ED0032F0CD0002A0AD00279092A07D0002A05D0134AF9
:4056C0005A23527F1B5C9A4207D82889002104F0F6FA20460CF0E6FFFF21002914D10C48224600682946436930469847C0B2FF280AD128464030817EF2B2491C8176FF23F8
:405700002146284600F0E3F8F8BD0000F4150020840E00200020704710B5044603F03CFD002801D00C2010BD2078611C02F00AFCFF2808D002F03EFB044821780068426B04
:40574000601C904710BD1F2010BD0000680E002010B500F06BF904F047FC002010BD10B5044600786178E2780843A17811430843217908436179084305D003F0FFFC002878
:4057800003D00C2010BD122010BD204602F0D2FC002010BD10B5FCF70FF902F0EFFD044803F066FD02F010FB012000F003F810BD08160020F1B586B003A8009005A8019062
:4057C00028489F22017B114001736846FDF792FD002845D169460989C90705D0224806990068C2686846904769460989890706D5002835D11D480068816A0698884700289B
:405800002ED11B4E0025757075737571F575357675767575B570F570B5713746F5730120D03738731F20F880FF2130467972A0300176457600F0CAFA00242046069901F0CE
:40584000AFFC002803D1641C2406240EF5D0FD720749BD72B573C0310D704D704D600D7207B0F0BDF4150020840E0020680E00204016002070B505460E46084602F05CFDCB
:405880000446304602F072FD0121A9400A46224001400A4301D0012070BD002070BD10B50446084602F062FD0121A140014201D0012010BD002010BD10B5FEF713FE03287A
:4058C00004D102F067F80120FEF73CFE10BDFEB51C4616460F46054601F0E8FEA878FFF7F7FD02460190334639460094284600F00DF8002808D1A8780199FFF711FDFF2CC1
:4059000002D138460CF0CEFEFEBD0000FFB585B005460E980C46FF2810D02B49C00009680A5840180179C0795278814201D9012601E09006860F6846038108E06078A178A9
:405940008006860FE0780002014368460181284601F086FC070007D021462846079A00F081FC384609B0F0BD304600F02FFD04AE0346039002AA29460096204600F0BBFBDB
:405980003C20405D002818D0284601F069FC012813D0684600890096C0B20190A878231DFF22079902F0F6F868460089039BC2B2A878079902F03AFCD3E7684600890021FA
:4059C000C0B20091E9E70000800E0020F8B5002600253046FFF72AFD07001DD090201149704340186030447F12E0601CFCF7CCF8CCB23846E040C007C00F07D021463046B4
:405A000001F058FF21463046FFF7A6FD6D1CEDB20548018AA942E8D8761C3606360ED7D0F8BD0000401600202C17002010B502F0CBF90020FFF7BEFE0CF0CAFE002010BDB8
:405A4000F8B5002400F0B2F80123012800D10124104F00203E4620360425082203E0002801D0002100E031460979002907D001290BD002290BD0114681402143CCB2401C95
:405A80000006000EEBD07C70F8BD1C43F7E72C43F5E700004016002010B5FFF7D1FF10BD10B5044604F0F2FB002802D1601C00F001F810BD1CB5002400940622694601940E
:405AC000FCF7E8FE002800D1122420461CBD10B5FBF797FC0446FEF705FD012809D0FEF701FD022805D0FBF7B7FF2046FBF78DFCEEE72046FBF789FC10BD10B50B468179C8
:405B00001943817103D08078114602F05DFB10BD10B582798A43827102D1807802F068FB10BD000030B50C4C0220A28A0B4B9978002901D0022906D11D785B78EB18282BC5
:405B400001D9032002E0032900D101205105490DC0020143A18230BDC0112E40380E002000B500F029F8002807D0012805D0032801D0042801D0002000BD012000BD014603
:405B800000B50020C90701D000F010F800BD014600B50020C90701D000F008F800BD00000148006870470000300E002001480088000A704720102E400448008B410501D567
:405BC000042070474007800F7047000000102E400148406870470000300E00207CB50446002568460570200610D5FFF7E5FF01280CD101A801F0D4FE6846007900F036FB57
:405C0000012001F0BBFD0220FFF746FF600712D50C48017901290ED10571684601F0C0FE6846007800F056FB0220FFF735FF00212620FFF70FFB04480068016920468847D8
:405C40007CBD00003C0E0020680E002010B501460A4A007800241070FFF7A8FF0128084603D002F0D3F9204610BD00F0E7F80400F9D1034801210170F5E70000380E0020DA
:405C80000017002070B50446FFF790FF002801D00C2070BDA27B01211F48002A827801D00A4301E05208520082706279012A14D0C17849084900C170184D2868016820464E
:405CC0008847207901280CD06188208803F012F82080207904280FD015E0C2780A43C270EAE72868C168E01D8847E01D02F00EFA0B48008D208006E02868C168E01D88477F
:405D0000E01D02F003FA074920798870204602F08BF9002070BD000040160020680E0020F4150020380E002008B50178FFF73EFF814201D10C2008BD002914D00720694600
:405D40000870FFF70DFF012807D10121684600F0E5F8012801D0092008BDFFF7E3FE02F097F9012011E0FFF7FBFE012806D1684601F016FE6846007800F0ACFA02F07EF9F1
:405D8000FFF714FF0028FBD10220FFF785FE002008BD000010B501460A4A007800245070FFF704FF0128084603D002F0EDF9204610BD00F065F80400F9D103480121417023
:405DC000F5E70000380E00200017002038B568460CF0FEFB002801D01F2038BD01210098C90201804180002505714571857107214173857302F018F9009C20220021204623
:405E0000FCF760FD25702A460021601CFCF75AFD204602F0FBF8204602F0B6F900980CF041FC062200210448FCF74CFD02480C388560002038BD00003C0E0020F8B5044649
:405E400000250D4800950078012806D068460CF0BFFB002803D007250CE00C250AE0074E009830602278611C401CFCF722FD3168207808702846F8BD00170020300E0020A7
:405E8000F8B5044600250D4800954078012806D068460CF09DFB002803D007250CE00C250AE0074E009870602278611C401CFCF700FD7168207808702846F8BD0017002052
:405EC000300E00200346084800B5834209D8184600F01AFE002804D00089984201D1012000BD002000BD0000FF0E0000074A9179491C8906890E917138220A409201490782
:405F0000090E1143084302490840704740160020FF0E0000C006C00E70470000F8B507460E4600240D4803E0002C01D0002500E005462979002905D0641C2406240EF3D05D
:405F40000020F8BD0021204601F02AF92E712046FFF7CCFF28813C700120F8BD6016002010B503F07BF90222002100F003F801F0D7FE10BD10B5094B40074907000F090F64
:405F8000185A595A40185043C0086421FBF7FCFD002800D1012080B210BD0000C84D0100F7B53D20405C88B015460C46002802D02878042802D200200BB0F0BD6946087295
:405FC00000262046FFF77EFA012800D00126204603A938300191009023460327A17E34333246206A03F05EF902A8089900900B46019120463A4603A9243003F0DBF80246D4
:406000006846007A2870204601F0B6F81046D3E7FFB587B00C4605461078694608723D20005D1746002826D000262046FFF74AFA012800D00126204603A93830019100909B
:406040002346A17E34333246206A03F02BF902A80090291D019120462B1D03A924300A9A03F0A8F802006846007A388002D1204601F082F810460BB0F0BDF0B505463C2091
:40608000405C89B016460C4600280CD0307869460873002806D000272046FFF713FA012803D003E01F2009B0F0BD012703200890204604A93830019100902346E17E3433C6
:4060C0003A46E06903F0EEF86846007B03A928180290009120462B46019504A92430089A03F09CF802466846007B3070204601F04DF81046D7E7FFB505463C20405C89B03E
:4061000016460C46002810D0084601F0A9F801280BD0308869468883002809D000272046FFF7D0F9012805D005E000200DB0F0BD0220FBE70127204603A9383001910090D1
:406140002346E17E34333A46E06903F0ABF8291D2B1D07A8129A6D4607C5204603A924300C9A03F05BF802466846808B3080204601F00CF81046D9E770B50D460446FFF7FD
:40618000A1F901280AD0E87AA97A00020143A07801F0C2FC012808D0002070BD00222421204602F0F9FC242070BD28214C200155204600F0B1FB282070BD0000002801D0C2
:4061C000002000E003484030C07F012800D0002070470000601600200146002049070ED50021084B03E0002901D0002200E01A461279022A04D0491C0906090EF3D0704762
:4062000001207047601600200146002049070ED50021084B03E0002901D0002200E01A461279022A04D0491C0906090EF3D07047012070476016002010B50446803460681A
:40624000002803D00CF042FA0020606010BD4030417070474030817070474030017070470171704792001018C166704770B53C2501F09CF9040004D020460021433001F026
:40628000FFFBFF222946204600F0E8FB002C02D0A07801F00DF970BD10B5002801D0002000E00348002802D0008903F04FFD10BD6016002010B5002801D0002000E00448A9
:4062C000002804D00179072901D100F047F810BD6016002010B501F069F9002802D0807801F0E6F810BD00207047000070B50546008A00281ED01049F122097B1140C906F7
:4063000018D5294640314A8A098A521C4A4392B2D10800D10121540801E0621A94B2A042FBD9FEF7AFFE012804D1298AA878224601F0B8FC70BD0000F415002010B50023AB
:40634000054C0B60248A944204D992001018C26E0A60C36610BD00002C17002038B5044600200090A079002814D14020015D052901D00E290ED168460CF03AF9002809D194
:406380002046009902F0E6FB03481021428B2046FFF7B3FB38BD0000F415002010B50B4604460146184602F04FF8002802D020460CF082F910BD13B5044601AA114606207E
:4063C000FDF7B2FF6846818861811CBD002800D10220704770470000F8B504462346401D543300909A1EA078911E01F0F5FA25464035A88A298A8000FBF7C6FB401E81B241
:40640000688A884203D96982A07801F061FF698A8C20015120460021433001F031FB27480088E88102F01AFFE989891C8AB26179FFF7A0FD01F074FC02F010FF2A8A61794D
:40644000FFF798FD074601F05FFC688A002806D01B49088A032212021043088202E0002001F02AFF1648803801886E8A002E0CD0304648431349FBF771FC0004000C01D0A2
:40648000401C80B21049488002E00F4800214180288A704381B2A07801F084FEFF2228374932B9B21346204602F028FCE98AA07801F0F8FDA07801F025FAF8BD80102E4068
:4064C000E0112E4071020000420E00207FB504468034616805460E46183108226846FCF7E8F931462031082202A8FCF7E2F9102168460CF017F86068102108300CF012F840
:4065000060682B46083024331022694602F072FE7FBD10B504460821FFF7FAFA10212046FFF7F6FA207905281FD006281DD008281AD12189002003F081FB07202071204633
:40654000FEF7C0FF014620464030012913D00E21017000210176204600F0BCFF2046FFF76BFE2046FFF7C2FE10BD20890122002103F048FBE1E70521EAE70000FFB581B07F
:406580001F4604460821FFF7C3FA10212046FFF7BFFA2079082803D0092804D0042203E00422012501E009220025204600F044FE264600204036307022712046FFF73CFE80
:4065C0000398002D02D0012808D00BE001280AD120890022029903F015FB04E02189029803F02CFB012700203076012F04D0204600F070FF05B0F0BD02983073204602F0B8
:40660000F7FA054605480121428B2046FFF775FA002DEFD109202071ECE70000F415002070B50C460546FEF74DFF012809D108212846FFF76DFA0023012221462846FFF769
:406640009DFF70BD10B5044600F0F6FD2046FFF7F3FD00214034217010BD70B505461A24FEF730FF012809D108212846FFF750FA0023012221462846FFF780FF70BD0000B7
:40668000F8B50446002000900E4668460BF0B0FF002801D00D20F8BD8420005908212030009D00F02CFA20460421383000F027FA002E02D1204600F0FBFD2946204602F069
:4066C000D4F90E480821428B2046FFF716FA204600F071FF25464035002808D0204600F023F8002801D0092028700020F8BD08202870204600F0DAFFF7E70000F415002079
:40670000014610B540310A460978082906D0092907D00A2901D100F091F810BD0B20107010BD00F001F810BD70B50446007925464035052805D0062803D008280FD00C207C
:4067400070BD03220621204602F026FA0D480821428B2046FFF7D1F91120287010E006202873204602F044FA0646AA8A0A20424301212046FFF7C1F9002E01D10920207186
:40678000002070BDF415002038B504460020009068460BF02DFF002801D00D2038BD2046009D00F0C3F908202071204600F080FD2946204602F090F900213D2001550F20FE
:4067C00040210855204600F071FF002038BD00B5024600F031FD10214032117000BD10B50446FEF76FFE012809D04020005D112805D100231A4606212046FFF7BFFE10BD35
:4068000010B5FFF786FE10BD38B504460021684600910BF0EDFE00280CD12046009902F0DCF905480821428B2046FFF766F90D204034207038BD0000F415002038B5044680
:406840000021684600910BF0D3FE002801D00D2038BD2046009902F0B5F905480821428B2046FFF74AF90C2040342070002038BDF415002000787047F8B5002569460D70B5
:40688000002801D0002400E01F4C002C18D0204600F0DBFC002813D0207903280BD005280CD026464036B18AA07801F085FCB078012806D01DE0042020711DE00620207148
:4068C000F8BD0021204601F0DCFD274680373868002802D00BF0FAFE3D600020B0702079072802D12046FFF701FD0221204600F0F7FE20790428E3D1207A69460870342013
:40690000FEF7A8FCF8BD00006016002010B54C22115400F052F810BD10B50446FF21FFF7F7F809202071A07801F06CFC10BD000038B5FF216A461180002801D0002400E07D
:406940000B4C002C12D011460620FDF7EDFC684601882046FFF72FFD204600F087FC002804D104480068C1692046884738BD000060160020840E002010B504468079002843
:4069800009D022214C200155FF212046FFF7C0F8204600F012F810BD10B5037902464032002B03D01173092B02D003E0002100E02221117300F001F810BDFEB5044600892E
:4069C000002700902781207926464036002817D0012815D002280AD112E002AA01A9204601F020FD002807D101980BF065FE204601F040FD0028F0D02046FEF7B3FCB77635
:406A0000254680352868002802D00BF05FFE2F606868002802D00BF059FE6F60317B002919D0009800F064F8A078002100F086FF2046FFF795FAA07801F058F8A07800F03E
:406A400037FDFF212046FFF763F80B20FFF724F800F068FCFEBD1F213173E2E7F8B517460E46054602F0F6FB04003CD020460C3000F0F6FF2046062200211830FBF722FFE5
:406A80002046062200211230FBF71CFF1648224600683946436A28469847074626702846FEF710FD012148406070002D10D02889608028464030C1782171002E0FD169792D
:406AC0006171018AE180418A2181808A608106E00648008BC005C00F2071002060803946204603F02EF8F8BD680E002000102E400A4610B50146002003F040F910BD10B59B
:406B00000BF0ECFA10BD000000B50146FFF702FA002801D0002000E00348002802D002898A4200D0002000BD6016002038B5044680346068002806D168460BF069FD0028F8
:406B400001D100986060606838BD000010B5014600F086FB0128887802D0FEF7BDFC10BD90214843024940186030007F10BD00004016002070B5054604464035A87F01288B
:406B800011D1A1789020084A484380186030067F3046FEF76FFE002805D10220A877A078314601F04DF870BD4016002010B50C4CA07A002813D0FEF709FF0A48027F417F4F
:406BC000408B00F0B7FB012809D10020A07200F0FDFE05498989090B01D000F03BFA10BD1017002040160020A0102E4070477047490510B5490F0B00FCF730FD06070408D9
:406C00000C0C0F073E21FFF781FE10BD0821FFF7C3FE10BDFFF7D1FE10BDFFF7ADFE10BDF8B507460025002D01D0002600E0204E00F09AFE3046403044890021418100F039
:406C40009DFE304600F001FB01282BD1A00702D52846FFF711FEE00602D52846FFF768FEA00601D5FEF7B2FE600601D500F014FB200602D5284600F01DF8600702D5284602
:406C800000F02CFA380402D52846FFF713FB780402D52846FFF700FBE00703D021463046FFF7A6FF6D1C2D062D0EBCD0F8BD000060160020F8B5002801D0002400E0284C69
:406CC000002C4BD025464035A878012846D1FF278820493700593E46002805D02149097B890601D5878AC68A2046FEF7EBFB012834D002F0B3FA2A8A6179FFF73BF90090DC
:406D000001F002F800983346283081B23A46204601F0F4FFE98AA07801F0C4F912480188688A124E002810D048431149FBF716F80004000C01D0401C80B27080A07DC10763
:406D4000C90F002001F08AFA01E000207080288A698A484381B2A07801F024FAF8BD000060160020F415002060112E40420E0020710200000149096809680847840E0020C8
:406D800070B50D460026194A0146002801D0002401E014462034002C26D0204600F060FA01280AD19020484380186030007FFEF761FD002801D101F09BFE0D4800688169A9
:406DC0002046884700280CD020464030817EA94202D3491B817600E086762089294602F06EFF204600F062FC70BD000040160020840E002070B503460088FFF785FE04009B
:406E000013D000F022FA00280FD02079092819D02546997840352973204601F0E9FE0646A878012803D0AA8A02E0022070BDEA880A20424301212046FEF75FFE002E01D116
:406E400009202071002070BD0EB5002217216B460292198100905A810120029B00990BF0D5FC0EBDF8B518480024807A002822D1164E0025B089000B22E0204600F010FE3D
:406E80001249A039401807882A462146384600F051FA012810D00E480122478305770A4944778A72002D01D0002000E02030002801D000F0FBFBF8BDB089000B641CE4B219
:406EC0000028DAD1F8BD000010170020A0102E404016002010B50088FFF716FE002809D0014640310C460978082905D00B2903D00C2010BD022010BDFFF716FC002801D056
:406F000009202070002010BD70B503460088FFF7FBFD040008D0254640352878082805D00B2803D00C2070BD022070BD8420005910220830991CFBF7BCFC2046FFF7C6FAD6
:406F40002878082804D02046FFF778FC002801D00A202870204600F0A9FB002070BD000010B50C46002121700088FFF7CDFD03000BD000F06AF9002807D00948F121007B7C
:406F80000840C00603D4112010BD022010BD022020701A8A1889002102F00CFF002010BDF4150020F8B50F46002100910088FFF7ABFD040012D000F048F900280ED0E07984
:406FC000410641D4617E02264A07002A08DB8907402500291ADA2843E07135E00220F8BD02F038F90021017021894180A1898180217E4170E189C1803E7005460178134803
:4070000002F0B2FB284602F079FE1DE0204600F02DF9012806D068460BF0EAFA002803D00720F8BD2A20F8BDE07900992843E071204601F007FE607E04213043607604485D
:40704000428B2046FEF759FD0020F8BD1D040000F41500203EB500220F236C460292238100910190628169460EC900200BF0CEFB3EBD0000F8B50F46054600F097FA040006
:4070800025D003202071254600264035EE76E6702046FFF7A1F900F0F1FF0920FEF7FCFCA07800F011FD0121204600F019FB2E706E70AE703A4600212046FFF7CFFC064928
:4070C000887B401C8873A078FFF754FEF8BD284601F098F8F8BD00004016002010B5002801D0002000E0094800280DD0014640310A464978022901D100215170807DC10786
:40710000C90F002001F0AAF810BD00006016002070B503460D460088FFF7F6FC04000BD000F093F8002807D01248F121007B0840C00603D4112070BD022070BD2046403088
:40714000418A008A491C41430804C10C5888884201D2122070BD20822079072802D12046FFF7C4F8022028702089002102F04AFE002070BDF4150020016A491C016204D18B
:40718000817E491C4906490E81767047C169491CC16104D1C17E491C4906490EC1767047F0B5074687B003A8009005A800260D460190002F01D0002400E01B4C002C05D0D2
:4071C0006846FCF797F8002803D00BE0022007B0F0BD68460089C00704D1902200212046FBF770FB114829460068826820469047050016D1A77066762746267140373E702B
:40720000204600F019F8204601F030F9084820820848BE77007BF121084000D001202075E682E8B2D3E7000060160020840E0020B80B0000F4150020002101628176C16108
